:020000040800F2
:10000000785B002079020008D34A0008B70900088D
:10001000D14A000899070008514F0008000000006D
:10002000000000000000000000000000E1010008E6
:100030009B0700080000000025020008B94C0008DA
:10004000930200089302000893020008930200083C
:10005000930200089302000893020008930200082C
:10006000930200089D07000893020008930200080D
:10007000930200089302000893020008930200080C
:1000800093020008930200089302000893020008FC
:1000900093020008930200089302000893020008EC
:1000A00093020008930200089302000893020008DC
:1000B000930200081D4D00089302000893020008F7
:1000C00093020008930200089302000893020008BC
:1000D00093020008B54D000893020008930200083F
:1000E000930200089302000893020008930200089C
:1000F000930200089302000893020008930200088C
:100100009302000893020008594D0008930200086A
:10011000930200089302000893020008930200086B
:10012000930200089302000893020008930200085B
:1001300000F002F800F045F80AA090E8000C8244B4
:100140008344AAF10107DA4501D100F03AF8AFF291
:10015000090EBAE80F0013F0010F18BFFB1A43F0A5
:1001600001031847148C0000348C0000103A24BF9F
:1001700078C878C1FAD8520724BF30C830C144BF0C
:1001800004680C607047000000230024002500264E
:10019000103A28BF78C1FBD8520728BF30C148BFEA
:1001A0000B607047642900F0F380782900F02C81FF
:1001B000732900F02982002070471FB51FBD10B5BC
:1001C00010BD00F0B6FA1146FFF7F7FF04F076FF16
:1001D00000F0D4FA03B4FFF7F2FF03BC04F0B9FE59
:1001E000224B19680868B0E8F00F80F30988BFF364
:1001F0006F8F4FF0000080F311884EF00D0E7047A6
:100200000000000006480068006880F3088862B6B5
:1002100061B6BFF34F8FBFF36F8F00DF00BF00BF2A
:1002200008ED00E0EFF30980BFF36F8F0F4B1A6802
:1002300020E9F00F106008B54FF0500080F31188EE
:10024000BFF34F8FBFF36F8F06F02CFA4FF0000013
:1002500080F31188BDE8084019680868B0E8F00F1D
:1002600080F30988BFF36F8F704700BF80000020C4
:10027000EFF30580704700000948804709480047B0
:10028000FEE7FEE7FEE7FEE7FEE7FEE7FEE7FEE746
:10029000FEE7FEE704480549054A064B70470000A3
:1002A000CD4C00083101000878550020785B002013
:1002B0007857002078570020704700000FB4044999
:1002C00010B503AA029800F0A3F910BC5DF814FB66
:1002D000680000202DE9F0410E460446002020620F
:1002E0002046E168884730B3252805D0D4E90121AC
:1002F0009047206A401CF2E7E168204600278847C3
:10030000050018D0A5F14100192802D820354FF476
:1003100000673246294620462760FFF743FF40B179
:10032000012804D0F61D26F007060836D8E7361D4A
:10033000D6E72846DAE7206ABDE8F08170B50C46BA
:100340000546012A05D02878800600D5EA690023F1
:1003500002E0012305E05B1C934202D2E05C00282E
:10036000F9D1A869E618C01AA861286A1844286259
:100370002846AFF3008004E0D5E9012114F8010B11
:100380009047B442F8D32846AFF3008070BD000018
:100390002DE9F0410646002410687529314616A55E
:1003A00010D0AFF30080002802DA404213A507E026
:1003B00031688A0701D512A502E0490704D511A5C5
:1003C000012401E0AFF3008000210A2206F1240796
:1003D00009E0B0FBF2FCB0FBF2F302FB1C00303092
:1003E00078541846491C0028F3D123462A46304643
:1003F000BDE8F04100F085B8000000002D000000CD
:100400002B0000002000000070B504460D46214678
:100410001068AFF300802188090502D50F4A7A449D
:1004200002E00E4A7A440E32002104F1240305E072
:1004300000F00F060009965D5E54491C0028F7D1B4
:1004400020780023000704D5702D02D009B10223C3
:1004500011322046BDE8704000F053B82E890000EC
:10046000032A40F2308010F0030C00F0158011F8E0
:10047000013BBCF1020F624498BF11F801CB00F8B8
:10048000013B38BF11F8013BA2F1040298BF00F80C
:1004900001CB38BF00F8013B11F0030300F0CA8024
:1004A000083AC0F0088051F8043B083A51F804CBF0
:1004B000A0E80810F5E7121D5CBF51F8043B40F8B6
:1004C000043BAFF30080D20724BF11F8013B11F8C1
:1004D00001CB48BF11F8012B24BF00F8013B00F805
:1004E00001CB48BF00F8012B704702F0FF0343EA3D
:1004F000032242EA024200F0D1B8704770477047C9
:1005000070472DE9F0470D4699469246044600F1A2
:1005100024080168880604D5E06921F010012160F3
:1005200000E00120A84201DD471B00E00027A1698F
:100530007A1902EB0900081AA0612078C00602D4DB
:100540002046AFF30080002608E0D4E901211AF824
:1005500006009047206A401C761C20624E45F4DB62
:100560002078C0060AD52046AFF3008006E0D4E923
:10057000012130209047206A401C2062381EA7F1DC
:100580000107F4DC07E0D4E9012118F805009047E1
:10059000206A401C2062281EA5F10105F3DC2046DC
:1005A000AFF300802078000602D50220BDE8F08776
:1005B0000120FBE701694A1C02610878704700B519
:1005C0008FB0CDE901310021059105497944CDE98C
:1005D000031011466846FFF77DFE0FB000BD000016
:1005E000E5FFFFFF10B5436913B1AFF3008001E0F1
:1005F000FFF7A4FE012010BD127800F124010A705B
:1006000000224A700122EDE711684FF0FF32E9E75E
:10061000074B70B50D467B44FFF7D1FF04462846D3
:1006200000F05CF810B14FF0FF3070BD204670BD97
:100630000B4A000010B5203AC0F00B80B1E818500A
:10064000203AA0E81850B1E81850A0E81850BFF4BC
:10065000F5AF5FEA027C24BFB1E81850A0E818505B
:1006600044BF18C918C0BDE810405FEA827C24BFAF
:1006700051F8043B40F8043B08BF7047D20728BF3D
:1006800031F8023B48BF11F8012B28BF20F8023B8C
:1006900048BF00F8012B70474FF000020429C0F05A
:1006A000128010F0030C00F01F80CCF1040CBCF1A0
:1006B000020F18BF00F8012BA8BF20F8022BA1EBF6
:1006C0000C0100F011B85FEAC17C24BF00F8012BD7
:1006D00000F8012B48BF00F8012B7047007B00F0A9
:1006E000800070474FF0000200B5134694469646CE
:1006F000203922BFA0E80C50A0E80C50B1F1200135
:10070000BFF4F7AF090728BFA0E80C5048BF0CC0E2
:100710005DF804EB890028BF40F8042B08BF704740
:1007200048BF20F8022B11F0804F18BF00F8012BB2
:100730007047754600F02CF8AE46050069465346F2
:1007400020F00700854618B020B5FFF7A3FDBDE8EF
:1007500020404FF000064FF000074FF000084FF028
:10076000000B21F00701AC46ACE8C009ACE8C009B9
:10077000ACE8C009ACE8C0098D46704710B5044626
:10078000AFF300802046BDE81040FFF723BD000016
:100790000048704718550020FEE7704710B5142038
:1007A00004F032FC08210D4800F0FCF880B90C4838
:1007B000006806F09DFC04460AA0FFF77FFD012CAF
:1007C00006D10D4920070860BFF34F8FBFF36F8F2D
:1007D000BDE81040082000F045B8000000140140BA
:1007E0000C000020BBD6B8B4C8CECEF132B5C4D40C
:1007F000CBD0D0210D0A000004ED00E07FB501212F
:10080000202004F0A3F90824ADF80C4048208DF80E
:100810000F0003A9124800F077F80121084604F000
:1008200095F90321084600F05BF8009400248DF848
:1008300004400C208DF8050001258DF8065068460F
:1008400000F016F809208DF8080006208DF8090040
:100850008DF80A408DF80B5002A804F03BF97FBDDB
:100860000014014001490860704700001404014071
:1008700030B51A4A8379016853B313688B43136008
:10088000111D0B680468A3430B60017911440B68C8
:10089000046823430B60114B083319680468A143B3
:1008A00019601C1D21680568A94321604179102940
:1008B00005D011440A68006802430A6030BD196817
:1008C000026811431960216800680143216030BD4E
:1008D0000079104402688A43026030BD0004014080
:1008E00010B58A0721F003040649120F21440F2393
:1008F0008C6893409C438C608B68904003438B6072
:1009000010BD000000000140F0B5CC78002204F0DA
:100910000F03E40601D58C7823430C784FF00F0CBD
:1009200014F0FF0F4FF0010E1BD005680E880EFA71
:1009300002F42640A64210D196000CFA06F725EAEA
:10094000070703FA06F5CE783D43282E02D0482E3D
:1009500002D002E0446100E00461521C082AE5D3A1
:1009600005600A88FF2A1CD94468002202F10806A3
:100970000EFA06F50E882E40AE420ED196000CFA05
:1009800006F7BC4303FA06F7CE783C43282E00D185
:100990004561CE78482E00D10561521C082AE5D366
:1009A0004460F0BD0246002092680A4200D0012057
:1009B000704701617047FEE738B50121342004F02B
:1009C000C5F80120ADF80000114D48248DF8034012
:1009D00069462846FFF798FF6814ADF800008DF8C7
:1009E000034069460B48FFF78FFFA815ADF80000DC
:1009F0008DF8034069462846FFF786FF0820ADF8CA
:100A000000008DF8034069460348FFF77DFF38BDBD
:100A10000008014000100140001401402DE9F0479A
:100A2000304C314FDFF8C4A0314D01264FF48078AF
:100A30004FF4005908B1267001E0207898B10821E0
:100A40003846FFF7AFFFA8B141462846FFF7AAFF97
:100A500080B149465046FFF7A5FF58B1012128460D
:100A6000FFF7A0FF30B108213846FFF79BFF0128B0
:100A700023D035E00A2004F091FA002020700821EC
:100A80003846FFF78FFF78B141462846FFF78AFFC7
:100A900068B149465046FFF785FF50B1012128460D
:100AA000FFF780FF38B11BE00420BDE8F08703208A
:100AB000FBE70220F9E70120F7E741462846FFF768
:100AC00071FF01280CD149465046FFF76BFF012802
:100AD00006D101212846FFF765FF012800D12670C5
:100AE0000020E2E7600000200014014000100140F7
:100AF000000801402DE9F043184F064600243888CD
:100B00007D884543B888A0F5D041043902D1B87931
:100B1000012808D00021084603F01AFE03F0AAFFBE
:100B20004FF0D84015E00020B8714FF02A09A7F81F
:100B30000A904FF02B08A7F80C80014603F008FE3E
:100B40000120B871A7F80A80A7F80C90E6E7468064
:100B5000641CAC42FBD3BDE8F0830000F40000202D
:100B60002DE9F04F4A492A232B24898845F2105A4F
:100B70004FF4305B4FF4285E4FF448754FF0F00CA3
:100B800049F241394FF4A07745F210364FF4F07234
:100B900080B13F484FF00108494580F80680078042
:100BA000A0F802C001D0B1423ED12C25058143817D
:100BB000848157E036484FF00008494580F80680A8
:100BC000A0F800C0478006D0A1F5D04CBCF1040CC1
:100BD00001D0B1420CD12C2505814381A1F5D04330
:100BE0008481043B01D0B14244D10780428041E07E
:100BF000514507D1A0F808B0A0F80AE04FF42C51F5
:100C000081810EE0A1F5C856633E06D02221018104
:100C100020214181212181812CE02C2101814481ED
:100C200083810280458025E0A1F5D04CBCF1040C05
:100C300009D051450BD1A0F808B0A0F80AE04FF454
:100C40002C53838121E02C250581448109E0A1F505
:100C5000C85CBCF1630C12D02223038121234381A1
:100C600020238381A1F5D043043B01D0B14201D1BF
:100C700002804780BDE8F04F002003F067BC4FF0D2
:100C80002C0CA0F808C04381848105804280E9E7EC
:100C9000F40000202DE9FE4F0026A2EB000882465A
:100CA0005F1A701E35468946B8F1000F02DD4FF01D
:100CB000010102E003D14FF00001019102E0C8F10F
:100CC00000080190002F02DD4FF0010002E003D187
:100CD0004FF00000009002E0C7F10007009040468E
:100CE000B84501DD044600E03C46601C4FF0000BB7
:100CF000029015E01FFA89F11FFA8AF000F016F849
:100D000046443D44A64202DD0199361B8A44A54271
:100D100002DD00992D1B89440BF101001FFA80FBB5
:100D200002998B45E6DDBDE8FE8F000000B503F0BB
:100D30000FFD03F09FFE03484FF0D8410088488024
:100D400000BD00005C000020F0B51C4615460E46B4
:100D500007460B46FFF79EFF3A46234631461046AC
:100D6000FFF798FF23462A4619463846FFF792FFB9
:100D70002A4623463146BDE8F0401046FFF78ABFB9
:100D80002DE9F043414D91460C460246060AA988DA
:100D90002846A1F5134340894FEA1428413B17D058
:100DA000A1F5A643103B13D0A1F5AA43103B13D0E5
:100DB0002E46A1F5C857B3793688B61A761E633F1A
:100DC00023D0A1F5D047043F3AD0012B4DD04DE0C0
:100DD00003F044FE304639E003F040FE304603F0B5
:100DE00032FE6889401C80B203F038FED0B203F0B6
:100DF0002AFEA88903F032FE404603F024FEA889AB
:100E0000401C80B203F02AFE2BE003B9B2B203F01B
:100E100025FE160A304603F016FED0B203F013FE8C
:100E2000304603F010FED0B203F00DFEA88903F0A7
:100E300015FE404603F007FEE0B203F004FE0DE0AD
:100E4000012B00D1B2B203F009FE100A03F0FBFD42
:100E5000D0B203F0F8FDA88903F000FE404603F08D
:100E6000F2FDE0B203F0EFFD07E0B2B2114603F08D
:100E700009FEA889214603F005FE4FF0D8402989D4
:100E80000180A0F80290BDE8F0830000F40000208B
:100E90002DE9F8431F4D1F468046AB88089EA3F5F9
:100EA000D040043802D1A879012807D0A2EB08006D
:100EB000401C85B20C464FF0D84928E02B880846E4
:100EC000991A0024AC713A462A24A3EB08036C81DA
:100ED0002B27491E5B1EAF8189B29BB20096FFF79C
:100EE000D7FF0120A8716F81AC81BDE8F88321464E
:100EF000404603F02DFC03F0BDFD0020494602E012
:100F0000401C4E8080B2A842FAD3641CA4B2BC42FA
:100F1000EDD9EAE7F40000202DE9F05FFE484069D2
:100F2000FD4940F480704861886940F0080088619C
:100F3000886940F020008861886940F0400088613D
:100F4000886940F4807088610121802003F0FEFDF3
:100F5000F2480068F14920F00F000860086840F08E
:100F600003000860EE480168EE4A11400160016824
:100F7000ED4A11430160001F016801F0FF2101608B
:100F8000016841F0BB110160E8480168002101607F
:100F9000026842F0BB320260001F026822F0704219
:100FA0000260026842F030420260E148426822F486
:100FB00070224260426842F430224260DD4802689A
:100FC00022F00F020260026842F00B0202604FF052
:100FD00020408161C161C0F81C11816941F48051D8
:100FE0008161816941F480418161816941F0100131
:100FF0008161C169C161C16941F00101C161C1691A
:1010000041F47061C161D0F81C11C0F81C11D0F816
:101010001C11C0F81C11D0F81C1141F44071C0F82B
:101020001C11816941F001018161322003F0B6FF9A
:10103000002003F058FAC04C49F2413746F6040844
:10104000A08045F2103945F210554FF6FF76FF2883
:1010500004D3B04202D0B0F5134F76D1D32003F0C1
:10106000FDFC03F037FAA08003F034FAA08003F00F
:1010700031FA06EA0020A08003F02CFAA188084388
:10108000A080B84261D0BF2003F0E8FC03F022FA50
:10109000A08003F01FFAA08003F01CFAA08003F0E8
:1010A00019FA06EA0020A08003F014FAA188084388
:1010B000A080404549D0D42003F0D0FC03F00AFAC8
:1010C000A08003F007FAA08003F004FA06EA0020EB
:1010D000A08003F0FFF9A1880843A080484534D0E0
:1010E0004FF45A4003F0BAFC03F0F4F9A0804FF437
:1010F0005B4003F0B3FC03F0EDF906EA0020A080AA
:101100004FF45C4003F0AAFC03F0E4F9A188084323
:10111000A080B0F5004F7DD0A84216D0A12003F0EA
:101120009DFC03F0D7F9A08003F0D4F906EA002073
:10113000A08003F0CFF9A1880843A0F5AE41A080BC
:10114000613902D141F66310A080A1887BA0FFF72E
:10115000B5F8A088B8427DD1CF2003F07FFC0020F5
:1011600003F071FCC12003F06EFC302003F06BFC37
:10117000ED2003F073FC642003F065FC032003F012
:1011800062FC122003F05FFC812003F05CFCE8208D
:1011900003F064FC852003F056FC102003F053FCA0
:1011A0007A2003F050FCCB2003F058FC392003F0E8
:1011B0004AFC2C2003F047FC002003F044FC3420C0
:1011C00003F041FC022003F03EFCF72003F046FC54
:1011D000202003F038FCEA2003F040FC002003F05C
:1011E00032FC002003F02FFCC02003F037FC1B2052
:1011F00003F029FCC12003F031FC012003F023FCA3
:10120000C52003F02BFC302003F01DFC302003F040
:101210001AFC00E0CEE0C72003F020FCB72003F06A
:1012200012FC362003F01AFC482003F00CFC3A2094
:1012300003F014FC552003F006FCB12003F00EFC73
:10124000002003F000FC1A2003F0FDFBB62003F0A1
:1012500005FC00E0B0E00A2003F0F5FBA22003F05B
:10126000F2FBF22003F0FAFB002003F0ECFB262057
:1012700003F0F4FB012003F0E6FBE02003F0EEFBBB
:101280000F2003F0E0FB2A2003F0DDFB282003F011
:10129000DAFB082003F0D7FB0E2003F0D4FB082074
:1012A00003F0D1FB542003F0CEFBA92003F0CBFBCD
:1012B000432003F0C8FB0A2003F0C5FB0F2003F016
:1012C000C2FB002003F0BFFB002003F0BCFB0020AA
:1012D00003F0B9FB002003F0B6FBE12003F0BEFBF6
:1012E000002003F0B0FB152003F0ADFB172003F046
:1012F000AAFB072003F0A7FB112003F0A4FB0620A4
:1013000003F0A1FB2B2003F09EFB562003F09BFB78
:101310003C2003F098FB19E000100240000C014053
:101320000414014000F0FF00BB0B00BB0418014097
:1013300000200140001C0140F40000204C434420E8
:1013400049443A307825780D0A000000052003F062
:101350007AFB102003F077FB0F2003F074FB3F2093
:1013600003F071FB3F2003F06EFB0F2003F06BFBDB
:101370002B2003F073FB002003F065FB002003F03B
:1013800062FB012003F05FFB3F2003F05CFB2A209F
:1013900003F064FB002003F056FB002003F053FB36
:1013A000002003F050FBEF2003F04DFB112003F071
:1013B00055FBA7E0A580C8E640457CD1112003F08D
:1013C0004DFB142003F0EAFDD02003F047FB07207B
:1013D00003F039FB422003F036FB1D2003F033FB02
:1013E000D12003F03BFB002003F02DFB1A2003F07B
:1013F0002AFB092003F027FBD22003F02FFB01205A
:1014000003F021FB222003F01EFBC02003F026FB8B
:10141000102003F018FB3B2003F015FB002003F025
:1014200012FB022003F00FFB112003F00CFBC52080
:1014300003F014FB032003F006FBC82003F00EFBAF
:10144000002003F000FB252003F0FDFA212003F02B
:10145000FAFA052003F0F7FA002003F0F4FA0A2064
:1014600003F0F1FA652003F0EEFA252003F0EBFA21
:10147000772003F0E8FA502003F0E5FA0F2003F09C
:10148000E2FA002003F0DFFAF82003F0E7FA012087
:1014900003F0D9FAFE2003F0E1FA002003F0D3FABA
:1014A000022003F0D0FA202003F0D8FA362003F00F
:1014B000D5FA082000E02BE003F0C5FA3A2003F04B
:1014C000CDFA552003F0BFFA2B2003F0C7FA002015
:1014D00003F0B9FA002003F0B6FA012003F0B3FAE2
:1014E0003F2003F0B0FA2A2003F0B8FA002003F0FE
:1014F000AAFA002003F0A7FA012003F0A4FADF20E3
:1015000003F0A1FA782003F049FD292001F0FCBE88
:1015100048457CD1ED2003F0A1FA012003F093FAB5
:10152000FE2003F090FAEE2003F098FADE2003F09C
:101530008AFA212003F087FAF12003F08FFA0120C4
:1015400003F081FADF2003F089FA102003F07BFA20
:10155000C42003F083FA8F2003F075FAC62003F04D
:101560007DFA002003F06FFAE22003F06CFAE2202B
:1015700003F069FAE22003F066FABF2003F06EFA86
:10158000AA2003F060FAB02003F068FA0D2003F0FF
:101590005AFA002003F057FA0D2003F054FA002005
:1015A00003F051FA112003F04EFA002003F04BFA39
:1015B000192003F048FA002003F045FA212003F037
:1015C00042FA002003F03FFA2D2003F03CFA0020FD
:1015D00003F039FA3D2003F036FA002003F033FA25
:1015E0005D2003F030FA002003F02DFA5D2003F0B7
:1015F0002AFA002003F027FAB12003F02FFA802006
:1016000003F021FA002003F01EFA8B2000E0FCE337
:1016100003F019FA002003F016FA962003F013FAEB
:10162000002003F010FAB22003F018FA002003F0B3
:101630000AFA002003F007FA022003F004FA00205F
:1016400003F001FA032003F0FEF9002003F0FBF998
:10165000B32003F003FA002003F0F5F9002003F0B3
:10166000F2F9002003F0EFF9002003F0ECF900207C
:1016700003F0E9F9002003F0E6F9002003F0E3F9B4
:10168000002003F0E0F9002003F0DDF9002003F072
:10169000DAF9002003F0D7F9002003F0D4F9002094
:1016A00003F0D1F9002003F0CEF9002003F0CBF9CC
:1016B000002003F0C8F9002003F0C5F9002003F072
:1016C000C2F9002003F0BFF9002003F0BCF90020AC
:1016D00003F0B9F9002003F0B6F9002003F0B3F9E4
:1016E000002003F0B0F9B42003F0B8F98B2003F028
:1016F000AAF9002003F0A7F9962003F0A4F900202E
:1017000003F0A1F9A12003F09EF9002003F09BF95A
:10171000B52003F0A3F9022003F095F9002003F0AF
:1017200092F9032003F08FF9002003F08CF90420D4
:1017300003F089F9002003F086F9B62003F08EF952
:10174000002003F080F9002003F07DF9B72003F0BA
:1017500085F9002003F077F9002003F074F93F20A9
:1017600003F071F9002003F06EF95E2003F06BF9CD
:10177000002003F068F9642003F065F9002003F00D
:1017800062F98C2003F05FF9002003F05CF9AC20D3
:1017900003F059F9002003F056F9DC2003F053F967
:1017A000002003F050F9702003F04DF9002003F001
:1017B0004AF9902003F047F9002003F044F9EB20A8
:1017C00003F041F9002003F03EF9DC2003F03BF97F
:1017D000002003F038F9B82003F040F9002003F0AE
:1017E00032F9002003F02FF9002003F02CF900203B
:1017F00003F029F9002003F026F9002003F023F973
:10180000002003F020F9002003F01DF9BA2003F0B6
:1018100025F9242003F017F9002003F014F9002023
:1018200003F011F9002003F00EF9C12003F016F9BE
:10183000202003F008F9002003F005F9542003F0FC
:1018400002F9002003F0FFF8FF2003F0FCF800206D
:1018500003F0F9F8C22003F001F90A2003F0F3F8CD
:10186000002003F0F0F8042003F0EDF8002003F06E
:10187000EAF8C32003F0F2F83C2003F0E4F800207B
:1018800003F0E1F83A2003F0DEF8002003F0DBF883
:10189000392003F0D8F8002003F0D5F8372003F002
:1018A000D2F8002003F0CFF83C2003F0CCF8002061
:1018B00003F0C9F8362003F0C6F8002003F0C3F89F
:1018C000322003F0C0F8002003F0BDF82F2003F011
:1018D000BAF8002003F0B7F82C2003F0B4F8002089
:1018E00003F0B1F8292003F0AEF8002003F0ABF8C4
:1018F000262003F0A8F8002003F0A5F8242003F028
:10190000A2F8002003F09FF8242003F09CF80020A8
:1019100003F099F8232003F096F8002003F093F8E1
:101920003C2003F090F8002003F08DF8362003F0FF
:101930008AF8002003F087F8322003F084F80020B2
:1019400003F081F82F2003F07EF8002003F07BF8ED
:101950002C2003F078F8002003F075F8292003F01C
:1019600072F8002003F06FF8262003F06CF80020D6
:1019700003F069F8242003F066F8002003F063F810
:10198000242003F060F8002003F05DF8232003F02A
:101990005AF8002003F057F8C42003F05FF86220E3
:1019A00003F051F8002003F04EF8052003F04BF847
:1019B000002003F048F8842003F045F8002003F0ED
:1019C00042F8F02003F03FF8002003F03CF8182024
:1019D00003F039F8002003F036F8A42003F033F8C0
:1019E000002003F030F8182003F02DF8002003F059
:1019F0002AF8502003F027F8002003F024F80C20E8
:101A000003F021F8002003F01EF8172003F01BF864
:101A1000002003F018F8952003F015F8002003F0DB
:101A200012F8F32003F00FF8002003F00CF8E62082
:101A300003F009F8002003F006F8C52003F00EF8C3
:101A4000322003F000F8002002F0FDFF442002F0F5
:101A5000FAFF002002F0F7FF652002F0F4FF0020FB
:101A600002F0F1FF762002F0EEFF002002F0EBFF23
:101A7000882002F0E8FF002002F0E5FFC62002F017
:101A8000EDFF202002F0DFFF002002F0DCFF172036
:101A900002F0D9FF002002F0D6FF012002F0D3FFB0
:101AA000002002F0D0FFC72002F0D8FF002002F093
:101AB000CAFF002002F0C7FF002002F0C4FF002090
:101AC00002F0C1FFC82002F0C9FF002002F0BBFFF6
:101AD000002002F0B8FF002002F0B5FF002002F065
:101AE000B2FFC92002F0BAFF002002F0ACFF0020D4
:101AF00002F0A9FF002002F0A6FF002002F0A3FFE1
:101B0000002002F0A0FF002002F09DFF002002F064
:101B10009AFF002002F097FF002002F094FF0020BF
:101B200002F091FF002002F08EFF002002F08BFFF8
:101B3000002002F088FF002002F085FF002002F064
:101B400082FF002002F07FFFE02002F087FF1620D6
:101B500002F079FF002002F076FF1C2002F073FFF4
:101B6000002002F070FF212002F06DFF002002F043
:101B70006AFF362002F067FF002002F064FF462073
:101B800002F061FF002002F05EFF522002F05BFFD6
:101B9000002002F058FF642002F055FF002002F000
:101BA00052FF7A2002F04FFF002002F04CFF8B2002
:101BB00002F049FF002002F046FF992002F043FFA7
:101BC000002002F040FFA82002F03DFF002002F0BC
:101BD0003AFFB92002F037FF002002F034FFC420A2
:101BE00002F031FF002002F02EFFCA2002F02BFF8E
:101BF000002002F028FFD22002F025FF002002F092
:101C000022FFD92002F01FFF002002F01CFFE0207D
:101C100002F019FF002002F016FFF32002F013FF7C
:101C2000002002F010FFE12002F018FF162002F061
:101C30000AFF002002F007FF1C2002F004FF002032
:101C400002F001FF222002F0FEFE002002F0FBFE67
:101C5000362002F0F8FE002002F0F5FE452002F0EA
:101C6000F2FE002002F0EFFE522002F0ECFE002017
:101C700002F0E9FE642002F0E6FE002002F0E3FE3E
:101C80007A2002F0E0FE002002F0DDFE8B2002F060
:101C9000DAFE002002F0D7FE992002F0D4FE0020E8
:101CA00002F0D1FEA82002F0CEFE002002F0CBFE12
:101CB000B92002F0C8FE002002F0C5FEC42002F0E8
:101CC000C2FE002002F0BFFECA2002F0BCFE0020CF
:101CD00002F0B9FED22002F0B6FE002002F0B3FE00
:101CE000D82002F0B0FE002002F0ADFEE02002F0AD
:101CF000AAFE002002F0A7FEF32002F0A4FE0020BE
:101D000002F0A1FEE22002F0A9FE052002F09BFEF7
:101D1000002002F098FE0B2002F095FE002002F059
:101D200092FE1B2002F08FFE002002F08CFE342079
:101D300002F089FE002002F086FE442002F083FEBD
:101D4000002002F080FE4F2002F07DFE002002F015
:101D50007AFE612002F077FE002002F074FE792006
:101D600002F071FE002002F06EFE882002F06BFE91
:101D7000002002F068FE972002F065FE002002F0CD
:101D800062FEA62002F05FFE002002F05CFEB7209B
:101D900002F059FE002002F056FEC22002F053FE6F
:101DA000002002F050FEC72002F04DFE002002F09D
:101DB0004AFED12002F047FE002002F044FED62069
:101DC00002F041FE002002F03EFEDD2002F03BFE6C
:101DD000002002F038FEF32002F035FE002002F071
:101DE00032FEE32002F03AFE052002F02CFE002035
:101DF00002F029FE0A2002F026FE002002F023FE57
:101E00001C2002F020FE002000E0FDE202F01BFE9C
:101E1000332002F018FE002002F015FE442002F0EC
:101E200012FE002002F00FFE502002F00CFE0020F7
:101E300002F009FE622002F006FE002002F003FE1E
:101E4000782002F000FE002002F0FDFD882002F064
:101E5000FAFD002002F0F7FD972002F0F4FD0020CB
:101E600002F0F1FDA62002F0EEFD002002F0EBFDF5
:101E7000B72002F0E8FD002002F0E5FDC22002F0EC
:101E8000E2FD002002F0DFFDC72002F0DCFD0020B3
:101E900002F0D9FDD12002F0D6FD002002F0D3FDE2
:101EA000D52002F0D0FD002002F0CDFDDD2002F0B3
:101EB000CAFD002002F0C7FDF32002F0C4FD00209F
:101EC00002F0C1FDE42002F0C9FD012002F0BBFDDB
:101ED000002002F0B8FD012002F0B5FD002002F064
:101EE000B2FD022002F0AFFD002002F0ACFD2A207E
:101EF00002F0A9FD002002F0A6FD3C2002F0A3FDA7
:101F0000002002F0A0FD4B2002F09DFD002002F019
:101F10009AFD5D2002F097FD002002F094FD7420F0
:101F200002F091FD002002F08EFD842002F08BFD76
:101F3000002002F088FD932002F085FD002002F0D1
:101F400082FDA22002F07FFD002002F07CFDB32084
:101F500002F079FD002002F076FDBE2002F073FD54
:101F6000002002F070FDC42002F06DFD002002F0A0
:101F70006AFDCD2002F067FD002002F064FDD32051
:101F800002F061FD002002F05EFDDD2002F05BFD4D
:101F9000002002F058FDF32002F055FD002002F071
:101FA00052FDE52002F05AFD002002F04CFD002019
:101FB00002F049FD002002F046FD002002F043FD42
:101FC000022002F040FD002002F03DFD292002F039
:101FD0003AFD002002F037FD3C2002F034FD0020E5
:101FE00002F031FD4B2002F02EFD002002F02BFD0F
:101FF0005D2002F028FD002002F025FD742002F093
:1020000022FD002002F01FFD842002F01CFD0020B4
:1020100002F019FD932002F016FD002002F013FDDE
:10202000A22002F010FD002002F00DFDB32002F00E
:102030000AFD002002F007FDBE2002F004FD002092
:1020400002F001FDC42002F0FEFC002002F0FBFCC7
:10205000CD2002F0F8FC002002F0F5FCD32002F0C5
:10206000F2FC002002F0EFFCDC2002F0ECFC00208F
:1020700002F0E9FCF32002F0E6FC002002F0E3FCB1
:10208000E62002F0EBFC112002F0DDFC002002F063
:10209000DAFC342002F0D7FC002002F0D4FC5620F9
:1020A00002F0D1FC002002F0CEFC762002F0CBFC46
:1020B000002002F0C8FC772002F0C5FC002002F0EE
:1020C000C2FC662002F0BFFC002002F0BCFC8820AD
:1020D00002F0B9FC002002F0B6FC992002F0B3FC3B
:1020E000002002F0B0FCBB2002F0ADFC002002F0AA
:1020F000AAFC992002F0A7FC002002F0A4FC6620B4
:1021000002F0A1FC002002F09EFC552002F09BFC96
:10211000002002F098FC552002F095FC002002F00F
:1021200092FC452002F08FFC002002F08CFC432042
:1021300002F089FC002002F086FC442002F083FCBF
:10214000002002F080FCE72002F088FC322002F040
:102150007AFC002002F077FC552002F074FC00208D
:1021600002F071FC762002F06EFC002002F06BFCA5
:10217000662002F068FC002002F065FC672002F097
:1021800062FC002002F05FFC672002F05CFC002093
:1021900002F059FC872002F056FC002002F053FCAC
:1021A000992002F050FC002002F04DFCBB2002F010
:1021B0004AFC002002F047FC992002F044FC002079
:1021C00002F041FC772002F03EFC002002F03BFCD4
:1021D000442002F038FC002002F035FC562002F0CA
:1021E00032FC002002F02FFC232002F02CFC002007
:1021F00002F029FC332002F026FC002002F023FC30
:10220000452002F020FC002002F01DFCE82002F036
:1022100025FC002002F017FC002002F014FC99209D
:1022200002F011FC002002F00EFC872002F00BFCF3
:10223000002002F008FC882002F005FC002002F0DB
:1022400002FC772002F0FFFB002002F0FCFB66207E
:1022500002F0F9FB002002F0F6FB882002F0F3FB0D
:10226000002002F0F0FBAA2002F0EDFB002002F0BB
:10227000EAFBBB2002F0E7FB002002F0E4FB992020
:1022800002F0E1FB002002F0DEFB662002F0DBFB47
:10229000002002F0D8FB552002F0D5FB002002F010
:1022A000D2FB552002F0CFFB002002F0CCFB4420F3
:1022B00002F0C9FB002002F0C6FB442002F0C3FB81
:1022C000002002F0C0FB552002F0BDFB002002F010
:1022D000BAFBE92002F0C2FBAA2002F0B4FB002006
:1022E00002F0B1FB002002F0AEFB002002F0ABFBDD
:1022F000002002F0B3FBAA2002F0A5FBCF2002F0E1
:10230000ADFB002002F09FFB002002F09CFB0020B0
:1023100002F099FB002002F096FB002002F093FBF4
:10232000002002F090FB002002F08DFB002002F064
:102330008AFB002002F087FB002002F084FB0020D3
:1023400002F081FB002002F07EFB002002F07BFB0C
:10235000002002F078FB002002F075FB002002F064
:1023600072FB002002F06FFBF02002F077FB0020F0
:1023700002F069FB502002F066FB002002F063FBD4
:10238000002002F060FB002002F05DFBF32002F071
:1023900065FB002002F057FBF92002F05FFB0620EE
:1023A00002F051FB102002F04EFB292002F04BFB03
:1023B000002002F048FB3A2002F050FB552002F0CA
:1023C00042FB112002F04AFB642002F0E7FD2920C5
:1023D00002F044FB352002F041FB002002F033FB09
:1023E000512002F03BFBFF2002F02DFB532002F0B6
:1023F00035FB2C2002F027FB552002F02FFB82201A
:1024000002F021FB2C20FCE3A8427DD14FF4704464
:102410005521204602F036FB651CAA21284602F011
:1024200031FBA71C5221384602F02CFB4FF2030867
:102430000821404602F026FB4FF2040901214846DC
:1024400002F020FB0D214FF4304002F01BFB0D2168
:102450004BF2010002F016FB0D214BF2020002F0DC
:1024600011FB4FF4364A3421504602F00BFB342165
:102470004BF2016002F006FB34214BF2026002F0E5
:1024800001FB4FF4314B0D21584602F0FBFA0D21B0
:102490004BF2011002F0F6FA0D214BF2021002F09D
:1024A000F1FA34214FF4374002F0ECFA34214BF2C8
:1024B000017002F0E7FA34214BF2027002F0E2FA06
:1024C00000214FF4324002F0DDFA00214BF20120EE
:1024D00002F0D8FA00214BF2022002F0D3FA2421B4
:1024E0004FF4384002F0CEFA24214BF6010002F0FE
:1024F000C9FA24214BF6020002F0C4FA01214FF47C
:102500003F4002F0BFFA00E0FEE30F214FF43340FA
:1025100002F0B8FA0F214BF2013002F0B3FA0F21AA
:102520004BF2023002F0AEFA34214FF4394002F09F
:10253000A9FA34214BF6011002F0A4FA34214BF62B
:10254000021002F09FFA08214FF4354002F09AFA87
:1025500008214BF2015002F095FA08214BF202508B
:1025600002F090FA03214FF4424002F08BFA24214A
:102570004FF43A4002F086FA24214BF6012002F093
:1025800081FA24214BF6022002F07CFA00214FF45C
:102590003C4002F077FA78214BF6014002F072FAE3
:1025A00000214BF6024002F06DFA00214FF43D404D
:1025B00002F068FA78214BF6015002F063FA00212C
:1025C0004BF6025002F05EFA00214FF43E4002F05A
:1025D00059FA64214BF6016002F054FA00214FF4DD
:1025E000514002F04FFA33214DF2011002F04AFA45
:1025F00000214DF2021002F045FA34214DF2031091
:1026000002F040FA00214DF2041002F03BFA3A21A8
:102610004DF2051002F036FA00214DF2061002F0DC
:1026200031FA4A214DF2071002F02CFA00214DF246
:10263000081002F027FA5C214DF2091002F022FA8C
:1026400000214DF20A1002F01DFA81214DF20B100B
:1026500002F018FA00214DF20C1002F013FAA62134
:102660004DF20D1002F00EFA00214DF20E1002F0A4
:1026700009FAE5214DF20F1002F004FA01214DF2A2
:10268000101002F0FFF913214DF2111002F0FAF9C7
:1026900001214DF2121002F0F5F954214DF2131000
:1026A00002F0F0F901214DF2141002F0EBF9822151
:1026B0004DF2151002F0E6F901214DF2161002F06C
:1026C000E1F9CA214DF2171002F0DCF902214DF2B6
:1026D000181002F0D7F900214DF2191002F0D2F9CA
:1026E00002214DF21A1002F0CDF901214DF21B101A
:1026F00002F0C8F902214DF21C1002F0C3F9342196
:102700004DF21D1002F0BEF902214DF21E1002F032
:10271000B9F967214DF21F1002F0B4F902214DF210
:10272000201002F0AFF984214DF2211002F0AAF935
:1027300002214DF2221002F0A5F9A4214DF223103E
:1027400002F0A0F902214DF2241002F09BF9B7210A
:102750004DF2251002F096F902214DF2261002F0FA
:1027600091F9CF214DF2271002F08CF902214DF2A0
:10277000281002F087F9DE214DF2291002F082F9CB
:1027800002214DF22A1002F07DF9F2214DF22B10B8
:1027900002F078F902214DF22C1002F073F9FE21BB
:1027A0004DF22D1002F06EF903214DF22E1002F0C1
:1027B00069F910214DF22F1002F064F903214DF256
:1027C000301002F05FF933214DF2311002F05AF966
:1027D00003214DF2321002F055F96D214DF2331004
:1027E00002F050F900214FF4524002F04BF933212E
:1027F0004DF2012002F046F900214DF2022002F0D4
:1028000041F934214DF2032002F03CF900214DF250
:10281000042002F037F93A214DF2052002F032F996
:1028200000214DF2062002F02DF94A214DF2072039
:1028300002F028F900214DF2082002F023F95C2172
:102840004DF2092002F01EF900214DF20A2002F09B
:1028500019F981214DF20B2002F014F900214DF2FB
:102860000C2002F00FF9A6214DF20D2002F00AF91A
:1028700000214DF20E2002F005F9E5214DF20F2066
:1028800002F000F901214DF2102002F0FBF81321B3
:102890004DF2112002F0F6F801214DF2122002F063
:1028A000F1F854214DF2132002F0ECF801214DF221
:1028B000142002F0E7F882214DF2152002F0E2F830
:1028C00001214DF2162002F0DDF8CA214DF2172049
:1028D00002F0D8F802214DF2182002F0D3F80021BE
:1028E0004DF2192002F0CEF802214DF21A2002F02A
:1028F000C9F801214DF21B2002F0C4F802214DF26B
:102900001C2002F0BFF834214DF21D2002F0BAF86D
:1029100002214DF21E2002F0B5F867214DF21F2072
:1029200002F0B0F802214DF2202002F0ABF8842131
:102930004DF2212002F0A6F802214DF2222002F0F1
:10294000A1F8A4214DF2232002F09CF802214DF2BF
:10295000242002F097F8B7214DF2252002F092F8DA
:1029600002214DF2262002F08DF8CF214DF22720D2
:1029700002F088F802214DF2282002F083F8DE21CF
:102980004DF2292002F07EF802214DF22A2002F0B9
:1029900079F8F2214DF22B2002F074F802214DF269
:1029A0002C2002F06FF8FE214DF22D2002F06AF883
:1029B00003214DF22E2002F065F810214DF22F2058
:1029C00002F060F803214DF2302002F05BF8332171
:1029D0004DF2312002F056F803214DF2322002F080
:1029E00051F86D214DF2332002F04CF800214FF4E4
:1029F000534002F047F833214DF2013002F042F823
:102A000000214DF2023002F03DF834214DF2033046
:102A100002F038F800214DF2043002F033F83A2188
:102A20004DF2053002F02EF800214DF2063002F092
:102A300029F84A214DF2073002F024F800214DF226
:102A4000083002F01FF85C214DF2093002F01AF84C
:102A500000214DF20A3002F015F881214DF20B30C1
:102A600002F010F800214DF20C3002F00BF8A62114
:102A70004DF20D3002F006F800214DF20E3002F05A
:102A800001F8E5214DF20F3001F0FCFF01214DF27C
:102A9000103001F0F7FF13214DF2113001F0F2FF79
:102AA00001214DF2123001F0EDFF54214DF21330AF
:102AB00001F0E8FF01214DF2143001F0E3FF822123
:102AC0004DF2153001F0DEFF01214DF2163001F01C
:102AD000D9FFCA214DF2173001F0D4FF02214DF287
:102AE000183001F0CFFF00214DF2193001F0CAFF7C
:102AF00002214DF21A3001F0C5FF01214DF21B30C9
:102B000001F0C0FF02214DF21C3001F0BBFF342167
:102B10004DF21D3001F0B6FF02214DF21E3001F0E2
:102B2000B1FF67214DF21F3001F0ACFF02214DF2E1
:102B3000203001F0A7FF84214DF2213001F0A2FFE7
:102B400002214DF2223001F09DFFA4214DF22330ED
:102B500001F098FF02214DF2243001F093FFB721DC
:102B60004DF2253001F08EFF02214DF2263001F0AA
:102B700089FFCF214DF2273001F084FF02214DF271
:102B8000283001F07FFFDE214DF2293001F07AFF7D
:102B900002214DF22A3001F075FFF2214DF22B3067
:102BA00001F070FF02214DF22C3001F06BFFFE218D
:102BB0004DF22D3001F066FF03214DF22E3001F071
:102BC00061FF10214DF22F3001F05CFF03214DF227
:102BD000303001F057FF33214DF2313001F052FF18
:102BE00003214DF2323001F04DFF6D214DF23330B3
:102BF00001F048FF00214FF4544001F043FF33211E
:102C000000E081E34DF2014001F03CFF00214DF274
:102C1000024001F037FF34214DF2034001F032FF52
:102C200000214DF2044001F02DFF3A214DF2054004
:102C300001F028FF00214DF2064001F023FF4A2158
:102C40004DF2074001F01EFF00214DF2084001F057
:102C500019FF5C214DF2094001F014FF00214DF2F3
:102C60000A4001F00FFF81214DF20B4001F00AFFF5
:102C700000214DF20C4001F005FFA6214DF20D4060
:102C800001F000FF00214DF20E4001F0FBFEE521B6
:102C90004DF20F4001F0F6FE01214DF2104001F01F
:102CA000F1FE13214DF2114001F0ECFE01214DF235
:102CB000124001F0E7FE54214DF2134001F0E2FE14
:102CC00001214DF2144001F0DDFE82214DF215404C
:102CD00001F0D8FE01214DF2164001F0D3FECA21C9
:102CE0004DF2174001F0CEFE02214DF2184001F0E6
:102CF000C9FE00214DF2194001F0C4FE02214DF23F
:102D00001A4001F0BFFE00E001E301214DF21B403B
:102D100001F0B8FE02214DF21C4001F0B3FE342157
:102D20004DF21D4001F0AEFE02214DF21E4001F0B9
:102D3000A9FE67214DF21F4001F0A4FE02214DF2D1
:102D4000204001F09FFE84214DF2214001F09AFEC7
:102D500002214DF2224001F095FEA4214DF22340C4
:102D600001F090FE02214DF2244001F08BFEB721CC
:102D70004DF2254001F086FE02214DF2264001F081
:102D800081FECF214DF2274001F07CFE02214DF261
:102D9000284001F077FEDE214DF2294001F072FE5D
:102DA00002214DF22A4001F06DFEF2214DF22B403E
:102DB00001F068FE02214DF22C4001F063FEFE217D
:102DC0004DF22D4001F05EFE03214DF22E4001F048
:102DD00059FE10214DF22F4001F054FE03214DF217
:102DE000304001F04FFE33214DF2314001F04AFEF8
:102DF00003214DF2324001F045FE6D214DF233408A
:102E000001F040FE00214FF4554001F03BFE33211C
:102E10004DF2015001F036FE00214DF2025001F05A
:102E200031FE34214DF2035001F02CFE00214DF211
:102E3000045001F027FE3A214DF2055001F022FE28
:102E400000214DF2065001F01DFE4A214DF20750BF
:102E500001F018FE00214DF2085001F013FE5C2134
:102E60004DF2095001F00EFE00214DF20A5001F022
:102E700009FE81214DF20B5001F004FE00214DF2BC
:102E80000C5001F0FFFDA6214DF20D5001F0FAFDAE
:102E900000214DF20E5001F0F5FDE5214DF20F50ED
:102EA00001F0F0FD01214DF2105001F0EBFD132176
:102EB0004DF2115001F0E6FD01214DF2125001F0EA
:102EC000E1FD54214DF2135001F0DCFD01214DF2E2
:102ED000145001F0D7FD82214DF2155001F0D2FDC2
:102EE00001214DF2165001F0CDFDCA214DF21750CF
:102EF00001F0C8FD02214DF2185001F0C3FD002180
:102F00004DF2195001F0BEFD02214DF21A5001F0B0
:102F1000B9FD01214DF21B5001F0B4FD02214DF22B
:102F20001C5001F0AFFD34214DF21D5001F0AAFDFF
:102F300002214DF21E5001F0A5FD67214DF21F50F8
:102F400001F0A0FD02214DF2205001F09BFD8421F3
:102F50004DF2215001F096FD02214DF2225001F078
:102F600091FDA4214DF2235001F08CFD02214DF280
:102F7000245001F087FDB7214DF2255001F082FD6C
:102F800002214DF2265001F07DFDCF214DF2275058
:102F900001F078FD02214DF2285001F073FDDE2191
:102FA0004DF2295001F06EFD02214DF22A5001F040
:102FB00069FDF2214DF22B5001F064FD02214DF22A
:102FC0002C5001F05FFDFE214DF22D5001F05AFD15
:102FD00003214DF22E5001F055FD10214DF22F50DE
:102FE00001F050FD03214DF2305001F04BFD332133
:102FF0004DF2315001F046FD03214DF2325001F007
:1030000041FD6D214DF2335001F03CFD00214FF4A4
:10301000564001F037FD33214DF2016001F032FDE1
:1030200000214DF2026001F02DFD34214DF20360CC
:1030300001F028FD00214DF2046001F023FD3A214A
:103040004DF2056001F01EFD00214DF2066001F019
:1030500019FD4A214DF2076001F014FD00214DF2E7
:10306000086001F00FFD5C214DF2096001F00AFDDE
:1030700000214DF20A6001F005FD81214DF20B6047
:1030800001F000FD00214DF20C6001F0FBFCA621D7
:103090004DF20D6001F0F6FC00214DF20E6001F0E2
:1030A000F1FCE5214DF20F6001F0ECFC01214DF245
:1030B000106001F0E7FC13214DF2116001F0E2FC19
:1030C00001214DF2126001F0DDFC54214DF213603C
:1030D00001F0D8FC01214DF2146001F0D3FC8221F3
:1030E0004DF2156001F0CEFC01214DF2166001F0A9
:1030F000C9FCCA214DF2176001F0C4FC02214DF257
:10310000186001F0BFFC00214DF2196001F0BAFC1B
:1031100002214DF21A6001F0B5FC01214DF21B6055
:1031200001F0B0FC02214DF21C6001F0ABFC342137
:103130004DF21D6001F0A6FC02214DF21E6001F06F
:10314000A1FC67214DF21F6001F09CFC02214DF2B1
:10315000206001F097FC84214DF2216001F092FC87
:1031600002214DF2226001F08DFCA4214DF223607A
:1031700001F088FC02214DF2246001F083FCB721AC
:103180004DF2256001F07EFC02214DF2266001F037
:1031900079FCCF214DF2276001F074FC02214DF241
:1031A000286001F06FFCDE214DF2296001F06AFC1D
:1031B00002214DF22A6001F065FCF2214DF22B60F4
:1031C00001F060FC02214DF22C6001F05BFCFE215D
:1031D0004DF22D6001F056FC03214DF22E6001F0FE
:1031E00051FC10214DF22F6001F04CFC03214DF2F7
:1031F000306001F047FC33214DF2316001F042FCB8
:1032000003214DF2326001F03DFC6D214DF233603F
:1032100001F038FC5521204601F034FCAA21284653
:1032200001F030FC5221384601F02CFC08214046C8
:1032300001F028FC0021484601F024FCCC2158462E
:1032400001F020FC00214BF2011001F01BFC0521D4
:10325000504601F017FC70214FF4374001F012FC8A
:1032600070214BF2017001F00DFC01214FF4384048
:1032700001F008FC03214BF6010001F003FC0321DF
:103280004BF6020001F0FEFB03214BF6030001F0B8
:10329000F9FB02214FF43C4001F0F4FB00214BF616
:1032A000014001F0EFFB00214BF6024001F0EAFB88
:1032B000D0214FF4494001F0E5FB02214CF601100A
:1032C00001F0E0FB50214CF6021001F0DBFB502135
:1032D0004CF6031001F0D6FB50214CF6041001F01F
:1032E000D1FB00214FF4545001F0CCFB55214FF499
:1032F000685001F0C7FB4FF4885001F0AFFB782015
:1033000001F068FE4FF4245001F0A8FBFEE3A0F5A5
:1033100013414FF480744FF4E06740F2022840F20A
:103320003F194FF4274A25392FD0FD1DA0F5134131
:1033300028397DD0A0F513414FF4887A4FF41C5BF7
:10334000203976D0A0F51341313973D0A0F5A841CA
:10335000083970D0A0F5A8514FF4407A05396BD0E8
:10336000A0F53541053968D0A0F5454105397CD037
:10337000A0F58A41313979D0A0F58A41353976D026
:10338000A0F5C851633973D0C0E747F6F001E520D6
:1033900001F078FB2146012001F074FB3946022040
:1033A00001F070FB41F23001032001F06BFB0021C2
:1033B000042001F067FB4146082001F063FB002177
:1033C000092001F05FFB00210A2001F05BFB0021D6
:1033D0000C2001F057FB00210D2001F053FB0021D0
:1033E0000F2001F04FFB0021102001F04BFB0721C3
:1033F000112001F047FB0021122001F043FB0021C6
:10340000132001F03FFB0021072001F03BFB41F2BC
:103410009061102001F036FB40F22721112001F0CD
:1034200031FB9D21122001F02DFB4FF4C85105E026
:1034300082E03DE1E0E1B4E24EE3FDE3132001F080
:1034400021FB2521292001F01DFB0D212B2001F05E
:1034500019FB0721302001F015FB40F20331312028
:1034600001F010FB0321322003E0E6E3E6E3E6E3AC
:10347000E6E301F007FB40F20621352001F002FBF4
:103480000821362001F0FEFA40F20641372001F013
:10349000F9FA4FF44171382001F0F4FA072139208C
:1034A00001F0F0FA40F202613C2001F0EBFA082151
:1034B0003D2001F0E7FA0021502001F0E3FAEF216E
:1034C000512001F0DFFA0021522001F0DBFA4946D9
:1034D000532001F0D7FA5146602001F0D3FA0121C0
:1034E000612001F0CFFA00216A2001F0CBFA00211F
:1034F000802001F0C7FA0021812001F0C3FA0021E9
:10350000822001F0BFFA0021832001F0BBFA0021E4
:10351000842001F0B7FA0021852001F0B3FA1021D0
:10352000902001F0AFFA4FF4C061922001F0AAFAA6
:1035300040F233110720FDE341F28F01EC2001F04E
:10354000A1FA41F23421EF2001F09CFA214601203A
:1035500001F098FA3946022001F094FA41F2300164
:10356000032001F08FFA0021042001F08BFA41467C
:10357000082001F087FA0021092001F083FA0021D8
:103580000A2001F07FFA01210C2001F07BFA0021D2
:103590000D2001F077FA00210F2001F073FA0021CD
:1035A000102001F06FFA0721112001F06BFA0021C1
:1035B000122001F067FA0021132001F063FA0121C3
:1035C000072001F05FFA322001F0E8FC41F290415F
:1035D000102001F057FA40F22721112001F052FA91
:1035E000322001F0DBFC8A21122001F04BFA32205C
:1035F00001F0D4FC4FF4D051132001F043FA06211E
:10360000292001F03FFA0D212B2001F03BFA322056
:1036100001F0C4FC0021202001F034FA0021212017
:1036200001F030FA322001F0B9FC0021302001F025
:1036300029FA40F20461312001F024FA40F2053108
:10364000322001F01FFA0021352001F01BFA40F66C
:103650000941362001F016FA4FF40171372001F0CC
:1036600011FA40F20131382001F00CFA29463920D4
:1036700001F008FA00213C2001F004FA40F60A218A
:103680003D2001F0FFF9322001F088FC002150209C
:1036900001F0F8F9EF21512001F0F4F90021522056
:1036A00001F0F0F94946532001F0ECF951464DE1A3
:1036B0000021084601F0E6F92146012001F0E2F977
:1036C0003946022001F0DEF941F23001032001F019
:1036D000D9F90021042001F0D5F94146082001F074
:1036E000D1F90021092001F0CDF900210A2001F0D3
:1036F000C9F901210C2001F0C5F900210D2001F0CC
:10370000C1F900210F2001F0BDF9322001F046FC83
:1037100040F20111072001F0B5F9322001F03EFC22
:103720004FF48651102001F0ADF90721112001F06E
:10373000A9F954465146122001F0A4F94FF4306122
:10374000132001F09FF90021292001F09BF944F298
:1037500010012B2001F096F90021502001F092F980
:10376000EF21512001F08EF90021522001F08AF959
:103770004946532001F086F95946602001F082F94C
:103780000121612001F07EF900216A2001F07AF91F
:103790000021802001F076F90021812001F072F9EA
:1037A0000021822001F06EF90021832001F06AF9E6
:1037B0000021842001F066F90021852001F062F9E2
:1037C0001021902001F05EF90021922001F05AF9B9
:1037D0000121932001F056F92146952001F052F97C
:1037E0000021972001F04EF90021982001F04AF9BC
:1037F00040F2731107207BE341F21401E72001F04E
:1038000041F92146012001F03DF94FF400710220F9
:1038100001F038F941F23801032001F033F9414653
:10382000082001F02FF90021092001F02BF90021D7
:103830000A2001F027F900210C2001F023F90021D2
:103840000D2001F01FF900210F2001F01BF90021CC
:10385000102001F017F90721112001F013F90021C0
:10386000122001F00FF90021132001F00BF9C820FC
:1038700001F094FB41F29061102001F003F940F255
:103880002721112001F0FEF8322001F087FB0C21E6
:10389000122001F0F7F8322001F080FB4FF40061B4
:1038A000132001F0EFF81121292001F0EBF80B2192
:1038B0002B2001F0E7F8322001F070FB00212020DE
:1038C00001F0E0F84C464946212001F0DBF80021E8
:1038D000302001F0D7F84FF483773946312001F0DA
:1038E000D1F80021322001F0CDF84FF401713520DC
:1038F00001F0C8F841F20A61362001F0C3F8294608
:10390000372001F0BFF83946382001F0BBF82946CE
:10391000392001F0B7F840F202413C2001F0B2F842
:1039200040F60F413D2001F0ADF80021502001F09C
:10393000A9F8EF21512001F0A5F80021522001F053
:10394000A1F82146532001F09DF85946602001F06E
:1039500099F80121612001F095F800216A2001F019
:1039600091F80021802001F08DF80021812001F0E4
:1039700089F80021822001F085F80021832001F0E0
:1039800081F80021842001F07DF80021852001F0DC
:1039900079F81021902001F075F84FF4C061922061
:1039A000FDE32146012001F06DF83946022001F0C7
:1039B00069F841F23001032001F064F8002104208D
:1039C00001F060F840F20721082001F05BF80021C7
:1039D000092001F057F800210A2001F053F80021D6
:1039E0000C2001F04FF800210D2001F04BF80021D0
:1039F0000F2001F047F8142001F0D0FA41F2B06135
:103A0000102001F03FF80121112001F03BF80121C5
:103A1000172001F037F84FF49C71122001F032F8B2
:103A20004FF40061132001F02DF80921292001F045
:103A300029F809212A2001F025F80021A42001F00D
:103A400021F80021502001F01DF8EF21512001F054
:103A500019F80021522001F015F84946532001F0D1
:103A600011F85946602001F00DF80121612001F0A4
:103A700009F800216A2001F005F80021802001F0FA
:103A800001F80021812000F0FDFF0021822000F0DC
:103A9000F9FF0021832000F0F5FF0021842000F0D1
:103AA000F1FF0021852000F0EDFF1321902000F0B0
:103AB000E9FF0021922000F0E5FF0321932000F0B0
:103AC000E1FF5146952000F0DDFF40F27311072021
:103AD00000F0D8FF32200DE10021072000F0D2FFD6
:103AE000322001F05BFA4FF48E71122000F0CAFF11
:103AF0000121A42000F0C6FF0F21082000F0C2FF22
:103B000008210A2000F0BEFF082100E06EE30D202E
:103B100000F0B8FF2946302000F0B4FF0721312023
:103B200000F0B0FF40F20361322000F0ABFF3946F5
:103B3000332000F0A7FF4146342000F0A3FF02210C
:103B4000352000F09FFF41F60F71362000F09AFFFC
:103B50002946372000F096FF0021382000F092FF20
:103B60000021392000F08EFF29463A2000F08AFF1C
:103B700000213B2000F086FF07213C2000F082FF5F
:103B800000213D2000F07EFF322001F007FA0121E4
:103B9000072000F077FF0121172000F073FF32208B
:103BA00001F0FCF94FF4BD51102000F06BFF40F222
:103BB0001721112000F066FF4FF48F71122000F0E2
:103BC00061FF4FF47061132000F05CFF00212A2098
:103BD00000F058FF0A21292000F054FF4FF49F7194
:103BE000122000F04FFF0021502000F04BFFEF218A
:103BF000512000F047FF0021522000F043FF4946CA
:103C0000532000F03FFF5946602000F03BFF0121A8
:103C1000612000F037FF00216A2000F033FF00210F
:103C2000802000F02FFF0021812000F02BFF0021D9
:103C3000822000F027FF04E05FE05AE121E2D6E2B3
:103C40007CE30021832000F01DFF0021842000F090
:103C500019FF0021852000F015FF1321902000F0AE
:103C600011FF5146922000F00DFF0521932000F036
:103C700009FF0021952000F005FF0021972000F0AA
:103C800001FF0021982000F0FDFE2146012000F0F8
:103C9000F9FE3946022000F0F5FE41F2380103201A
:103CA00000F0F0FE0021042000F0ECFE00210C20CA
:103CB00000F0E8FE00210F2000F0E4FE00212020AB
:103CC00000F0E0FE0021212000F0DCFE2121072091
:103CD00000F0D8FE142001F061F96121072000F006
:103CE000D1FE142001F05AF940F27311072000F0C0
:103CF000C9FE142001F052F9D5E30021084600F076
:103D0000C1FE0021084600F0BDFE0021084600F07B
:103D1000B9FE0021084600F0B5FE0121A42000F004
:103D2000B1FE142001F03AF95946602000F0AAFED5
:103D3000454600E0D8E04146082000F0A3FE4FF4DD
:103D40000571302000F09EFE43F21571312000F025
:103D500099FE40F20461322000F094FE40F61661B4
:103D6000332000F08FFE42F21121342000F08AFE51
:103D70004FF4A851352000F085FE48F20751362057
:103D800000F080FE41F20741372000F07BFE41F257
:103D90000341382000F076FE2021392000F072FE29
:103DA0001A21902000F06EFE0021102000F06AFE23
:103DB0000721112000F066FE0021122000F062FEB3
:103DC0000021132000F05EFE142001F0E7F84FF40C
:103DD000E661102000F056FE40F23711112000F08D
:103DE00051FE142001F0DAF84FF4DC71122000F0DB
:103DF00049FE142001F0D2F84FF47061132000F056
:103E000041FE80212A2000F03DFE4821292000F0BB
:103E100039FE142001F0C2F82146012000F032FEE4
:103E20003946022000F02EFE41F23801032000F056
:103E300029FE2946082000F025FE00210A2000F076
:103E400021FE00210C2000F01DFE00210D2000F0BD
:103E500019FE30210E2000F015FE0021502000F048
:103E600011FEEF21512000F00DFE0021522000F044
:103E700009FE4946532000F005FE5946602000F037
:103E800001FE0121612000F0FDFD00216A2000F00B
:103E9000F9FD1121902000F0F5FD4FF4C061922052
:103EA00000F0F0FD40F20241932000F0EBFD022112
:103EB000942000F0E7FD142001F070F801210720A4
:103EC00000F0E0FD142001F069F86121072000F006
:103ED000D9FD40F27311072000F0D4FD002120200D
:103EE00000F0D0FD0021212000F0CCFD2221002097
:103EF0007AE10021084600F0C5FD0021084600F0E7
:103F0000C1FD142001F04AF80021084600F0BAFD76
:103F10000021084600F0B6FD0021084600F0B2FD81
:103F20000021084600F0AEFD0121A42000F0AAFD0A
:103F3000142001F033F85946602000F0A3FD40F64C
:103F40000601082000F09EFD40F20377394630203C
:103F500000F098FD0121312000F094FD0421322071
:103F600000F090FD4FF48171332000F08BFD554639
:103F70005146342000F086FD40F20311352000F058
:103F800081FD1F21362000F07DFD3946372000F0ED
:103F900079FD0121382000F075FD0421392000F061
:103FA00071FD1521902000F06DFD4FF4826110200D
:103FB00000F068FD40F24721112000F063FD4FF44E
:103FC000DE71122000F05EFD4FF46061132000F0FE
:103FD00059FD782000F0E2FF2146012000F052FD5B
:103FE0004FF40071022000F04DFD41F2300103203A
:103FF00000F048FD08210A2000F044FD00210C20BB
:1040000000F040FD20210E2000F03CFD00210F209B
:1040100000F038FD0021202000F034FD0021212097
:1040200000F030FD3D212A2000F02CFD142000F08E
:10403000B5FF2D21292000F025FD0021502000F0A2
:1040400021FD4DF2EF01512000F01CFD0021522016
:1040500000F018FD4946532000F014FD00216120B6
:1040600000F010FD00216A2000F00CFD294692208E
:1040700000F008FD0521932000F004FD2146FFF724
:10408000B9BB0121002000F0FDFC0A2000F086FFF2
:1040900041F22861102000F0F5FC0E21122000F002
:1040A000F1FC40F63921132000F0ECFC0A2000F06E
:1040B00075FF4021112000F0E5FC5021152000F093
:1040C000E1FC0A2000F06AFF1E21122000F0DAFC59
:1040D0000A2000F063FF4FF4B151102000F0D2FC31
:1040E00042F63921132000F0CDFC0A2000F056FFE3
:1040F0002146012000F0C6FC5146022000F0C2FC1F
:1041000041F23801032000F0BDFC4146082000F0D8
:10411000B9FC08210A2000F0B5FC0021302000F095
:10412000B1FC40F20241312000F0ACFC4FF483714D
:10413000322000F0A7FC40F20351332000F0A2FC33
:104140004FF48271342000F09DFC40F201313520A3
:1041500000F098FC2946362000F094FC40F205312E
:10416000372000F08FFC4FF40271382000F08AFCF9
:1041700040F60B71392000F085FC0221412000F04F
:1041800081FC5946602000F07DFC0121612000F097
:1041900079FC4FF40471902000F074FC00E0C8E05A
:1041A0004FF48571922000F06DFC0421932000F003
:1041B00069FC2146A02000F065FC0121072000F0E9
:1041C00061FC2121072000F05DFC2321072000F085
:1041D00059FC3321072000F055FC40F23311072031
:1041E00000F050FC0021A02000F04CFC5BE13021ED
:1041F000152000F047FC10219A2000F043FC2021FC
:10420000112000F03FFC43F22841102000F03AFC5E
:104210000221122000F036FC41F23801132000F098
:1042200031FC282000F0BAFE1221084600F02AFCDA
:10423000282000F0B3FE43F22041102000F022FCC1
:1042400043F23801132000F01DFC462000F0A6FECA
:104250000021302000F016FC40F20241312000F035
:1042600011FC40F20731322000F00CFC4FF4417198
:10427000332000F007FC0421342000F003FC40F25E
:104280000141352000F0FEFB2946362000F0FAFB04
:1042900040F20531372000F0F5FB4FF4C2652946A6
:1042A000382000F0EFFB2946392000F0EBFB2146D7
:1042B000012000F0E7FB5146022000F0E3FB41F251
:1042C0003001032000F0DEFB40F60801082000F07A
:1042D000D9FB08210A2000F0D5FB5946602000F0E8
:1042E000D1FB0121612000F0CDFB4FF49F719020A4
:1042F00000F0C8FB2146922000F0C4FB2146932029
:1043000000F0C0FB4FF44051A02000F0BBFB102197
:10431000A32000F0B7FB0121072000F0B3FB21210F
:10432000072000F0AFFB2321072000F0ABFB332177
:10433000072000F0A7FB40F23311A0E6E22000F0D6
:104340008DFB232000F07FFB022000F07CFB04208B
:1043500000F079FB642000F03DFEE02000F07EFBE1
:10436000012000F070FB0A2000F018FEE02000F0B1
:1043700075FB032000F067FB0C2000F00FFE01200E
:1043800000F06CFB0A2000F009FEE62000F066FB5E
:10439000032000F058FBFF2000F055FBFF2000F049
:1043A00052FBB02000F05AFB202000F04CFB002014
:1043B00000F049FB032000F046FB40F21F3000F004
:1043C00042FB012000F03FFB40F2DF1000F03BFB1E
:1043D000002000F038FBB42000F040FB042000F087
:1043E00032FB40F21F4000F02EFB002000F02BFBC0
:1043F000D22000F028FB002000F025FB002000F078
:1044000022FB002000F01FFB002000F01CFBB62068
:1044100000F024FB022000F016FB4FF4037000F0C4
:1044200012FB002000F00FFB222000F00CFB092003
:1044300000F009FB002000F006FB002000F003FB69
:10444000F02000F00BFB032000F0FDFA292000F023
:1044500005FBD02000F002FB002000F0F4FABE20A3
:1044600000F0FCFA052000F0EEFAFE2000F0EBFA76
:10447000012000F0E8FAFF2000F0E5FA002000F04B
:10448000E2FAB82000F0EAFA0F2000F0DCFA01208E
:1044900000F0D9FABA2000F0E1FA012000F0D3FAD6
:1044A000642000F02DF80020FCF75AFB044901209D
:1044B000C1F880013046BDE8F05FFCF71BBB00008F
:1044C000008021420346012000E05843491EC9B242
:1044D000FBD2704708B54FF0D8404088ADF80000D7
:1044E000BDF8000008BD01B5BDF8000000F0B6FA47
:1044F000052000F06FFDBDE80840FFF7EBBF0000AE
:1045000010B50246BE2000F0A9FA052000F09BFA83
:10451000104602F02CFF4FF066320B4B02F03AFFD0
:1045200002F0F8FE80B200F08EFA012000F08BFA63
:10453000FF2000F088FA002000F085FABDE8104066
:10454000002000F080BA000066660440F0B57F4F9E
:1045500000243946BA79898846F6040341F6631582
:10456000012A01D02AB11DE099421BD0A94202D1F3
:1045700018E0A94216D1082814D2DFE800F004069A
:10458000080A0C0E101206200CE007200AE0042096
:1045900008E0052006E0012004E0002002E00320FE
:1045A00000E00220A1F5134C45F2103245F21056FE
:1045B000BCF1410C07D0994205D0914203D0B142E1
:1045C00001D0A9427BD1082812D2DFE800F0110403
:1045D00006080A0C0E1080240AE0402408E0C024DB
:1045E00006E0202404E0602402E0A02400E0E024AF
:1045F000B14202D14FF4585000E03620914205D02C
:10460000B14203D0A94201D044F00804994201D13B
:1046100044F00204214600F035FABA88AA420AD0D2
:10462000A0063888798802D5884202D303E0884200
:1046300001D9398078807889B24241D100F00EFAF0
:10464000002000F000FA7889401C80B200F006FAE1
:10465000002000F0F8F97889801C80B200F0FEF9A3
:104660003888401EC0F30F2000F0EDF97889C01C97
:1046700080B200F0F3F93878401EC0B200F0E3F9E0
:10468000B88900F0EBF9002000F0DDF9B889401C92
:1046900080B200F0E3F9002000F0D5F9B889801C61
:1046A00080B200F0DBF97888401EC0F30F2000F0E4
:1046B000CAF9B889C01C80B200F0D0F922E028E025
:1046C00000F0CCF9002000F0BEF9002000F0BBF9AA
:1046D0003888401EC0F30F2000F0B5F93878401E2E
:1046E000C0B200F0B0F9B88900F0B8F9002000F0CD
:1046F000AAF9002000F0A7F97888401EC0F30F2027
:1047000000F0A1F9B878BDE8F040401EC0B200F05A
:104710009AB9082812D2DFE800F0040608110A0C42
:104720000E1030240AE0102408E0202406E038248B
:1047300004E0282402E0182400E0082444F4805116
:10474000BDE8F040032000F09DB90000F400002017
:104750002DE9F043DFF844810C460246050AB8F81B
:1047600004104046A1F5134340894FEA1429413B08
:1047700017D0A1F5A643103B13D04646A1F5D0476C
:10478000B3793688B61A761E043F0ED0A1F5C85705
:10479000633F1ED0A1F5AA47103F57D0012B72D01E
:1047A00072E000F05BF9284605E0012B00D1B2B2BF
:1047B00000F054F9100A00F046F9D0B200F043F9C5
:1047C000B8F80C0000F04AF9484600F03CF9E0B2B5
:1047D0002AE06BB300F042F9284600F034F9D0B279
:1047E00000F031F9B8F80000401EC0F30F2000F0CF
:1047F0002AF998F80000401EC0B200F024F9B8F879
:104800000C0000F02BF9484600F01DF9E0B200F072
:104810001AF9B8F80200401EC0F30F2000F013F997
:1048200098F80200401EC0B2BDE8F04300F00BB99A
:10483000B2B200F013F9002000F005F9002000F0FA
:1048400002F9100A00F0FFF8D0B2D6E700F006F93E
:10485000284600F0F8F8B8F80A00401C80B200F0D2
:10486000FDF8D0B200F0EFF8B8F80C0000F0F6F860
:10487000484600F0E8F8B8F80C00401C80B200F0A0
:10488000EDF8A4E7FFE7B2B2114600F0FBF8B8F884
:104890000C002146BDE8F04300F0F4B8F40000201D
:1048A0002DE9F84F82461F460C468B46580700D02C
:1048B000012000EBD70079084843203AC0B202F04B
:1048C000FF090026009041E00C2F10D0102F12D0CD
:1048D000182F3ED1204909EBC90001EB80004FF0B1
:1048E0000008855D28060AD51C4802880BE009EB04
:1048F00049001B49F1E71B4901EB0910EFE70A9852
:1049000028B91648428821465046FCF739FA68060D
:10491000050E1548641CA4B24088A04219D9A4EB26
:104920000B00B84209D10AF101001FFA80FA0E48C3
:104930005C46018851450CD906E008F1010000F001
:10494000FF08B8F1080FCDD3761CF6B20098864266
:10495000BAD3BDE8F88F0000F47F00085C000020A7
:1049600090750008047A0008F40000202DE9F84F43
:10497000044600F0FF0810190D46DDE90A761FFA1B
:1049800080FA58191FFA80F94FF0000B11E05445D6
:1049900002D3E819444685B24D450FD23B4629461D
:1049A0002046CDF800B0FFF77BFF04EB570084B240
:1049B000761C3278A2F120005E28E8D9BDE8F88F95
:1049C0002DE9FF4F81B08046DDF83CA00E984FF0F6
:1049D00000091F4693464C460AF0010546082BE0A5
:1049E000381B401EC1B20A20FFF76CFDBBFBF0F084
:1049F0000A21B0FBF1F201FB1200B9F1000F05D161
:104A0000791E8C4202DA48B14FF001093030C2B24F
:104A100006FB048080B200950E9B08E05FEA0A6006
:104A200006FB04800E9B80B200950AD530220299C5
:104A3000FFF736FF641CE4B2BC42D1D305B0BDE839
:104A4000F08F2022F3E701B5BDF80000ADF80000BB
:104A5000BDF800004FF0D841488008BD01B5BDF851
:104A60000000ADF80000BDF800004FF0D84108800C
:104A700008BD000002484FF0D84100890880704707
:104A8000F400002003B5BDF800104FF0D8400180BD
:104A9000BDF8041041800CBD38B50121802000F024
:104AA00055F84FF47074ADF8004010208DF80300F5
:104AB0000320064D8DF8020069462846FBF724FFC7
:104AC00021462846FBF775FF38BD0000001C014059
:104AD000FEE7704730B50F23C27801780125F2B1A7
:104AE000144A126801F1E02102F4E062C2F5E062CA
:104AF000120AC2F10404D3404278A24084781C40D8
:104B00001443220181F80024007800F01F018D4039
:104B10004009800000F1E020C0F8005130BD01F0F4
:104B20001F0085404809800000F1E020C0F8805156
:104B300030BD00000CED00E0024908430249086066
:104B4000704700000000FA050CED00E0044A00295F
:104B5000916901D0014300E08143916170470000F9
:104B60000010024030B5204A5168204B11F00C0172
:104B700003D0042901D0082901D0036012E0516854
:104B8000536801F470114FF0020413F4803F04EBFA
:104B9000914102D053689B0301D5154B00E0134BA4
:104BA0005943016051680F2303EA1111114B5C5CFA
:104BB0000168E14041605468072505EA14241C5D42
:104BC00021FA04F48460546805EAD4241B5DD940BA
:104BD000C1605268032303EA9232064B1B1F9A5CA2
:104BE000B1FBF2F1016130BD0010024000127A0009
:104BF00000093D00700000200CB5002226480092FC
:104C00000192016841F4803101604FF4A0630168B2
:104C100001F4003101910099491C0091019911B9E9
:104C200000999942F3D10168890333D5012101919B
:104C30001A490A6842F010020A600A6822F0030268
:104C40000A600A6842F002020A60416841604168F5
:104C50004160416841F480614160416821F47C1108
:104C60004160416841F4E8114160016841F08071A0
:104C7000016001688901FCD5416821F003014160B0
:104C8000416841F0020141604168C1F3810102299C
:104C9000FAD10CBD01920CBD001002400020024070
:104CA0004FF0E0210428086903D020F004000861D7
:104CB000704740F00400FAE710B502F079F80128D7
:104CC00003D0BDE8104001F067BD10BD0F4810B51E
:104CD000016841F00101016041680D4A11404160E5
:104CE00001680C4A11400160016821F480210160D3
:104CF000416821F4FE0141604FF41F018160FFF71C
:104D00007BFF05494FF00060086010BD00100240B5
:104D10000000FFF8FFFFF6FE08ED00E010B5084CBC
:104D20000121204600F039F8012802D105A0FBF747
:104D3000C5FA2046BDE81040012100F02BB8000064
:104D40000004004054494D33CAE4B3F62E2E2E2EF3
:104D50002E2E2E0D0A00000010B5084C0121204611
:104D600000F01BF8012802D105A0FBF7A7FA2046A6
:104D7000BDE81040012100F00DB80000000C00401B
:104D800054494D35CAE4B3F62E2E2E2E2E2E2E0D5E
:104D90000A000000C9430182704702460020138ABE
:104DA00092890B4202EA010202D0002A00D00120BF
:104DB0007047000070B5154C40F22551204600F0B8
:104DC00035F800280ED0204600F0BEF8104AC1B2D7
:104DD0001088030406D444044FF0000306D50A29C2
:104DE00001D0138070BD40F400400DE00D2909D0C2
:104DF000C0F30D04074D401C80B229551080C72810
:104E0000EFD870BD40F48040108070BD0038014084
:104E100066000020020100200029818902D041F4AF
:104E2000005101E021F400518181704770B501F01B
:104E30001F0501260024C1F3421306FA05F2012BD7
:104E40000FD0022B0FD0838A4FEA11210088134222
:104E500006FA01F600EA060001D000B1012420465E
:104E600070BD8389F0E7038AEEE710B5C1F3421302
:104E700001F01F040121A140012B07D0022B07D014
:104E80001430002A026805D00A4304E00C30F8E729
:104E90001030F6E78A43026010BD000030B50446CA
:104EA000008A85B00D464CF6FF710840E988014341
:104EB0002182A0894EF6F3110840A9882A8911435E
:104EC0006A8902431143A181A08A4FF6FF4108403D
:104ED000A9890143A1826846FFF744FE194884422C
:104EE00001D1039800E00298A189090400EBC001F8
:104EF00001EB0010296801D5490000E08900B0FBF2
:104F0000F1F06422B0FBF2F109010B096FF0180512
:104F10006B4300EB8300A3891D044FF0320306D5D9
:104F200003EBC000B0FBF2F000F0070005E003EB7C
:104F30000010B0FBF2F000F00F000843208105B034
:104F400030BD0000003801408088C0F30800704781
:104F5000FEE7704710B50420FFF7A2FE0C480D498C
:104F60000D4A0068B0FBF1F3B0FBF1F14FF47A7039
:104F700041431370012050804FF0E020026942F05D
:104F8000020202614161016941F00101016110BD4C
:104F90004800002040420F006200002070B5044627
:104FA00001F006FF01280CD0094D6888844203D324
:104FB000B4FBF0F001F00CF96888B4FBF0F100FBF1
:104FC00011444FF47A706043BDE8704000F002B8BD
:104FD0006200002070B54FF0E02500216C69094A9D
:104FE000AB6912785043AA699A42FCD002D2A3EB73
:104FF000020302E0A4EB0206334419441346814243
:10500000F1D370BD6200002070B5054600244FF456
:105010007A7603E03046FFF7DDFF641CAC42F9D33B
:1050200070BD000004490A885206FCD5024AC1B28C
:10503000121D118070470000003801400F4C002005
:10504000FBF7ECFC012804D0022807D003280BD181
:105050000EE0A06801F0B6FA09A003E0A06801F034
:10506000F3F90CA0FBF72AF90A2001F0B1F8E6E702
:10507000E06801F0A7FA0CA0F4E7000000000020AF
:10508000B9D2C6F0C8CECEF131B5C4D4CBD0D02180
:105090000D0A0000BBD6B8B4C8CECEF131B5C4D429
:1050A000CBD0D0210D0A0000B9D2C6F0C8CECEF1C7
:1050B00032B5C4D4CBD0D0210D0A00001CB54FF4BA
:1050C0004070FFF739FDFFF745FF4FF4E13000F086
:1050D000A5FEFFF7E1FCFBF76FFCFBF78FFBFBF78F
:1050E0001BFF4FF4FA70FFF78FFF20494FF4784011
:1050F000102408801EA0CDE900402346C8220A21C2
:105100001E20FFF733FC1FA0CDE900401E21102315
:10511000C8220846FFF72AFC1FA0CDE90040102353
:10512000C82232211E20FFF721FC20A0CDE900403B
:105130001023C82246211E20FFF718FC1FA0CDE92E
:1051400000401023C8225A211E20FFF70FFC1E49E1
:105150000120CDE90001002380221CA11E4801F09E
:10516000FBFD01F0E5F900201CBD00005C00002003
:1051700041544B2053544D3332463130332F343069
:10518000370000004672656552544F5320457861E0
:105190006D7020362D3300005461736B205375738E
:1051A0007020616E6420526573756D0041544F4DDF
:1051B00040414C49454E54454B0000003230313699
:1051C0002F31312F323500000000002073746172DE
:1051D000745F7461736B0000E55B00082DE9F041BA
:1051E000184E0F460446F5683068001D00F066FE54
:1051F00038B9306890F82C1001208840316981431B
:105200003161601C07D137B13168BDE8F0410E480B
:10521000091D00F08BBE30682C44AC4244603168FC
:1052200005D2B06BBDE8F041091D00F067BE706BA0
:10523000091D00F063FEB06A844200D2B462BDE88A
:10524000F081000080000020DC0400202DE9F04106
:10525000054600F077FE2D4EB068401CB060306807
:105260002B4F10B1706930B32BE03560B068012866
:1052700027D1002404EB840007EB800000F030FE0F
:10528000641C202CF6D3234800F02AFE2148143059
:1052900000F026FE1F48283000F022FE1D483C305A
:1052A00000F01EFE1B48503000F01AFE19487063D3
:1052B0001430B06305E03068E96AC06A884200D8FB
:1052C0003560706A0121401C70626864E86A326966
:1052D00081401143316100EB800007EB8000291D04
:1052E00000F024FE00F06AFE706900280CD03068DF
:1052F000E96AC06A884207D207494FF080500860C7
:10530000BFF34F8FBFF36F8FBDE8F08180000020A7
:105310000C0200208C04002004ED00E010B500F029
:1053200011FE0E4C2068A0B90D4800F0D9FD0C48C4
:10533000143000F0D5FD0A48E060143020610022EE
:105340001021052001F03EFA206010B105A100F007
:105350000BFFBDE8104000F031BE0000BC00002093
:10536000F0040020546D72510000000070B5124E20
:10537000124D1CE001F08EF9306820B1002401F0DC
:1053800045FEA4B901E00124F9E700F0DBFDF06877
:10539000C468201D00F092FDA868401EA8606868DF
:1053A000401E686000F00AFE204600F052F868686F
:1053B0000028DFD170BD0000C8040020800000205C
:1053C00030B4026C0B46002A0BD0C1681144C16096
:1053D0004468A14201D30168C16030BC1846FBF7A4
:1053E0003FB830BC70472DE9F041856B1746044645
:1053F0000026026C82B1C7B1E068FBF731F8E168C2
:10540000206C091AE1602268914202D26168081A90
:10541000E060022F16D017E02068A8B9606801F09C
:105420004FFD0646002060600EE0A068FBF718F80C
:10543000216CA0680844A0606168884204D3206899
:10544000A06001E005B16D1E6D1CA5633046BDE88E
:10545000F08110B50446006B00F0E2FD2046BDE887
:10546000104000F0DDBD000010484FF4A04142079D
:1054700006D0C01D0D4920F00700411AC1F5A0411A
:105480000B4A00230144C2E900030839103A21F015
:10549000070111604B600B600B1AC0E900139360A9
:1054A0004FF000405360D0607047000018050020A6
:1054B000E0000020074E4FF08054074DFFF756FFE5
:1054C00030680128FAD92C60BFF34F8FBFF36F8F7C
:1054D000F4E700000C02002004ED00E02DE9F047A5
:1054E000DDE909840E461746824691009946089DDB
:1054F000A522206BFAF7F9FF6FF00301206B01EB97
:105500008701084420F00707780705D040F22B32C6
:1055100019A11EA0FAF7D2FE00202218315C82F8F1
:105520003410315C11B1401C1028F6D3002684F8E9
:105530004360202D00D31F25E562C4E91356201DCA
:1055400000F0D9FC04F1180000F0D5FC2461C5F18D
:1055500020006462A061666584F858604A4651463E
:10556000384600F02DFB2060B8F1000F01D0C8F8DC
:105570000040BDE8F08700002E2E5C467265655243
:10558000544F535C7461736B732E63004572726F7A
:10559000723A25732C25640D0A00000030B51149BC
:1055A00000E011460A688242FBD34B685C188442D3
:1055B00003D1406818444860084643681C18944268
:1055C00009D1084C103C2468A24209D052681A4400
:1055D00042600A6812680260814200D0086030BDF3
:1055E0000460F9E7E000002070B5002441600B4D35
:1055F0000061914206D8D11A8269914206D2011DFA
:10560000286907E09A4203D2994201D3012403E0BA
:10561000011DE86800F072FC204670BDBC0000204F
:1056200010B5044600F08EFCA06B20B1002400F001
:10563000C5FC204610BD0124F9E700002DE9F34127
:1056400000980F460026846C2CB940F6CE1216A1A5
:105650001AA0FAF733FEA06BE16B884205D340F63F
:10566000CF1211A115A0FAF729FEA06BE16B8842B9
:105670000CD294F945503A4669462046FFF7B3FEEE
:105680000646681C05D06D1C84F845503046BDE8C0
:10569000FC81606A0028F9D004F1240001F06AFC62
:1056A0000028F3D00126F1E72E2E5C467265655284
:1056B000544F535C71756575652E63004572726F4A
:1056C000723A25732C25640D0A000000F8B50546D2
:1056D00014480E46C068C068C468201D00F0EEFB88
:1056E000E069012817D1A0692B46411932462046AE
:1056F000FFF77AFF78B100200346014600902A4662
:10570000204601F0BFFD30B907494FF4027201F1A4
:105710001800FAF7D3FD616A01B02046BDE8F040F9
:1057200008470000BC000020E871000870B586B092
:105730002F4E53E00198002806DADDE90301029AB2
:1057400090470198002849DB039C606910B1201D37
:1057500000F0B4FB05A800F0A7F8054601980A2858
:105760003CD2DFE800F00505053B273805053B275F
:105770000298A169034601442A462046FFF734FFF8
:1057800000282BD0616A20468847E069012825D18E
:10579000002000900298A169002342181946204673
:1057A00001F070FDD0B940F2213212A117A0FAF732
:1057B00085FD13E00298A06128B94FF44E720DA147
:1057C00012A0FAF77BFDA0692B4641191A46204624
:1057D000FFF70AFF02E0204600F022FC00231A46F1
:1057E00001A9306801F02AF80028A3D106B070BDE5
:1057F000BC0000202E2E5C4672656552544F535CEF
:1058000074696D6572732E63000000004572726FDB
:10581000723A25732C25640D0A000000F8B50D4678
:10582000064600F037FF684600F03EF80446009850
:1058300010B101F0EBFBF8BD1148ADB10169096889
:10584000D9B10025311B2A46006800F09FFC01F009
:10585000DDFB0028EFD10B494FF080500860BFF30B
:105860004F8FBFF36F8FF8BDA642EBD801F0CEFB90
:1058700021463046FFF72AFFF8BD0125E2E7000088
:10588000BC00002004ED00E00648416B096829B126
:10589000416BC968C9684968816270474FF0FF3140
:1058A000FAE700008000002070B5054601F08EFA8E
:1058B000064E0446B068844203D200F009F8012085
:1058C00000E0002028602046B46070BDBC000020CD
:1058D000F8B5184E26E0C068C4680568201D00F0C1
:1058E000EDFA616A20468847E06901281AD1A0696B
:1058F0002844A84206D924616060211DF06800F0A8
:10590000FDFA0FE000200346014600902A4620469B
:1059100001F0B8FC30B9084940F2923201F11800A8
:10592000FAF7CCFCF06801680029D4D13169C6E9E6
:105930000310F8BDBC000020E8710008084840686A
:10594000401C04D0F42207A111A0FAF7B7FC5020A4
:1059500080F31188BFF34F8FBFF36F8FFEE7000016
:10596000E80000202E2E5C4672656552544F535C51
:10597000706F727461626C655C525644535C415244
:105980004D5F434D335C706F72742E6300000000F6
:105990004572726F723A25732C25640D0A0000005F
:1059A00070B50025040005D140F2816207A10CA06A
:1059B000FAF784FC0E496069884205D1A06A28394B
:1059C000884201D000B90125284670BD2E2E5C46C4
:1059D00072656552544F535C7461736B732E630030
:1059E0004572726F723A25732C25640D0A0000000F
:1059F000DC040020084CE068016839B1002139B1AD
:105A00000020FFF70BFFFFF791FEF4E70121F6E717
:105A1000C0680068F5E70000BC0000202DE9F041F7
:105A2000044600F08FFA94F9455004F1240610E082
:105A3000A06C20B100212046FFF700FE04E0606A60
:105A400048B1304601F096FA08B100F05DFC6D1ED9
:105A50006DB2002DECDC4FF0FF3684F8456000F0AD
:105A6000ADFA00F06FFA94F9445004F1100709E020
:105A7000206948B1384601F07DFA08B100F044FCD5
:105A80006D1E6DB2002DF3DC84F84460BDE8F0417A
:105A900000F094BA2DE9F0410546002600F0FAFD29
:105AA000324F386808B9FFF7DFFCF86805424FD17C
:105AB000002D4DD0083568070BD005F00700C0F168
:105AC00008000544680704D0BF2229A132A0FAF7D4
:105AD000F5FB002D3CD07868854239D82349103138
