:020000040800F2
:10000000B8C30020F90200088BC50008A99A0008AF
:1000100089C5000873100008451D01080000000094
:100020000000000000000000000000002D02000899
:10003000CD1300080000000071020008FDD7000881
:100040001303000813030008130300081303000838
:100050001303000813030008130300081303000828
:100060001303000813030008130300081303000818
:100070001303000813030008130300081303000808
:1000800013030008130300081303000813030008F8
:1000900013030008130300081303000813030008E8
:1000A00013030008130300081303000813030008D8
:1000B0001303000861080108130300081303000874
:1000C00013030008130300081303000813030008B8
:1000D00013030008A91B01081303000813030008F9
:1000E0001303000813030008130300081303000898
:1000F0001303000813030008130300081303000888
:100100001303000813030008130300081303000877
:100110001303000813030008130300081303000867
:100120001303000813030008130300081303000857
:1001300000F002F800F06AF80AA090E8000C82448F
:100140008344AAF10107DA4501D100F05FF8AFF26C
:10015000090EBAE80F0013F0010F18BFFB1A43F0A5
:1001600001031847E4270700042807000A444FF05A
:10017000000C10F8013B13F0070408BF10F8014B06
:100180001D1108BF10F8015B641E05D010F8016B4B
:10019000641E01F8016BF9D113F0080F1EBF10F8AF
:1001A000014BAD1C0C1B09D16D1E58BF01F801CBD2
:1001B000FAD505E014F8016B01F8016B6D1EF9D555
:1001C0009142D6D37047000000230024002500266A
:1001D000103A28BF78C1FBD8520728BF30C148BFAA
:1001E0000B607047692900F02781642900F02481A1
:1001F000782900F05D81732900F0018400207047A8
:100200001FB500F096F91FBD10B510BD00F058FCE9
:100210001146FFF7F5FF24F083FA00F076FC03B4F3
:10022000FFF7F2FF03BC24F0B5F80000224B196879
:100230000868B0E8F00F80F30988BFF36F8F4FF0C4
:10024000000080F311884EF00D0E70470000000092
:1002500006480068006880F3088862B661B6BFF39C
:100260004F8FBFF36F8F00DF00BF00BF08ED00E0CE
:10027000EFF30980BFF36F8F0F4B1A6820E9F00F7F
:10028000106008B54FF0500080F31188BFF34F8F16
:10029000BFF36F8F25F0F6FB4FF0000080F311885D
:1002A000BDE8084019680868B0E8F00F80F30988D5
:1002B000BFF36F8F704700BFAC000020EFF30580E5
:1002C000704700000B49D1F800C04A685CF8043B55
:1002D0001068184442F8040B8C4528BFA1F1DC0CCF
:1002E0008A4228BFA1F1DC02C1F800C04A6020F0B8
:1002F000004070474CBD002009488047094800472E
:10030000FEE7FEE7FEE7FEE7FEE7FEE7FEE7FEE7C5
:10031000FEE7FEE704480549054A064B7047000022
:1003200011D8000831010008B8BD0020B8C3002072
:10033000B8BF0020B8BF0020704700000FB40449C8
:1003400010B503AA029800F05FFB10BC5DF814FB27
:10035000780000200FB41CB5074B06AA7B44694601
:100360000090059800F021FB0020694600F030FB6A
:100370001CBC5DF814FB0000710600002DE9F04183
:100380000E460446002020622046E168884730B3CC
:10039000252805D0D4E901219047206A401CF2E7C6
:1003A000E168204600278847050018D0A5F14100E4
:1003B000192802D820354FF40067324629462046D6
:1003C0002760FFF70FFF40B1012804D0F61D26F08B
:1003D00007060836D8E7361DD6E72846DAE7206A4A
:1003E000BDE8F08170B50C460546012A05D0287895
:1003F000800600D5EA69002302E0012305E05B1CCA
:10040000934202D2E05C0028F9D1A869E618C01A2C
:10041000A861286A184428622846AFF3008004E0E7
:10042000D5E9012114F8010B9047B442F8D32846CE
:10043000AFF3008070BD00002DE9F04106460024B6
:1004400010687529314616A510D0AFF3008000283A
:1004500002DA404213A507E031688A0701D512A5E8
:1004600002E0490704D511A5012401E0AFF30080A3
:1004700000210A2206F1240709E0B0FBF2FCB0FBE0
:10048000F2F302FB1C00303078541846491C002857
:10049000F3D123462A463046BDE8F04100F027BAA2
:1004A000000000002D0000002B00000020000000D4
:1004B00070B504460D4621461068AFF300802188D0
:1004C000090502D50F4A7A4402E00E4A7A440E32F8
:1004D000002104F1240305E000F00F060009965DF9
:1004E0005E54491C0028F7D120780023000704D56A
:1004F000702D02D009B1022311322046BDE87040B0
:1005000000F0F5B9371807000B4910B5A1F17C02CE
:100510000A4CC2E93712372106E000EB104342F8DB
:100520002130074B00FB03400B1EA1F10101F4DC5D
:1005300010BD0120E8E70000ECBC0020E119D66600
:10054000CD0D010040EA010310B59B070FD1042A2D
:100550000DD310C808C9121F9C42F8D020BA19BA8E
:10056000884201D9012010BD4FF0FF3010BD1AB1F3
:10057000D30703D0521C07E0002010BD10F8013B48
:1005800011F8014B1B1B07D110F8013B11F8014B6F
:100590001B1B01D1921EF1D1184610BD40EA010388
:1005A000024630B59B0710D14FF0013400E008C27D
:1005B00008C91D1B9D4315EAC41FF8D013F0FF01A5
:1005C00002F8011B0DD01B0AF8E711F8013B002BC4
:1005D00002F8013B05D011F8013B002B02F8013B6A
:1005E000F3D130BD10B5431C02E010F8011B71B10E
:1005F0008107FAD14FF0013202C88C1A8C4314EAF9
:10060000C211F9D0C01A0A0603D0C01E10BDC01A0C
:1006100010BD0A0401D0801E10BD0902FCD0401E8E
:1006200010BD421E12F8013F002BFBD111F8013B17
:10063000002B02F8013BF9D17047032A40F23080C9
:1006400010F0030C00F0158011F8013BBCF1020F13
:10065000624498BF11F801CB00F8013B38BF11F894
:10066000013BA2F1040298BF00F801CB38BF00F8AB
:10067000013B11F0030300F06780083AC0F00880E6
:1006800051F8043B083A51F804CBA0E80810F5E70C
:10069000121D5CBF51F8043B40F8043BAFF30080EF
:1006A000D20724BF11F8013B11F801CB48BF11F864
:1006B000012B24BF00F8013B00F801CB48BF00F834
:1006C000012B7047431A28BF9A427FF6B6AF032A20
:1006D0001044114440F2268010F0030F1EBF11F8A1
:1006E000013D521E00F8013D10F0030F7FF4F6AFFC
:1006F00011F0030300F0AD81083AC0F00B8051F80F
:10070000043D083A51F804CD40F8043D40F804CDCA
:10071000FFF7F3BF121D5CBF51F8043D40F8043DE4
:10072000AFF30080D20724BF11F8013D11F801CDCD
:1007300048BF11F8012C24BF00F8013D00F801CD9D
:1007400048BF00F8012C704710B5203AC0F00B806C
:10075000B1E81850203AA0E81850B1E81850A0E8C5
:100760001850BFF4F5AF5FEA027C24BFB1E818501F
:10077000A0E8185044BF18C918C0BDE810405FEA8F
:10078000827C24BF51F8043B40F8043B08BF70470B
:10079000D20728BF31F8023B48BF11F8012B28BF10
:1007A00020F8023B48BF00F8012B704702F0FF031E
:1007B00043EA032242EA024200F002B84FF000028C
:1007C0000429C0F0128010F0030C00F01B80CCF163
:1007D000040CBCF1020F18BF00F8012BA8BF20F8D1
:1007E000022BA1EB0C0100F00DB85FEAC17C24BF25
:1007F00000F8012B00F8012B48BF00F8012B7047CF
:100800004FF0000200B5134694469646203922BFA9
:10081000A0E80C50A0E80C50B1F12001BFF4F7AFF4
:10082000090728BFA0E80C5048BF0CC05DF804EBD6
:10083000890028BF40F8042B08BF704748BF20F844
:10084000022B11F0804F18BF00F8012B70470000F9
:100850004FF0013C50F8042B51F8043B9A4221D14F
:10086000A2EB0C03934313EACC1317D150F8042BDB
:1008700051F8043B9A4215D1A2EB0C03934313EABF
:10088000CC130BD150F8042B51F8043B9A4209D1F8
:10089000A2EB0C03934313EACC13DBD04FF0000020
:1008A000704700BFD01A01BAB1FA81F101F0180106
:1008B00022FA01F0CB40C1F12001DBB2C0B2C01A74
:1008C0002CFA01F3D11A914311EAC311E6D1704712
:1008D000704770477047704710B500F0E5F8006842
:1008E00010BD10B5044600F0DFF8046010BD2DE91E
:1008F000F0470D4699469246044600F124080168E7
:10090000880604D5E06921F01001216000E0012093
:10091000A84201DD471B00E00027A1697A1902EB1C
:100920000900081AA0612078C00602D42046AFF35F
:100930000080002608E0D4E901211AF8060090475B
:10094000206A401C761C20624E45F4DB2078C006ED
:100950000AD52046AFF3008006E0D4E9012130201B
:100960009047206A401C2062381EA7F10107F4DC82
:1009700007E0D4E9012118F805009047206A401CDF
:100980002062281EA5F10105F3DC2046AFF30080AC
:100990002078000602D50220BDE8F0870120FBE7A1
:1009A00001694A1C02610878704700B58FB0CDE933
:1009B00001310021059105497944CDE90310114623
:1009C0006846FFF7DBFC0FB000BD0000E5FFFFFF4E
:1009D0000A6802F8010B0A60704710B5436913B149
:1009E000AFF3008001E0FFF7FDFC012010BD12789D
:1009F00000F124010A7000224A700122EDE711681B
:100A00004FF0FF32E9E70000074B70B50D467B441D
:100A1000FFF7CBFF0446284600F04AF810B14FF02C
:100A2000FF3070BD204670BDD33C0200431A28BF82
:100A30009A427FF689AE104410F0030F11441EBF96
:100A400011F8013D521E00F8013D10F0030F7FF434
:100A5000F6AF103AC0F00A8010B531E91850103ADC
:100A600020E91850BFF4F9AFBDE81040530724BF88
:100A700031E9081020E9081044BF51F8043D40F85E
:100A8000043D12F0030F08BF7047D20728BF31F8AA
:100A9000023D48BF11F8012C28BF20F8023D48BF95
:100AA00000F8012C704700000048704754BD00203A
:100AB000007B00F0800070470048704754BD002064
:100AC0007546FFF7F9FFAE4605006946534620F02C
:100AD0000700854618B020B5FFF71CFCBDE8204094
:100AE0004FF000064FF000074FF000084FF0000BEA
:100AF00021F00701AC46ACE8C009ACE8C009ACE89D
:100B0000C009ACE8C0098D46704710B50446AFF384
:100B100000802046BDE81040FFF781BB08F0E6BF2B
:100B200070B515460E46044608E02046641CA4B283
:100B300000F007F86D1E06F8010BADB2002DF4D1E0
:100B400070BD10B5044609F075F8200AA02101EB2C
:100B50004000C0B209F03AF809F0AEF8E0B209F08E
:100B600035F809F0A9F809F065F8A12009F02EF888
:100B700009F0A2F8002008F0F3FF044609F07AF823
:100B8000204610BD70B514460D46064606E029788D
:100B9000304600F007F8761CB6B26D1C641EA4B295
:100BA000F5D270BD70B50D46044609F043F8200A31
:100BB000A02101EB4000C0B209F008F809F07CF870
:100BC000E0B209F003F809F077F8284608F0FEFFD4
:100BD00009F072F809F04EF8BDE870400A2023F0E1
:100BE00095BC002800DC40427047000038B54568DD
:100BF00004460146284611F0CDF800282BD0206885
:100C0000304A11280DD006DC0B2825D00E2833D011
:100C10000F2852D112E0282849D0B0F5107F4CD1CE
:100C200008E09268002A16D02146284601B0BDE8A7
:100C300030401047214628465268F7E7284604F01E
:100C4000ADF90090406E0468684604F011FA002C7B
:100C500001D02846A04738BD284604F09FF90090EF
:100C6000683004F0E7F8009803216C3004F0F0F8E5
:100C7000684604F0FDF920E0E168486809680D293C
:100C800002D0202913D105E0002810DD28461EF0EF
:100C9000A6F806E0002804DD2846BDE838401EF02E
:100CA0009EB82846BDE8384002211EF0AEB8E06884
:100CB00018B90021284600F099F92046BDE83840CF
:100CC00011F048BC44090020F0B5044685B08069A5
:100CD000B4F90850668A0027CDE90265CDE900170E
:100CE0000490B4F90C00B4F91060C118B4F90A000A
:100CF000B4F90E50104433462A4600F007F8054672
:100D0000616800F089F905B02846F0BD2DE9F04F83
:100D100085B01F46DDE911B4DDE90E5690468946DF
:100D2000824605F045FD16484C34CDE90204CDE974
:100D300000563B4642464946504611F053FB0400DC
:100D400018D004F02BF910225946049011F074FACF
:100D5000049830220B493430FFF7F6FC094D049912
:100D60000C3D2868486604A804F082F928684168A8
:100D70002046884707F05EFA05B02046BDE8F08FB0
:100D8000ED0B000850090020F0B5044680688B493F
:100D900089B051F82050606800287DD0052804D023
:100DA00006287AD0122879D1AEE0E86900284FD021
:100DB00095E80E008DE80F0004F110010FC907F04F
:100DC00015FF002655F8260006F0B3FDA169E86975
:100DD0000A1A216901446069304405F0FBF9A169F0
:100DE000E8690A1A21690144E069801B05F0F2F9FB
:100DF000E169E8690A1A616901442069304405F033
:100E00009FFAE169E8690A1A61690144A069801BD7
:100E100005F096FA761C022ED4DBA86806F089FD50
:100E2000E069E9696669431A206942183144801C07
:100E3000521E05F007FBE169E869A2690B1A6169B6
:100E40000144101A401C921E05F0FCFAEE6913E0F2
:100E50005FF0000655F8260006F06BFDE069831B85
:100E6000A069821B606981192069304405F028FA65
:100E7000761C022EEEDB0226D5E90301CDE9000146
:100E80006169E06908444310A069891C821B2069DC
:100E9000304405F039F902E089E012E08AE0D5E952
:100EA0000501CDE90001E36960690121184401EB06
:100EB0006001A0699B1E821B2069304405F024F963
:100EC00078E0206804F06AF80490206813F026F8AF
:100ED00040B1A06808B1002008E00498006F28B174
:100EE000012003E00498406F00B10220049901EB57
:100EF0008000C56E04A804F0BBF800231A462846FB
:100F0000216804F077FD55E0206804F047F804906C
:100F1000866EEEB3B0F95C70A168D1B3032942D0FC
:100F20005FF0000100EB8101406D0C6C06F030FDBC
:100F3000204606F0FEFC05A805F046FBBDF814109F
:100F4000A88B0144ADF81410BDF81810081AADF8BC
:100F50001800BDF81600801CADF81600BDF81A0088
:100F6000801EADF81A000498B0F96020B0F95E1048
:100F700005A806F05BFA04A804F07AF8022006F04F
:100F800091FD304604F00AF83A4605A9079001E0C1
:100F90000BE006E004F0A6FE0DF11C0004F068F87A
:100FA00008E00121BEE70221BCE704A8F6E72068BB
:100FB00012F0E8FB09B00020F0BD0000740A070839
:100FC000044A0349116004494A6A4862104670475E
:100FD00080090020440900205009002000294FF01A
:100FE000100101D010F065BF10F0ADBE4FF480725B
:100FF0000029114601D010F05CBF10F0A4BE000023
:10100000034802494160034981607047D3040208E4
:1010100044090020C1FE01082DE9FF410E460500EC
:101020004FF0010421D005F0C3FB284603F0B6FFC2
:101030000190876E01A8009704F01AF831466846BF
:1010400008F03EF978B100980024B84208D028464C
:1010500003F0A4FF01900099816601A804F008F84C
:10106000284612F001F807F0E5F804B02046BDE884
:10107000F081FEE77CB5214C0546216831F8220F4E
:101080004A8D104408804888CA8D104448802846FC
:1010900005F074FA2168498CADF80010461828460E
:1010A00007F0A0FF3044401EADF8040005F0B6FA8A
:1010B0002168898CADF802100844401EADF8060086
:1010C000684612F0B7FD04E0284601F009FA12F074
:1010D0002BFD0028F8D10A2D04D0BDF804002168AA
:1010E000401C4884206830F8221F428D891A0180F4
:1010F0004188C28D891A41807CBD000028080020EB
:1011000070B50F4C0025C4F884510E48016821F0D9
:10111000F0010160016841F030010160052004F533
:10112000C27423F00FFA0848C0F8A451052023F038
:1011300009FA01202060052023F004FA256070BD23
:1011400000802142041C0140008023421348816931
:1011500041F008018161816941F08001816110489D
:10116000016821F0F0010160016841F03001016087
:101170000C48016821F0F0010160016841F0300184
:10118000016007480C30016841F002010160054828
:101190000830016841F4007101607047001002409E
:1011A000000C0140041C014070B50F4C0026C4F82F
:1011B00084610E48016821F0F0010160016841F08E
:1011C00030010160052004F5C27423F0BBF9084822
:1011D0000125C0F8A451052023F0B4F925600520AD
:1011E00023F0B0F9266070BD00802142041C01404C
:1011F000008023422DE9F047824618480024016808
:1012000021F0F0010160016841F0800101601E20C1
:1012100023F098F90025124EDFF848902F464FF042
:101220000108C6F88471052023F08CF9C6F8848182
:101230006006040ED9F8240108B1641CE4B26D1CE8
:10124000EDB2082DEDD3BAF1000F04D0FFF758FF2F
:101250002046BDE8F087FFF7A7FFF9E7041C01402F
:1012600000802142008023422DE9F04705461548C1
:10127000016821F0F0010160016841F03001016076
:10128000114E0027C6F88471052023F05BF9DFF8C2
:101290003C8000244FF00109E909C8F8A411680650
:1012A000050EC6F88491052023F04CF9C6F8847128
:1012B000052023F047F9641CE4B2082CECD3BDE808
:1012C000F0870000041C014000802142008023427E
:1012D00070B50F48016821F0F0010160016841F02C
:1012E000300101600B4E0120C6F8A4010A4DC5F87B
:1012F00084011E2005F5C27506F5D27623F022F989
:1013000000243460052023F01DF92C6070BD00001E
:10131000041C0140008023420080214270B50D482A
:10132000016821F0F0010160016841F030010160C5
:1013300009480125C0F884511E2023F003F9074C09
:101340000020C4F8A401052004F5D27423F0FAF8B3
:10135000256070BD041C01400080214200802342B2
:1013600070B512480024016821F0F00101600168A5
:1013700041F0800101600E4D0120C5F8A4010D4E21
:10138000C6F8840107E0641CE4B2FA2C03D9FFF725
:10139000C5FF012070BD052023F0D4F8D5F8240145
:1013A0000028F0D1C6F8840170BD0000041C014083
:1013B00000802342008021420348002202604260F4
:1013C000472131200FF066BA680000207047000006
:1013D0002DE9FC5F15460746DFF890802844019010
:1013E000D8F800201C460E46526E214489465268A9
:1013F0009047D8F80020781B4946526E82465268C2
:101400009047711938190090D8F800208946526E1B
:1014100052689047D8F80020711B8B46526E009896
:1014200052689047002C1ED0D8F80010361B454655
:10143000496E01984A68314690472A6831465046BD
:10144000526E5268904728683C1B4946406E42687D
:10145000204690472A6859462046526E526802B08C
:10146000BDE8F05F1047BDE8FC9F000028080020A1
:101470002DE9F047456804468EB00027284603F062
:101480008DFD0090B0F87CA0D0F86890D0F88080F6
:10149000D0F88860C06D00B10768684603F0E8FDC9
:1014A00005E0716820468847002841D13668002E43
:1014B000F7D12068172852D00CDC0F283BD004DC71
:1014C0000B2874D00D283AD189E0112810D01428A7
:1014D00035D13AE0262845D004DC1E284FD02028FC
:1014E0002DD188E02A2814D0B0F5107F27D127E02D
:1014F0002846E66803F052FD0190717A39B9317AD5
:10150000012904D130F87C1F41F48071018001A8C9
:101510008EE0284603F042FD0090E16811B1C0F86A
:10152000841002E0D0F88400E060684603F0A0FD7B
:101530000EB0BDE8F087002F7CD02846B84779E090
:10154000214628461EF02EFDF2E705A9284600F0A8
:101550002CFCE0680699016007994160E8E7C4F84F
:101560000C90E5E7E0680228E2D10C95E0680D9068
:1015700027200A900AA9A06812F0F8FED8E7E068D0
:10158000012804D00021284600F03FFBD0E7404668
:1015900011F0D7FD60B1404612F06EF8404611F0F0
:1015A0008FFC90B10121404610F083FC0DE04BE030
:1015B000484612F0B5F88046284603F0EFFC00904C
:1015C000C0F88080684603F053FD0121284600F0F2
:1015D0001CFBB8F1000FABD10020E060A8E75FEA88
:1015E0000A7027D4E068C06820B3007A10B3284698
:1015F00012F042F81EE0E668E6B12946706812F083
:1016000076FC20B10121284620F05CFA12E000218E
:10161000284620F057FA2946306812F057FC48B1A6
:10162000284603F0BBFC03903168C0F8801003A883
:1016300003F01EFD2146284610F0ACFB00288DD09B
:10164000204610F087FF73E7284603F0A7FC0090C0
:10165000703003F0EFFB6846EAE7F0B587B0B0F909
:1016600008400DF10C0C0C9E876945688CE8F00071
:10167000448A0025CDE900150294B0F90C10B0F9A8
:101680001050B0F90E40B0F90A00194410442B462E
:10169000224600F003F807B0F0BD00002DE9F04F3E
:1016A0008BB09846DDE9155691468A468346149FCD
:1016B0001A9C05F07DF83348603445F48055CDE937
:1016C0000204CDE9007543464A465146584610F09B
:1016D00089FE04004FD003F061FC3022049017997A
:1016E00010F0AAFD0498282227493430FFF72CF87F
:1016F00004981999244F4166A0F87C600026C0F830
:101700008060C666083FC0F888607968C16504A833
:1017100003F0AEFC05A9204600F047FB1B4841F250
:10172000827103960094CDE90110BDF91E00BDF948
:101730001A10BDF91C20431ABDF918005B1C121ABF
:10174000521C10F04FFE06467868416820468847D4
:10175000204603F023FC0490866604A803F088FC6E
:1017600042F20400054202D1204610F093FF2046C9
:10177000189900F0C3FA06F05DFD0BB02046BDE8F5
:10178000F08F000071140008140A0020631F000885
:101790002DE9F041044694B0006800F0B7F908B1B3
:1017A000D94D01E0D84D2C35606815281ED00CDCD1
:1017B0000B281FD004DC00287ED005287DD12FE126
:1017C0000E287BD01228F9D141E1162806D017281F
:1017D00008D0182808D01C28F0D109E0E86914B016
:1017E000BDE8F081286AFAE7686AF8E7A86AF6E7D0
:1017F0006869F4E720680B901C200C90206803F0C7
:10180000CDFB0390016D0BA88847064603A803F0A3
:101810002FFC022E0FDB95E807008DE80700D4E9C6
:1018200004023346A16907F0A7F920698719A06966
:10183000A0EB06082CE0286806F07BF82169E8692F
:101840000A18521E606904F0C5FCA269E869111A01
:10185000491C606904F0BEFCD4E904077F1C3946CA
:1018600004F008FD3946A06904F004FD686806F03C
:1018700060F820693946401C04F0FCFCA069394638
:10188000401E04F0F7FCA0692769A0F10208BF1C04
:10189000286806F04EF842463946606904F09AFC22
:1018A000686806F046F8606942463946401C04F014
:1018B00091FC686A022802E015E1B0E000E10BDD6E
:1018C000A86806F036F861696A6A881C8B180146B8
:1018D000424638465B1E27E0296AB14226DD606930
:1018E000022E074600F1020801DB374401E007F150
:1018F0000207206901DB304401E000F102002269A7
:101900003B460A444146A2F1010204F09BFD022E2F
:1019100002DBA069821B01E0A269921EA069E9694D
:101920003B46401A4146401C04F08CFD022E02DB6F
:101930006069064401E06669B61CE76928687F1E95
:1019400005F0F7FF3A463146206904F0F9FC3A46C3
:101950003146A06904F0F4FCE7696868BF1E05F031
:10196000E8FF20693A463146401C04F0E9FCA069D2
:101970003A463146401E04F0E3FCE869022802DCE6
:10198000286A022823DDA86A022802DDE1690F1A0D
:1019900001E0E769BF1EA86805F0CBFFE9690229ED
:1019A00009DD20693B46421800F1020C31466046D1
:1019B000521E04F047FD286A022808DDA269E86982
:1019C0003B46101A3146401C921E04F03BFD28682D
:1019D00005F0AFFFD4E90620216904F0FBFB68683D
:1019E00005F0A7FFD4E906202169401E491C521EBC
:1019F00004F0F0FBA86A022811DDA1692669E469F8
:101A0000A1F10208271AA41EB61C7F1CA86805F0C5
:101A100090FF234642463946304604F013FD71E0FC
:101A2000208A00B2ADF81400A18A09B2ADF81610F0
:101A3000228B12B2ADF81820A38B1BB2ADF81A306E
:101A40002C69ED68CDE9005404F05EFB5AE0208A71
:101A5000298B0844ADF81400A08AADF81600208B3D
:101A6000298B401AADF81800A08BADF81A00206839
:101A700003F094FA0390006FF0B1022006F012F820
:101A8000039890F87C10C1F3C00100EB8100006C5A
:101A900005F04FFF0398406B05F07AFF0398006F45
:101AA00003F07CFA03990990B1F95A2005A904F0D2
:101AB00019F909A803F0DCFA03A803F0D9FA21E028
:101AC000208AADF81400A08AADF81600208BADF87E
:101AD0001800A08BADF81A00A86805F02AFF05A829
:101AE00004F0DCFC0EE0206803F058FA039030F8B4
:101AF0005A1F41F00C01018003A803F0B9FA2068D5
:101B000011F040FE00206AE6500A002038B50500BA
:101B10004FF000040FD004F04BFE284603F03EFACD
:101B2000009090F87C00000700D50124684603F07F
:101B30009FFA06F07FFB204638BD0000022905D23F
:101B4000034A52F821102C22FEF7FEBD7047000018
:101B5000840A070830B504468BB0006803F01EFA0B
:101B6000009090F87C10246A006FC1F3C00508B1A2
:101B700003F014FA0690E068029020690390A088B0
:101B8000401EADF81000E089ADF812002089401C1D
:101B9000ADF81400608AADF81600BDF80800401CCE
:101BA000ADF80800BDF80A00401CADF80A00BDF809
:101BB0000C00401EADF80C000098406B05F0E8FEEC
:101BC000009808AA02A9B0F95A30069806F02EFC2F
:101BD000009800EB8500806B09F0ECF8009800EBB2
:101BE0008500006C09F01EF908AB02AA04A906984A
:101BF00010F03CFA684603F03BFA069810B106A8CC
:101C000003F036FA0BB0002030BD70B50D4604006D
:101C100009D004F0CDFD294620461FF053FFBDE852
:101C2000704006F007BB70BD022803D2024A02EBE7
:101C30008000416070470000140A002001490860DC
:101C400070470000140A0020074A0649054B11603E
:101C5000064A083BD16958601B68C2E9063008464D
:101C600070470000440A0020100A0020140A0020D7
:101C7000024AB2F92610D08408467047140A0020A0
:101C800038B50C46054604F093FD55B1284603F0DF
:101C900085F900900466684603F0EAF9284611F0D9
:101CA000E3F9BDE8384006F0C5BA000070B50D464E
:101CB0000146022D1ED2104C2C2254F82500FEF7AE
:101CC00043FD54F825100220CA69022A00DAC861CF
:101CD00054F825100A6A022A00DA086254F825101E
:101CE0004A6A022A00DA486254F825108A6A022AEF
:101CF00000DA886270BD0000840A07087CB50D46D2
:101D000004001DD004F054FD204603F047F9009074
:101D1000006F0190684603F0ABF9294601A807F06F
:101D2000CFFA58B1204603F039F9009001990167C4
:101D3000684603F09DF9204611F096F906F07AFA0C
:101D40007CBD38B50C46050013D004F031FD2846A3
:101D500003F024F90090B0F95A10A14204D0A0F881
:101D60005A40284611F080F9684603F081F906F0E0
:101D700061FA38BD38B50C46050015D004F018FDE1
:101D8000284603F00BF90022CDF8000000EB820199
:101D9000521C0C64022AF9D3684603F069F92846FC
:101DA00011F062F906F046FA38BD2DE9F34F85B01F
:101DB00000270C46B846059803F0F0F80090C06D77
:101DC0000121856805982A68904782462A68032180
:101DD0000598904704902A6802210598904703903F
:101DE0002A680021059890470646009811F013FFD5
:101DF0008346009811F016FF8146009890F8321043
:101E0000890601D5B0F9588000F036F805460098EB
:101E1000C06E10B110F070FE074625806780A4F8F0
:101E200004A0049AABEB020006EB0802401E2A4411
:101E300020813A44E280039BA9EB0302521E628197
:101E4000A4F80CA020827019E681401E60826846CA
:101E500003F00EF9B4F90C000190B4F910000290EF
:101E600002AA01A9059800F039F80198A08102980A
:101E7000208207B0BDE8F08F10B50146002091F830
:101E80003220920607D5B1F95400002803D1486BDF
:101E900004F034FC801C10BD70B58AB00C460546B9
:101EA00003F07CF80990C06D866809A803F0E0F89B
:101EB000009534B1012C06D0022C0BD0032C04D198
:101EC0000AE0182000E016200190716868468847F3
:101ED0000AB070BD1520F7E71720F5E72DE9FC41A2
:101EE00017468846044603F059F80090C16D05680E
:101EF00068468E6803F0BCF832680021204690479F
:101F00000646204610F09DFC27E000BF03F046F88F
:101F10000190B0F900102AB2B0F90430891A9A1A67
:101F2000B0F90230A3EB2543B34210D190F828005A
:101F3000000605D53868884209DB491E396006E08D
:101F4000D8F80000904202DC521CC8F8002001A81A
:101F500003F08EF8204610F019FD0400D6D1BDE83C
:101F6000FC812DE9F0430446406885B0064610F038
:101F70002BFD814603F012F80090D0F88080876C2A
:101F8000456E684603F074F82068172859D008DCBD
:101F90000E2837D00F280BD0142852D015283AD14C
:101FA0004FE01E2818D01F2827D0222833D146E022
:101FB0006FF07040874204D0384608F0FBFE03F013
:101FC00097FB002D12D0D4E902122068CDE901065A
:101FD000CDE9031201A822E0E068002806D05FEAFC
:101FE000080006D0B04504D011F046FB05B0BDE8AE
:101FF000F083304611F094FB16E0214648460FF07E
:10200000C9FEF3E7E0684168002904DD006809289B
:10201000EFD00A2805D0A5B12046C4F80490A847FF
:10202000E4E7304611F08BFB0446484602F0B6FF69
:102030000090C0F88040684603F01AF8D6E7E760E1
:10204000D4E7204610F086FAD0E700008000A0F127
:10205000C0400029016802D041F0010101E0024ABC
:102060001140016070470000FEFF0F0010B5D0E97D
:1020700001121143D0E903231A431143426911436A
:1020800082691143C2691143026A1143426A1143D2
:10209000826A1143C26A1143026B114302689200C3
:1020A000A2F1C04211608168082907D10168890046
:1020B000A1F1C0410A6842F040020A60416BD1E9D7
:1020C000002342EA03128B688C891B0243EA044313
:1020D0001A430B8A42EA03520B7D896942EA036282
:1020E0000A4301688900A1F1C0414A60C16AB1F5A3
:1020F000804F08D000686FF070418000A0F1C040B0
:10210000C0F8041110BD816BD1E9002342EA03122B
:102110008B680C8A1B0243EA04531A430B7D8969BE
:1021200042EA036200680A438000A0F1C040C0F8A0
:10213000042110BD3A48416941F4807141618169CF
:1021400041F020018161816941F040018161816933
:1021500041F080018161816941F480718161314880
:10216000016800210160026842F0BB320260001F7A
:10217000026802F0FF220260026842F0BB120260B5
:10218000294802680160026842F0BB320260001F09
:102190000268264B1A4002600268254B1A4302600F
:1021A0002448026892B202600268234B1A4302601C
:1021B000001F026802F07F42026003681F4A134357
:1021C00003601F48436823F470634360436843F42B
:1021D00030634360036803F07F4303600368134385
:1021E00003604FF0204001614161C0F814110169A2
:1021F00041F480510161016941F0100101614169BF
:1022000041F44071416141694161416941616FF04F
:102210007041C0F81411016941F00101016170477A
:1022200000100240041401400418014000FFFF0F99
:10223000BB0000B0041C01400000BBBBBBBBBB002B
:102240000020014038B52B48816941F0800181614F
:102250002948016821F47F410160016841F460511F
:10226000016025480830016841F440610160FEF7D3
:102270006DFF224D0024C5F8AC41142005F5D6753C
:1022800022F044F901202860322022F03FF98DF835
:10229000004001226946002000F0FEF80122694654
:1022A000A42000F0F9F816208DF8000001226946FC
:1022B000802000F0F1F80C208DF800000122694622
:1022C000882000F0E9F802226946A12000F01EF8FB
:1022D0009DF80000302803D19DF80100032801D0AB
:1022E000012038BD43F2030105A0FEF727F80020C6
:1022F00038BD000000100240041C01400080234251
:102300004354502049443A25780D0A002DE9F04104
:1023100015460F460446FEF7DBFF7020FEF7A4FFCC
:10232000FFF71EF8E0B2FEF79FFFFFF719F8FEF780
:10233000CFFF7120FEF798FFFFF712F800246E1E02
:1023400009E0B44201D0012000E00020FEF752FF76
:102350003855641CE4B2AC42F3D3BDE8F041FEF75B
:10236000DDBF00002DE9F143484F00244FF00A097A
:10237000387882B0401CC0B2B0FBF9F209FB120100
:10238000434DA046387009B10A2863D2012202A940
:102390000220FFF7BBFF9DF8080001075AD000F0AC
:1023A0000F00062856D2FF218140C84340F0C000EC
:1023B00085F820004FF00108002695F8201008FA53
:1023C00004F0014239D033480422694630F8140041
:1023D000FFF79CFF95F830009DF80010C0079DF8AE
:1023E000010001F00F010ED000EB012105EB4400CC
:1023F000C1829DF802209DF8031002F00F0201EB4C
:10240000022181810FE000EB0120C0F5F07105EBA6
:10241000440081819DF802209DF8031002F00F0214
:1024200001EB0221C1829DF800000821B1EB101FD1
:1024300003D005EB4400C6828681641CE4B2052CFF
:10244000BBD3A9894FF0010819B9E88A08B98DF8FA
:1024500008603E709DF80800C0060ED195F8200077
:10246000010602D520F0800005E04FF6FF71A9813A
:10247000E98200F0E00085F820003878F02801D9E2
:1024800087F800904046BDE8FE8300002800002049
:1024900030000020DA9102082DE9F04115460E4681
:1024A00004460027FEF714FF7020FEF7DDFEFEF75E
:1024B00057FFE0B2FEF7D8FEFEF752FF002408E017
:1024C000305DFEF7D1FEFEF74BFF070003D1641C21
:1024D000E4B2AC42F4D3FEF721FF3846BDE8F08108
:1024E00010B504460A2812D00D2C14D004F060F95F
:1024F00009480068C06901682046884707480168A4
:1025000009B120468847BDE8104005F093BEBDE8FC
:10251000104003F00DBB10BD28080020500800201B
:102520002DE9F0430446C56887B0904689460020EF
:1025300005F022FA064625B1287910B146F00200CE
:1025400001E026F0020005F017FA2069012558B1D4
:10255000D4E902128DE82600039563882288046876
:1025600041464846A0471EE0124F134B21463868AB
:102570001B68427CE068984730B9E088012801D0A8
:10258000002001E03868806BA288E388A16800958C
:10259000CDE90410CDE902320195638822884146D5
:1025A000484607F0E1FC07B03046BDE8F04305F0CF
:1025B000E3B9000028080020200800202DE9F0479A
:1025C0008146884640F2C32050434FF47A7190FB15
:1025D000F1F502FB02F002EBD27100EB6106174647
:1025E0000023414648466D1CFEF7F2FE012413E02D
:1025F00004FB04F007FB0700B04206DD3B46224621
:1026000041464846FEF7E4FE7F1E3B4622464146D1
:102610004846FEF7DDFE641CAC42E9DDBDE8F0870C
:102620001CB50024019401AC009400F0E7F81CBD37
:102630002DE9FF4F83B0814606988A46A0EB0A0831
:10264000109E00200090A2EB09043568934654EADE
:10265000080018D02046FEF7C4FA07464046FEF7A9
:10266000C0FA87420BDA2046444680464846D146A7
:1026700082465846DDF818B0069001200090002CE4
:1026800007DD204606E007B04846BDE8F04F00F001
:102690003BB96042A0420AD04846D9466442C8F1DC
:1026A000000883464FF0FF37DDF818A000E001274F
:1026B0005148B8F1000F11D004EBD4714FEA610B0F
:1026C00001DACBF1000B4C480068807E88B3002F04
:1026D00002DA30682044306000257BE00099002950
:1026E000016821D0897E11B10027804615E007B02E
:1026F0005A4649465046BDE8F04F07F0F1BD28461E
:102700006D1C1FF043FC38B9D8F8000009EB070135
:10271000406E4268504690477F1CA742EFDD6D1E19
:10272000356007B0BDE8F08F8A7E1AB10027804679
:1027300017E019E0486E5A465146036807B048460C
:10274000BDE8F04F184728466D1C1FF01FFC38B934
:10275000D8F8001009EB0700496E4A6851469047C7
:102760007F1CA742EFDDDAE700250FE008FB05B08C
:1027700090FBF4F101EB0A00009951B11E4A09EBFC
:1027800005011268526E526890476D1CA542EDDD3E
:10279000C7E7194909EB05030968496E4A6801460C
:1027A0001846F1E708FB05B090FBF4F101EB0A00D5
:1027B00001903068384430601FF0E8FB48B9009859
:1027C00090B10D4809EB05010068406E4268019820
:1027D00090476D1CA542E5DD3068002F01DA2044EA
:1027E0003060C01B30609CE7034909EB05000968B5
:1027F000496E4A680199EBE7280800202DE9FF4758
:102800000F4640491646804609680C981D460A7EC8
:10281000012A1CD0A8EB0600791B50EA01031CD04A
:10282000A2F1010921F0D4F900F58060824606F09A
:1028300070FE00FB09F4504606F070FE00FB09F143
:10284000002C0CDAC4F50070801240420AE00090BF
:10285000324639464046FFF7EBFEBDE8FF8704F5F8
:102860000074A012002904DAC1F5007189124C42EB
:1028700002E001F500718C12002804DD411C01EB1F
:10288000D171491003E000EBD0714910401E00EBFC
:10289000D0704210002C04DD601C00EBD0704010A2
:1028A00003E004EBD4704010641E04EBD47308EB17
:1028B0000104ADF800403C18ADF80240A8EB02045A
:1028C0005B10B21AADF80440ADF808203144FC1A90
:1028D000EA1AADF80C102844ADF80A20ADF80E0045
:1028E0000023ADF806401A460421684600F08CF833
:1028F0003946404617F0A2FC2946304617F09EFCA8
:10290000ABE7000028080020064A13681A7E012A57
:1029100005D0521E02EBD272521000F005B85A6E6A
:1029200052681047280800202DE9F05F06468846C7
:1029300040F2C32002FB00F14FF47A7091FBF0F7F4
:1029400002FB02F102EBD27001EB600B1446B118EE
:10295000234A301B7F1C1268526E13680A46414698
:102960009847012538E000BF05FB05F004FB040192
:1029700059451CDDBC4219DD194B06EB050AA6EBD7
:1029800005091B68AAF1010208EB04015B6E09F15D
:1029900001001B689847124BAAF10102A8EB040141
:1029A0001B6809F101005B6E1B689847641E0C4BA5
:1029B0003219301B1B68924608EB05015B6E81469D
:1029C0001B689847064B5246A8EB05011B68484612
:1029D0005B6E1B6898476D1CBD42C5DDBDE8F09F6E
:1029E0002808002070B514460E4605460119001B44
:1029F00002F06CF922463146284618F0C9FFBDE8BE
:102A0000704002F07DB800002DE9FF4F43F6FF74DF
:102A10000F46664283B09B46814600210BE000BF13
:102A200009EB8100B0F90200A04200DA0446B0428E
:102A300000DD0646491CB942F2DB67480068406980
:102A400000280DD0B0F906101A46A1EB0B01B142D7
:102A500000DA0E46B0F90200801AA04200DD0446FA
:102A6000B4E0DFF878A100200546CAF8000088E04D
:102A7000781E854201DA6B1C00E0002309EB850C0F
:102A800009EB8302BCF90200B2F90210A04244D162
:102A9000A14215D139F92330059A39F9251003EBF4
:102AA000020C4D4A05981268084404EB0B01526E63
:102AB0006045136801DA62462AE00246604627E074
:102AC0002846A4464FF000087A1E0BE008B1401ECD
:102AD00000E0781E09EB8003B3F90230634504D1AE
:102AE00008F101089045F1DB2346A34248D01A1BA8
:102AF00039F92500A1EB040C059B92EA0C0F09D4CF
:102B0000354A184404EB0B011268526E13680246F2
:102B1000984735E011F03CFE32E0A14230D001DBB5
:102B2000A04203DDA0422BDBA14229DCE046884223
:102B30000ADC0346A04223DC0846A14220DBB8F9A8
:102B400000C0B2F9001008E00B46A14218DCA04218
:102B500016DBB2F900C0B8F90010E21AA1EB0C01C3
:102B600051430029A0EB030202DD01EB620102E008
:102B7000A1EB6201491CC01A91FBF0F06044C9E767
:102B80006D1CBD42FFF674AF0598009004EB0B007E
:102B9000019000208046054613E01149B8F1000F6E
:102BA00031F915A009D0009901EB0A0208440A493D
:102BB0000968496E0B680199984788F001085046EA
:102BC0006D1C064909688D42E7DB641CB4427FF73F
:102BD00048AF07B0BDE8F08F28080020DC0D0020CA
:102BE00094BB002010B5002004F08CFE6FF07F40F5
:102BF00004F09FFE012004F037FF002004F042FFA4
:102C0000002004F04FFF002004F0B6FE04480068E6
:102C100004F0BEFEBDE81040002004F0F7BE000046
:102C200024080020F0B5CC78002204F00F03E4065D
:102C300001D58C7823430C784FF00F0C14F0FF0F64
:102C40004FF0010E1BD005680E880EFA02F42640E4
:102C5000A64210D196000CFA06F725EA070703FAF8
:102C600006F5CE783D43282E02D0482E02D002E051
:102C7000446100E00461521C082AE5D305600A881B
:102C8000FF2A1CD94468002202F108060EFA06F554
:102C90000E882E40AE420ED196000CFA06F7BC43C9
:102CA00003FA06F7CE783C43282E00D14561CE7852
:102CB000482E00D10561521C082AE5D34460F0BDBE
:102CC0000161704733B583B004001BD003F070FD81
:102CD000204602F063F90190456E01A802F0C8F9A0
:102CE000049802F05BF900908460684602F0C0F935
:102CF000042204A9284602F0DFF9204610F0B4F9B6
:102D000005F098FA05B030BD33B583B004001BD090
:102D100003F04EFD204602F041F90190856E01A8B6
:102D200002F0A6F9049802F039F900908460684630
:102D300002F09EF9042204A9284602F0BDF92046BB
:102D400010F092F905F076FA05B030BD2DE9F041AA
:102D500004460025D4E90007B0F5407F00D10125E5
:102D6000214638460FF016F8064615B138461BF0D6
:102D70004FFD002E2FD02068052806D00B280ED03E
:102D80000F2806D0262821D10EE038461BF040FD42
:102D90001CE03846E168BDE8F0411CF03CBB384619
:102DA000BDE8F0411CF04EB8E06805280ED1384669
:102DB0000FF044FEA168884205D038460FF02EFE81
:102DC000A168884202D160681DF09CF82046BDE8E9
:102DD000F0410FF0BFBBBDE8F081F0B585B00DF15B
:102DE000280C9CE8F0004FF0000C8DE8F01000F08B
:102DF00003F805B0F0BD00002DE9F04F85B098460E
:102E0000DDE90E5691468A468346109F129C03F0D8
:102E1000CFFC18486C34CDE90204CDE90056434696
:102E20004A46514658460FF0DDFA04001BD002F026
:102E300080F9054602F07DF90646204602F0AEF81C
:102E40000490C0E91956002211990FF0F5F9049881
:102E5000302209493430FDF777FC0498A0F87870E7
:102E600004A802F005F905F0E5F905B02046BDE833
:102E7000F08F00004D2D0008A80A002013B582B085
:102E8000044603F095FC204602F088F8009060B1FB
:102E9000406A02F083F801460190022303AA0098D9
:102EA00000F0C8F901A802F0E3F8684602F0E0F883
:102EB00005F0C0F91FBD00002DE9F04385B01D46A7
:102EC00090460F46814603F073FC2C2001F069FF09
:102ED000060024D0780001F064FF04000ED0B8F1A1
:102EE000000F0BD055B1204602F058F86A00414659
:102EF0000090FDF7A2FB684602F0BAF8304602F0F7
:102F00004DF80A49029000F10C02446282E8A202E4
:102F1000074901600749416002A802F0A9F805F0DD
:102F200089F905B03046BDE8F083000015E20108DC
:102F3000C1F50108D5EE010810B5044603F038FCD0
:102F400020461BF0C7FFBDE8104005F073B92DE91E
:102F5000FC47894607002BD003F02AFC384602F0D4
:102F60001DF80190466E01A802F082F8304602F08A
:102F700038F90546002414E02146304602F03DF9B8
:102F800070B102F00BF80090D0F80080684602F0B3
:102F90006FF8C84504D12146304602F0F5F802E04A
:102FA000641CAC42E8DB384610F05EF805F042F9EC
:102FB000BDE8FC872DE9FC47894607002BD003F0CC
:102FC000F7FB384601F0EAFF0190866E01A802F097
:102FD0004FF8304602F005F90546002414E021467A
:102FE000304602F00AF970B101F0D8FF0090D0F835
:102FF0000080684602F03CF8C84504D121463046BE
:1030000002F0C2F802E0641CAC42E8DB384610F083
:103010002BF805F00FF9BDE8FC8700002DE9F84317
:10302000984615460E46074603F0C2FB302001F0D5
:10303000B8FE040014D001F0B1FF0090C0E905769D
:1030400085840A4A4FF07E51C0F81C808162D2E923
:103050000012C0E9031206490160684602F008F850
:1030600005F0E8F82046BDE8F8830000D80A002003
:1030700099F6010801F0B4BEF8B50D4606004FF010
:10308000000411D003F094FB304601F087FF00905C
:10309000046AAC4203D0056280680FF0E5FF684621
:1030A00001F0E6FF05F0C6F82046F8BDF8B50D467C
:1030B00006004FF0000411D003F07AFB304601F017
:1030C0006DFF00904469AC4203D0456180680FF009
:1030D000CBFF684601F0CCFF05F0ACF82046F8BD08
:1030E0002DE9F8431D46DDF8208016460F46040002
:1030F00015D003F05DFB204601F050FF0090C0F8B2
:1031000060804765C0E91665684601F0B1FF20465A
:103110001BF07EFB20460FF0A7FF05F08BF8BDE803
:10312000F883F8B515460E4607004FF0000415D099
:1031300003F03EFB384601F031FF0090042D08D229
:1031400000EB8500446BB44203D0466338460FF071
:103150008BFF684601F08CFF05F06CF82046F8BD47
:10316000F8B50D4606004FF0000411D003F020FB27
:10317000304601F013FF0090446CAC4203D045642C
:1031800030460FF071FF684601F072FF05F052F80B
:103190002046F8BDF8B50D4606004FF0000411D0EA
:1031A00003F006FB304601F0F9FE0090846CAC425F
:1031B00003D0856430460FF057FF684601F058FF92
:1031C00005F038F82046F8BDF8B50D4606004FF07A
:1031D000000411D003F0ECFA304601F0DFFE00905D
:1031E000046DAC4203D00565304600F055F86846E2
:1031F00001F03EFF05F01EF82046F8BDF8B50D467B
:1032000006004FF0000413D003F0D2FA304601F06C
:10321000C5FE009090F86C40AC4204D080F86C5031
:1032200030460FF021FF684601F022FF05F002F85A
:103230002046F8BD2DE9F041044680681D4617463A
:103240000E46002826D0D4E9040290420ED1521E28
:103250006A4371193046FDF735FA20692A46401E47
:1032600005FB00603946FDF72DFA0EE005FB001363
:10327000401C20612A4639461846FDF723FAE168CA
:1032800019B12046BDE8F0410847A068BDE8F0410B
:1032900000F002B8BDE8F08110B58AB0044601F034
:1032A0007DFE09A904AACDE9002105AB089006AA74
:1032B00007A919F098FF08A801F0DAFE02A9204634
:1032C0000FF012FBBDF8080007990844ADF808009C
:1032D000BDF80A0006990844ADF80A00BDF80C00D4
:1032E0000599401AADF80C00BDF80E000499401A7B
:1032F000ADF80E0002A920460FF076FE0AB010BD10
:103300002DE9FC413548816941F080018161344CEF
:10331000206820F47F402060206840F460502060E6
:103320002F4D0835286840F440602860FDF70EFFF7
:103330002C4F0026C7F8AC610A2007F5D67721F09C
:10334000E5F8012038600A2021F0E0F8206820F438
:1033500070602060206840F400602060286820F4DD
:1033600080602860642021F0D1F80422694648F288
:10337000401000F04DF88DF8046069461AA0FCF783
:10338000DDFF1CA16846FDF763FA10B10120BDE81E
:10339000FC8102208DF8000048F2400401226946B9
:1033A000204600F04BF901226946E01D00F030F89C
:1033B0009DF80010602905D210A0FCF7BFFF012086
:1033C00000F016F90A2021F0A1F88DF80060012222
:1033D0006946204600F032F90020D8E7001002408C
:1033E000041C0140008023424354502049443A25A4
:1033F000730D0A00393134370000000044656661FE
:10340000756C74205665723A25640D0A0000000040
:103410002DE9F04115460F460446FDF759FF2820D7
:10342000FDF722FFFDF79CFF200AFDF71DFFFDF7CA
:1034300097FFE0B2FDF718FFFDF792FFFDF748FF99
:103440002920FDF711FFFDF78BFF00246E1E09E018
:10345000B44201D0012000E00020FDF7CBFE38553A
:10346000641CE4B2AC42F3D3BDE8F041FDF756BFB3
:103470002DE9F1475A4D00244FF00A0A287883B00D
:10348000401CC0B2B0FBFAF20AFB1201554EA04636
:10349000287009B10A2879D248F24E19012203A9ED
:1034A0004846FFF7B5FF9DF80C004FF000070106F6
:1034B00003D500F00F01062901D3800606D58DF84B
:1034C0000470012201A9484600F0B8F89DF80C00EC
:1034D00001075BD000F00F01062957D2FF2088407A
:1034E0008DF80400C04396F8209040F0C00086F8A4
:1034F0002000B089B082F08AF0834FF0010896F87E
:10350000201008FA04F0014225D037480422694609
:1035100030F81400FFF77CFF96F830009DF801109A
:10352000C0079DF8000000EB012106EB44000AD023
:10353000C1829DF802109DF8032001EB0221C1F524
:103540004871818107E081819DF802109DF8032078
:1035500001EB0221C182641CE4B2052CCFD32349C4
:10356000B2894FF001080B8830469A4203D8C28ACC
:1035700049888A4209D99DF80C1001F00F010129F0
:103580000BD9C1898181018BF1822F709DF80C00CC
:1035900000F08F0080280AD018E0818A8181C18BD9
:1035A000C18280218DF80C1086F82090EEE796F805
:1035B0002000010602D520F0800005E04FF6FF71E3
:1035C000B181F18200F0E00086F820002878F02830
:1035D00001D985F800A004B04046BDE8F08700009E
:1035E00029000020300000209C920208DC0E002000
:1035F00008B500218DF800108DF801000E489DF8E7
:103600000020435C491C1A44C9B28DF80020B82937
:10361000F5D3D0B2C043401C8DF80000B822064953
:1036200048F2470000F00AF80222694648F2FF001B
:1036300000F004F8002008BDE49102082DE9F041F3
:1036400015460E4604460027FDF742FE2820FDF7EA
:103650000BFEFDF785FE200AFDF706FEFDF780FE56
:10366000E0B2FDF701FEFDF77BFE002408E0305DCF
:10367000FDF7FAFDFDF774FE070003D1641CE4B208
:10368000AC42F4D3FDF74AFE3846BDE8F08130B5D0
:10369000002300E05B1CC25C002AFBD1012422460F
:1036A00003E004EB84046400521CB1FBF4F50A2D22
:1036B000F7D2002403440A209C540AE0B1FBF0F442
:1036C00000FB1414B1FBF0F19D18303405F8014CE7
:1036D000521E002AF2D130BD10B50022134600E080
:1036E000521C845C002CFBD102E08454521C5B1CF5
:1036F000CC5C002CF9D10021815410BD10B50BA178
:1037000017A000F0E3FC012000F0BEFA012002F057
:103710003FFE044616F08EFF4FF47A6000F0C0FEC4
:103720002046BDE8104002F033BE00004F757470B3
:10373000757420616E7469616C696173656420746D
:103740006578740A6F6E20646966666572656E746A
:10375000206261636B67726F756E64732E00000088
:10376000416E7469616C6961736564205465787435
:10377000000000002DE9F041002723A12CA000F05B
:10378000A5FC06F0DFFF064606F0E8FF0446C43855
:10379000032190FBF1F02B4D2B4AC83EE8601188C5
:1037A000491DB1EB660F03DB5188491D814200DAE8
:1037B000012726A002F069FF31460126B0EB610F18
:1037C00005DBE868283C4000C430A04200DA2E60E7
:1037D000224804F0DDF8044602F012FFE968401CBC
:1037E000884200DA6E60204604F0D2F8384615F0C0
:1037F00097FC01F07DF9032001F074FA11F0EAF969
:10380000BDE8F04101F06CB94578616D706C65738D
:1038100020666F72207468650A6175746F6D6F74CD
:1038200069766520696E647573747269650000005D
:103830004175746F6D6F746976652073616D706C1E
:103840006573000098010020284A05086D736563C0
:103850002F706963747572653A0A0000A85C0408E9
:1038600010B508A115A000F031FC00F029FC0020E3
:1038700000F00AFA11F094FABDE810404FF47A60B3
:1038800000F00EBE53686F77696E670A64696666FA
:103890006572656E74206269746D617073207769FA
:1038A00074680A616E6420776974686F7574206348
:1038B0006F6D7072657373696F6E00004269746D2D
:1038C0006170730010B5084C02E00A2002F0CAF8DB
:1038D000606A0128F9D0A06A01284FF0000001D1E8
:1038E000A062012010BD0000440100202DE9F04F2E
:1038F00097B0502102A8FCF783FF06F023FF834610
:1039000006F02CFF0546844984A000F0DFFB01206F
:1039100000F0BAF96FF07F48404604F00AF8824898
:1039200004F036F84FEA6B010C2280A002F0C0F9D7
:10393000814804F02DF82B22012180A002F0A4F987
:103940003F2201217EA002F09FF9532201217EA097
:1039500002F09AF9622201217DA002F095F971220C
:1039600001217DA002F090F9852201217CA002F0C6
:103970008BF9992201217CA002F086F97C4804F0A1
:1039800007F806F02FFE014602A8FFF780FE79A196
:1039900002A8FFF7A1FE092006F040FE04000BD0AC
:1039A00076A102A8FFF798FE214602A8FFF76FFE56
:1039B00073A102A8FFF790FEA5F119020C2102A83D
:1039C00002F062F900F070F906464FF4FA7941F21C
:1039D000707A94E000F068F9801B4FF4FA6190FB74
:1039E000F1F201FB1200491090FBF1F16FF07C0243
:1039F0004A4300EBC20048457EDCC0EB002090FB50
:103A0000F9F0C1EB0121484000EB002101EB00443B
:103A1000FF27CDE90074A8EB040534235A462B2177
:103A20003C2002F035FBCDE900753E235A46352196
:103A30003C2002F02DFB3F02CDE9007448235A469A
:103A40003F213C2002F024FBCDE9007552235A4669
:103A500049213C2002F01CFB3F02CDE900745C23AD
:103A60005A4653213C2002F013FBCDE90075662332
:103A70005A465D213C2002F00BFB4348CDE900048F
:103A800070235A4667213C2002F002FB4FF6FF7775
:103A9000CDE900757A235A4671213C2002F0F8FAEC
:103AA000CDE9007484235A467B213C2002F0F0FAD1
:103AB0003F02CDE900758E235A4685213C2002F055
:103AC000E7FACDE9007498235A468F213C2002F092
:103AD000DFFA4FF0FF17CDE90075A2235A4699216E
:103AE0003C2002F0D5FACDE90074AC235A46A3215C
:103AF0003C2002F0CDFA00E001E002F089FC00F089
:103B0000D3F8811B514504DAFFF7DCFE00283FF4AF
:103B100061AF17B0BDE8F08FD41D0708436F6C6F1D
:103B20007220626172000000A85C0408436F6C6F31
:103B300072206261727300006CE6060852656400D0
:103B4000477265656E000000426C756500000000FC
:103B5000477265790000000059656C6C6F77000052
:103B60004379616E000000004D6167656E7461000D
:103B70000CC4060820627070000000002C200000B9
:103B800020636F6C6F727300808080000349016056
:103B90000D2141600521018170470000C80100200E
:103BA00010B50DA115A000F091FA012000F06CF8FD
:103BB00001F072FC12F008FC4FF47A6000F070FC27
:103BC00001F052FD0021084601F00AFDBDE8104059
:103BD0000C4801F095BC00005354656D57696E2088
:103BE000737570706F7274730A736F667477617235
:103BF0006520637572736F72000000004375727305
:103C00006F72000038AE06082DE9F0471D4F0446DC
:103C10004FF404794946B8680EF002FE8046642CE1
:103C200005DD4946B8680EF0FBFD0FF047FE0021A8
:103C3000404608F088FF22460021404608F050FF29
:103C400002F02DFD064600F02FF8851B642C03DDE5
:103C50002946404608F077FF052001F003FFFFF7F3
:103C600031FEA54201D20028EDD0642C05DD494685
:103C7000B8680EF0D5FD0FF033F9BDE8F04702F05B
:103C8000C7BB000044010020014909690847000042
:103C90004401002003490989014201D001207047F5
:103CA000002070470CB8002010B5054C606A08B1C0
:103CB000206A10BD02F0F3FCE169401A10BD00005B
:103CC0004401002010B506A112A000F0FFF900F099
:103CD000F7F919F079FDBDE8104000F09FB9000038
:103CE0004F7074696D697A65642064726177696E7A
:103CF0006720726F7574696E650A666F72206472F0
:103D00006177696E672067726170682064617461B1
:103D10000000000044726177696E6720612067725D
:103D200061706800054810B5C0680FF0D9F80EF052
:103D300061FDBDE810400FF0D9BD00004401002036
:103D40002DE9F04188B0202238496846FCF7FCFC98
:103D500006F0F8FC054606F001FD04466E10002052
:103D6000FFF792FF022003F09DFE6FF07F48404670
:103D700003F0DFFD2E4803F00BFE44F31912314629
:103D80002CA001F095FF2D4803F002FE04EB440047
:103D900000EBC4008211314629A001F089FF3648AA
:103DA00003F0C7FD162104FB01F7BA11314633A019
:103DB00001F07EFF3D4803F0EBFD122000EBA7125F
:103DC00031463BA001F074FF404603F0B2FD1B48B2
:103DD00003F0DEFD02F066FC01466846FCF721FCBC
:103DE000C4EB441082113146684601F061FF262081
:103DF0006043821136480088281A4110354802F085
:103E00002BF8404603F095FD094803F0C1FDC4EBD3
:103E1000C40040F3D90231462FA001F049FF41F21E
:103E20008830FFF7F1FE08B0BDE8F0814CE10208F0
:103E3000A85C04085354656D57696E006CE606086B
:103E4000556E6976657273616C206772617068691E
:103E50006320736F6674776172650A666F7220659E
:103E60006D626564646564206170706C696361741F
:103E7000696F6E7300000000FF882200466F722099
:103E800053544D3332204D43552050726F64756347
:103E90007473202D20436F72746578204D33202D6C
:103EA00020436F72746578204D340000F4CA060810
:103EB000436F6D70696C6564204D617220313420F0
:103EC000323031372031333A30383A333500000060
:103ED000988A0408CC2305087777772E73742E63AD
:103EE0006F6D2F73746D33320000000010B506A1A2
:103EF00010A000F0EBF80120FFF7C6FE00F0E0F89C
:103F0000BDE8104012F0F8B853686F777320736FF4
:103F10006D65206665617475726573206F660A74DD
:103F20006865204C49535456455720776964676546
:103F3000740000004C697374766965772064656D60
:103F40006F0000008CB02849284803F057F80EF0A5
:103F500051FC27490FF0F3FAFDF752F800216846AB
:103F6000FDF7ECFD0024214668460594FDF79EFE12
:103F700001216846FDF7E2FD012168460594FDF741
:103F800095FE1C48FDF760FE1B4808F087FD1B48A6
:103F9000FDF716F81A4809F095F91A4809F078FB68
:103FA000194805F0E7FC022003F07CFD1748FFF7F5
:103FB000EDFD06F017FB0C4C2C3C102812DB042006
:103FC000FFF768FE70B100F0C9FFB0F5001F01DD1A
:103FD0000F4800E00F482061012000F047F81AF078
:103FE000B9FAFCE70C48F6E770010020613F0208CF
:103FF000553C020869B9010819CA0008890D000872
:1040000005D1000801D500086D9800080CB8002003
:10401000CD910108DD900108FD920108054810B519
:104020008169491C816111F083FBBDE8104000F0FB
:10403000C7B900004401002010B5FFF773FE07491F
:1040400007A000F043F801200FF088F81DF006FBF0
:10405000BDE8104000200FF081B8000024270708B9
:1040600052616469616C204D656E750000B101207C
:10407000014908707047000044010020044810B551
:1040800080680FF01BFCBDE8104002F0C1B90000D1
:104090004401002070B5094C0546E0680FF03FF878
:1040A000002809D04FF4B071E0680EF0B9FB294642
:1040B000BDE8704009F09FBC70BD000044010020C5
:1040C0000148C0680FF0FABB440100202DE9F0411F
:1040D0000C46064606F036FB054606F03FFB6D1023
:1040E0004710FFF71FFEFFF7C9FF02F091F901200B
:1040F000FFF7CAFD6FF07F4003F01BFC022003F0C6
:10410000D1FC104803F044FC3C222946304601F023
:10411000CFFD0D4803F03CFC02F072FA3A1A294632
:1041200020460A3201F0C4FD002200E0521CA05CCF
:104130000028FBD1BDE8F04102EB8200000100F055
:10414000AFB90000A85C04086CE606082DE9F04F42
:1041500095B028216846FCF753FB06F0F3FA0646B3
:1041600006F0FCFA054606F0E1FA074601F094F97C
:10417000AF420BDD0020ADF84800ADF84A00ADF8C5
:104180004C60ADF84E5012A803F0C7FB51A15DA0E2
:10419000FFF79CFFDFF87891002759F8270001F01E
:1041A000F3FA0AA941F827007F1C082FF5DBFFF777
:1041B0007BFD002714904EE007F007010AA850F895
:1041C000210003F0C1FBFCF77DF890FBF6F106FB44
:1041D000110006EBD671A0EB61000FFA80F8FCF736
:1041E00071F890FBF5F105FB110005EBD571A0EB23
:1041F00061000FFA80FAFCF765F890FBF6F106FB18
:104200001101143101EB080002B262F30F04914670
:10421000FCF758F890FBF5F105FB11001430504401
:1042200003B2514663F31F449B464A46404602F0A0
:1042300009F9B14502DB701E60F30F04AB4502DBE8
:10424000681E60F31F44201402D5002060F31F4451
:1042500002F0DEF87F1CFFF727FD1499411A41F2A6
:104260008830814203DAFFF72DFB0028A4D0FFF746
:10427000D5FE19F016F80446002003F04EFB00208E
:10428000FFF702FD6FF07F4003F053FB022003F0C5
:1042900009FC204803F07CFB052211461E4801F072
:1042A000DBFD1EA16846FFF717FA21466846FFF7B7
:1042B000EEF902F0B3F9281A42107110684601F0C5
:1042C000F7FC4FF47A60FFF79FFC01F0CDF915B0D1
:1042D000BDE8F08F4D756C7469206C617965722052
:1042E000636C697070696E670A486967686C7920E9
:1042F0006F7074696D697A6564206472697665723D
:104300007300000048696768207370656564000089
:104310003C4A0508A85C0408284A050850697865E5
:104320006C732F7365633A200000000010B505A17F
:104330000FA0FFF7CBFEFFF7F5FCBDE810401EF025
:1043400083BD00005573657320616C7068612062E5
:104350006C656E64696E670A666F72207472616E56
:1043600073706172656E637920656666656374005B
:104370005472616E73706172656E74206469616CF1
:104380006F67000010B5094909A0FFF79FFEFFF70E
:1043900097FE0020FFF778FC01F07EF811F0E4FEB4
:1043A00001F062F9BDE81040FFF738BEF8280708B1
:1043B00054726565766965772064656D6F000000ED
:1043C00030B585B014216846FCF71AFA134C4FF447
:1043D000B071A0680EF024FA054611A16846FFF7F7
:1043E0007BF961696846491CFFF751F90EA16846DF
:1043F000FFF772F96846A169FFF749F90BA1684612
:10440000FFF76AF90A4841686846491EFFF73FF915
:104410006946284609F0EFFA05B030BD4401002096
:1044200044656D6F200000002E0000002F0000008A
:104430000CB8002010B506F091F9044606F076F9A4
:10444000B0EB440F0EDB08A111A0FFF73FFE0120E7
:10445000FFF71AFC11F0F2FE0021BDE810400846FB
:1044600003F0E2BA10BD000044656D6F6E737472A4
:104470006174657320686F7720746F207573650AA7
:104480007669727475616C2073637265656E730012
:104490005653637265656E2064656D6F00000000A1
:1044A00010B5FFF7B1FBBDE81040FFF7B7BD000046
:1044B0002DE9F04FDFF828B191B04FF0FF35DBF870
:1044C0000030B3F922100691DE69B3F924A0F46933
:1044D000A189814206D8E289824203D3471AD4F8DF
:1044E000008012E0D4E90181002970D00A8882425C
:1044F0006DD84D8885426AD3801A82B2486800EB35
:104500008200B0F90070B0F90250781C5FD0307EA4
:10451000A27C014600FB02F9207CCDE90710B3F92B
:104520002A60304606F034FDC0B20E90DBF8001071
:1045300007FB0980A37C8A6B0127CDE90402CDE942
:104540000273C869089AC17E807ECDE90001DDE969
:104550000603514605F008FD681C18D046F002001D
:1045600006F016FDDBF80000A37C05FB0981826BD9
:10457000CDE90273CDE90412C069089AC17E807E3C
:10458000CDE90001DDE90603514605F0EDFCDBF85D
:1045900000005D46C069417E007E814214D9022E32
:1045A00012D086F0040006F0F3FC2868C069027E91
:1045B000C37E857E02FB03A1437E089A069853447E
:1045C00002FB050205F0E2FF0E9806F0E1FCDBF8C5
:1045D0000000627C418C1144418411B0BDE8F08F31
:1045E0002808002004480068C069C06909B1027C3D
:1045F0000A60407C704700002808002002200880E4
:104600007047C06982898A4202D8C2898A4210D220
:10461000806880B102888A420DD843888B420AD3D1
:10462000406800EB8100A0EB8200B0F90000002898
:1046300001DB01207047002070470000F0B52C4DD1
:10464000044687B028682146B0F92A60C069C0696D
:1046500000F0BEF9002848D041680088201A00EB1D
:10466000400001EB80042078C01C8708304606F02B
:104670008FFC06461F48D0F800C0BCF1000F1AD0CE
:104680000021A068CDE904010222012001A90090C7
:1046900081E88500286894F90320DCF80070B0F9FF
:1046A0002410B0F92200114494F9022063781044D8
:1046B0002278B84711E0A068CDE90070286894F925
:1046C00003206378B0F92410B0F92200114494F962
:1046D00002201044227800F00DFB304606F058FC12
:1046E00028682279418C1144418407B0F0BD000054
:1046F0002808002060080020F0B52C4D044687B043
:1047000028682146B0F92A60C069C06900F060F9E4
:10471000002848D041680088201A00EB400001EBD7
:1047200080042078401C4708304606F031FC0646DD
:104730001F48D0F800C0BCF1000F1AD00021A068BB
:10474000CDE904010422012001A9009081E885003F
:10475000286894F90320DCF80070B0F92410B0F94F
:104760002200114494F90220637810442278B8475B
:1047700011E0A068CDE90070286894F903206378FF
:10478000B0F92410B0F92200114494F90220104429
:10479000227800F0C1FA304606F0FAFB2868227948
:1047A000418C1144418407B0F0BD0000280800206E
:1047B000600800202DE9F0432F4C034687B02068A5
:1047C0001946B0F92A80C069C06900F038F900289C
:1047D0004ED041680088181A01EBC0054046AE78FB
:1047E00006F0D6FB814620686A680123816BCDE91B
:1047F0000236CDE90421C169CB7E8A7ECDE9002352
:104800000B7EB0F924102A78B0F9220005F0ACFB39
:104810002068C069477E067EB7421DD9C07E4743E7
:104820004643B8F1020F17D001F0D3FE804601F0E5
:1048300099FE03F07EF821682A78CB69B1F922004D
:10484000B1F92410DB7E02FB0302CB19314405F0E1
:104850009DFE404603F06DF8484606F099FB20683F
:104860006A78C369B0F922109B7E02FB0311418470
:1048700007B0BDE8F08300002808002030B50F4CD9
:1048800005460B4620682946C069C06900F0A0F8BB
:10489000002812D0416800882468281A00EB4002E2
:1048A0000420E46900EB8200085CA47E6043002BD6
:1048B00003D011F822106143196030BD2808002090
:1048C00003460C4810B500680C461946C069C0691B
:1048D00000F07EF858B141680088181A00EB4000DB
:1048E00001EB800007C884E80700002010BD01200C
:1048F00010BD00002808002001200880704700B586
:10490000C06900F065F8002800D0012000BD00005B
:104910002DE9F3411B4E0F46002530682C46C06937
:10492000417EC07E01FB00F81CE0684603F05AFBA4
:10493000054630682946C069C06900F049F888B169
:1049400041680088281A00EB400001EB800090F9D4
:104950000210007908443168C969897E48430028FB
:1049600000DD04447F1EE0D51DB1284604F03AFB6B
:1049700004444146204610F0E3FE0349012008703C
:10498000BDE8FC8128080020A00800202DE9F341A3
:104990000D4D0E4F0E462868B0F92A40A0070AD1E7
:1049A0007A680098904706E0684603F01BFB296888
:1049B000C96909688847761EF6D5002038702868CE
:1049C0004485BDE8FC81000028080020A0080020E4
:1049D00006E002888A4202D842888A4202D280686F
:1049E0000028F6D17047000030B50E4C05460B4646
:1049F00020682946C069C06900F021F8002810D05D
:104A00004168008824682A1A0120E46900EBC2008A
:104A1000085CA47E6043002B03D011F83210614380
:104A2000196030BD2808002001200880704700B5BB
:104A3000C06900F004F8002800D0012000BD06E0A5
:104A400002888A4202D842888A4202D280680028BC
:104A5000F6D1704770B500250F4C19E020690F4959
:104A6000C5EB051600EBC60070220968001DFBF7B8
:104A70006BFE2069002140F8361000EBC60000F103
:104A80000C018161011D0A1DC0E90F126D1C4164FA
:104A9000A0688542E2DB70BDF40D002028080020EC
:104AA00070B50E490C480860084604F0C9FB0B4C71
:104AB000143CA068C0EB0010C500284600F0D6F9F1
:104AC0002A460021206104F0A6FC4FF0FF30206050
:104AD000BDE8704003F000BC39F00108080E00206A
:104AE00002490020096881F8690070472808002001
:104AF00002490120096881F86900704728080020F0
:104B000010B517F099FB0448016A04480068416633
:104B100000F10801416110BDD807002028080020DD
:104B20007CB514460D46064601F042FE0FF01CF817
:104B300006440FF027F805441648006890F86910FD
:104B400021B990F868104E434D434C43301B00F0A0
:104B50005DF8ADF80000301900F058F8ADF8040029
:104B6000281B00F053F8ADF80200281900F04EF8A9
:104B7000ADF8060068460FF05DF806E022462946CB
:104B80003046FDF72FFF0EF0CFFF0028F6D103F0DF
:104B900051FB7CBD280800202DE9FC471C4615462A
:104BA0008846814601F004FE0EF0DEFF05440EF05B
:104BB000E9FF044400200FF03DF8F8B1114E124F08
:104BC00012213068407C57F820000190C068426A8A
:104BD00001A890475FEA000C06D02B4642464946A2
:104BE00000940198E04705E023462A46414648469E
:104BF00016F03EFF0EF098FF0028E1D103F01AFBFB
:104C0000BDE8FC8728080020400800200449096806
:104C100091F8681009B190FBF1F000B27047000004
:104C2000280800202DE9F041224C05460E46206858
:104C3000002788B920480068E06110B905F073FDCD
:104C4000E06100F013F9206080B31A491B48243159
:104C50000860084604F0F4FA19480068854200DA52
:104C60000546E169731B4A1E2046934201DD6E181A
:104C7000761EAE4201DA2E460127124C2268516E92
:104C80004B68836301620B490F4B34310B605166F3
:104C900002C880E8620010F037FD10F055F90548B1
:104CA00021682C3048613846BDE8F081FFE70127D4
:104CB000D2E70000D807002054080020FDEE0108CC
:104CC0005808002028080020799F0108044A12682B
:104CD00092F8682090FBF2F091FBF2F1FFF7A2BF8F
:104CE000280800200249096881F8680010F02CB9F2
:104CF000280800207CB5074EDDE906543668367C6E
:104D0000CDE90054B60702D414F0B0FB7CBD14F01A
:104D1000FFFB7CBD280800207CB5084EDDE9065469
:104D20003668367CCDE90054B60702D414F052FC44
:104D30007CBD034C2468A0477CBD000028080020EF
:104D4000640D0020F8B50C0005460FD001F030FDD1
:104D5000204600F017F8060010D000F01FF9224698
:104D600000902DB12946FBF768FC04E00020F8BD57
:104D7000002104F050FB684600F07AF903F05AFA7B
:104D80003046F8BD10B5040009D001F011FD2046F1
:104D90000FF0C2FE044603F04DFA204610BD00207D
:104DA00010BD38B5054601F003FD2846FFF7EAFFC0
:104DB000040009D000F0F2F82A460021009004F027
:104DC0002AFB684600F054F903F034FA204638BD57
:104DD000024A106021F003005060704788B900203B
:104DE00010B5040016D001F0E3FC0B48006B10F87E
:104DF000341059B1022909D2042101EBC4014158F0
:104E000048680FF029FD20461CF014FCBDE8104056
:104E100003F010BA10BD0000CCB80020002805D067
:104E2000034A916B016001B14860906370470000D4
:104E3000CCB8002010B5044601F0BAFC2068FFF79A
:104E4000CFFF00202060BDE8104003F0F3B9000060
:104E500070B50D460646002405E000BF06EB840051
:104E6000FFF7E8FF641CAC42F8DB70BD2DE9F041B0
:104E7000044618F0EFFF2848E41C24F00305C16B3A
:104E80002D1DA94200D90D46846B13E054F8042C63
:104E9000AA420ED184B1216809B162684A60616892
:104EA00009B122680A60826BA24231D12168816314
:104EB0002EE02468002CE9D18046416B80680F18F1
:104EC00057F8040C3E1A306838B100201CF014FD6D
:104ED00057F8040C3E1A3068D0B97068A84217DB46
:104EE0003044441B3046241D1CF0BEFCD8F808108A
:104EF000491BC8F80810D8F810102944C8F8101039
:104F00007068401B02D031460FF0A6FC44F8045CE8
:104F10002046BDE8F0810000CCB8002010B5002488
:104F200018F098FF0C490F2001EBC002126C1AB167
:104F300001EBC000006C08E0401EF5D508E04168B8
:104F4000A14200D90C46806810B180680028F6D1D3
:104F5000A4F10C0010BD0000CCB80020034800688C
:104F60000C38002800DC002070470000CCB800207E
:104F7000002138B10449042202EBC000096B085833
:104F800041680C3908467047CCB800200248416996
:104F9000491C416170470000CCB8002005498A696E
:104FA000521C8A61096B01EBC0010A78521C0A701D
:104FB00000F076B8CCB800207CB506460C46084612
:104FC000FFF7E0FE050020D0FEB13046FFF7D0FF2E
:104FD000A04200DA044601F0EBFB2846FFF7DEFFB3
:104FE00000903046FFF7DAFF014601902246009814
:104FF000FBF723FB684600F03BF801A800F038F807
:105000003046FFF7EDFE03F015F928467CBD0000A1
:1050100010B501F0CDFBFFF781FF64220849B0F520
:10502000800F04D990FBF2F4C869444303E0C969D6
:105030004143B1FBF2F403F0FDF8204610BD00003F
:10504000CCB800200549102805D94A68B0EB520FAA
:1050500002D3500800E010208860704788B9002013
:1050600002484169491E416170470000CCB80020E8
:105070000A4902680B6B52F8082C03EBC202137842
:10508000022B03D38B690BB15B1E8B611178491E18
:10509000117000210160084670470000CCB8002064
:1050A000002806D00349042202EBC000096B08580F
:1050B00008307047CCB800202DE9FC414FF00006C5
:1050C0000B465FEA000834462BD032B11146184631
:1050D000FFF738FE060000D101244046FFF75EFFCF
:1050E0000090078845686846FFF7C2FFCCB9B90051
:1050F0002846091DFFF760FF050015D0FFF74EFF9A
:10510000019040F8276001A8FFF7B2FF4046FFF783
:1051100045FF009045600188491C01806846FFF703
:10512000A7FF2046BDE8FC813046FFF759FE012469
:10513000F7E70820FFF735BE7CB5050023D0FFF761
:105140002DFF00904068C0B1FFF728FF00240190B8
:1051500005E0019800EB8400FFF76CFE641C0098EA
:105160000088A042F5DC01A8FFF782FF0098001D2F
:10517000FFF760FE0099002008806846FFF778FF7F
:105180002846FFF72DFE7CBD7CB50C46FFF706FFD9
:1051900000900188A14220D94568F5B101F008FBD3
:1051A0002846FFF7FBFE019000EB8400FFF742FE6C
:1051B00000990888401E80B20880401E019905E0D1
:1051C00001EB8402526841F82420641C8442F7DD1C
:1051D00001A8FFF74DFF03F02DF86846FFF748FFE1
:1051E0007CBD38B5002430B1FFF7D8FE00900488AC
:1051F0006846FFF73DFF204638BD38B50D46002410
:1052000048B1FFF7CBFE2946009000F0B4F8044601
:105210006846FFF72DFF204638BD38B50D460024FF
:1052200048B1FFF7BBFE2946009000F0B6F80446EF
:105230006846FFF71DFF204638BD2DE9FE430C46AA
:105240005FEA00083DD0FFF7A9FE00900688476896
:105250006846FFF70DFFB44233D2B000001DFFF7E0
:10526000A0FD05002DD0FFF799FE01903846FFF70D
:1052700095FE01460290A2000198FBF765FA301BEB
:105280008200029800EB8401019800EB8400001D6D
:10529000FBF75AFA01A8FFF7EBFE02A8FFF7E8FEBA
:1052A0003846FFF79DFD4046FFF778FE00904560C9
:1052B0000188491C01806846FFF7DAFE0120BDE83D
:1052C000FE830020FBE72DE9F04115460E46074618
:1052D0000024FFF7B2FF30B12B460022314638469A
:1052E00000F004F804462046BDE8F0812DE9FE43B5
:1052F000984691460D460024D0B3FFF74FFE01902B
:105300000788466801A8FFF7B3FEBD4230D27EB3DE
:105310003046FFF743FE009050F825406846FFF7FF
:10532000A7FE24B12046FFF723FE404511D040469A
:10533000FFF737FD04000CD03046FFF72FFE00EBDF
:10534000850500902846FFF775FD68462C60FFF73D
:105350008FFEB9F1000F0BD054B12046FFF71EFEAF
:10536000424649460290FBF768F902A8FFF780FE23
:105370002046BDE8FE8338B50D4601880024A942C9
:1053800009D9406838B1FFF709FE009050F8254070
:105390006846FFF76DFE204638BD10B50024FFF7C4
:1053A000EAFF10B1FFF7FAFD0446204610BD70B5C4
:1053B0000C46054601F044FAC1B223462846BDE832
:1053C00070400022AFF30080F0B52D271C68B0F1CB
:1053D000004F08D0002600280DDA651C1D602770DC
:1053E0004042012408E0651C01261D606FF000406A
:1053F0002770491E01E00024091BC9B22AB3491EC7
:10540000C9B222E00C46491EC9B2944205D1124CE1
:1054100027781C68651C1D602770104C54F82150BB
:1054200090FBF5F4E4B20A2C11D804FB150011B975
:105430000EB1641CE4B20A2C02D10124491CC9B289
:105440001D686F1C30341F602C700029DAD1196878
:1054500000200870F0BD00001C080020100D070897
:1054600010B5002807DD0A682B24531C0B6014704C
:10547000096800220A7010BD10B5044601F098F9C1
:10548000044904EB840001EB8000447902F0D2FE71
:10549000204610BD04BA002002480068407C00F09D
:1054A00003B800002808002070B5054601F080F917
:1054B000124805EB850100EB810400266671236923
:1054C00053B150F82100E26881684068521AA1681F
:1054D000091A184602F01DF9284601F087F818B19C
:1054E000002102F085FA04E0207918B1206902F069
:1054F000BEF82671BDE8704002F09CBE04BA0020E0
:1055000002490968497C00F003B80000280800201F
:105510002DE9FC5F8946044601F04AF9484601F04E
:1055200065F82C4E09EB8907824656F82700019052
:1055300029484FF00108016841B92749C0F80080A7
:10554000091D26480860084603F07AFE214A09EB47
:1055500089015FEA0A0002EB81051BD002F07EF9A7
:1055600083464FF07F4002F0CDF900F0C1F80022F1
:105570001146206800F070FC20684288018850467F
:1055800002F026FA46F8274085F80580584602F0D2
:1055900065F917E046F8274085F8058028694646F2
:1055A00018B102F03FF80020286174B10096E86855
:1055B000A1684B46421AA8686168411A206802F047
:1055C000DDF8286148461DF0E9F802F033FE019845
:1055D000BDE8FC9F04BA00206808002071EF0108B4
:1055E000024A1268527C00F003B80000280800202C
:1055F00070B514460D46064601F0DAF8204600F074
:10560000F5FF0300174804EB840109D050F821008E
:1056100041688068711A2A1A184602F0C9F91CE01C
:1056200000EB8104A268B24201D0012200E0002216
:10563000E368AB4201D0012300E000231A430CD001
:10564000236943B150F82100816840686A1A311A11
:10565000184602F05EF8C4E90265BDE8704002F049
:10566000E9BD000004BA002002480068407C00F058
:1056700003B800002808002010B5044601F098F88F
:105680000A4804EB840100EB810301225A7150F8AF
:10569000210030B120461DF081F8BDE8104002F035
:1056A000C9BD21460248FFF733FFF6E704BA0020E0
:1056B00038AE060810B5C2B2CBB2D21A00D55242EB
:1056C00093B25B43C0F30722C1F30724121B00D53A
:1056D0005242000C92B2A0EB114002FB023200B227
:1056E000002801DA404200B280B200FB002010BD69
:1056F00010B50021084601F015F843F6FF7250423C
:10570000BDE8104013460146AFF300802DE9FC418F
:105710001C4615460E46074601F04AF8042005F0DF
:1057200037FC80461248C068C16C006D0F440644C7
:105730000D440444ADF80070ADF80450ADF80260BB
:10574000ADF8064068460EF075FA07E023462A4693
:105750003146384604F01AFF0EF0E6F90028F5D17C
:10576000404605F015FC02F065FDBDE8FC81000037
:105770001C080020B0F90630B0F90420B0F902107E
:10578000B0F90000FFF7C2BF10B5044601F010F8F1
:10579000204604F041FB044602F04CFD204610BDBB
:1057A0002DE9F8431C00DDE9089816460F4605462A
:1057B00002D10DF01FF8044600962E6843464A4673
:1057C00021462846B047060039D00DF008F881463A
:1057D000698A30460CF06DFB30460EF06FF8484693
:1057E0000EF06CF84FF000080CE000BFCDF8008020
:1057F00055F81CCF00231A4649462846E04700B317
:105800000EF05CF87F1E002FF0DC1D2148460DF0E5
:1058100076FE601C12D000F0CBFF0DF02FF830B1F7
:10582000FFF73EFC8469B44201D02000F8D1B442B5
:1058300002D030460DF074FF02F0FCFC3046BDE8AB
:10584000F88330460CF0BEFE0020F8E72DE9F04169
:105850001C4616460D460746022B02DB0020BDE81B
:10586000F0811C20FFF702FB0028F8D00DB1056184
:105870000AE0094A52F8241009B905E011460A68FD
:10588000002AFBD1096901618461868200210160DF
:105890004160C0E90217E2E74008002070B51D46EC
:1058A000FFF7D4FF040009D000F00EF8E0680068AC
:1058B00020B90348006800EB85008465204670BD70
:1058C00028080020FFF7AABA70B590B38269022AAF
:1058D00030DA1E4C54F8221019B944F8220032E094
:1058E00019464B68002BFBD106E0CB68C5681B68E6
:1058F0002D68AB4203DD09680029F6D11AE0C1B179
:10590000CB68C6681B683668B3420CD1838A012B0A
:1059100005D008E01946DB681B68AB4203DB0B6867
:10592000002BF7D129B14B6833B118604A68426047
:1059300004E0FFE7012070BD44F82200486088427F
:1059400000D100210160002070BD0000400800204F
:1059500010B503E00468FFF7B7FF20460028F9D12F
:1059600010BD1DF0E1BB00002DE9F0410026DFF87D
:1059700034800D4F354600BF58F8254009E0E068F7
:105980000068385C20B120461DF0CEFB266026461C
:105990002468002CF3D16D1C022DEDDB3046BDE8F0
:1059A000F08100004008002064AF0608022801DBF7
:1059B00000207047054A52F8200004E0C2681268CF
:1059C0008A42F6D000680028F8D1704740080020CD
:1059D000022801DB00207047054951F8200004E04F
:1059E000C16809680029F6D000680028F8D170471E
:1059F000400800202DE9F8431D461646884604005D
:105A00000CD0FFF7CBFA0090006807686846FFF7F4
:105A10002FFB2B46324641462046B847BDE8F88367
:105A200038B504004FF000000AD02046FFF7B6FA60
:105A30000090006845686846FFF71AFB2046A847B3
:105A400038BD38B504004FF000000AD02046FFF7FB
:105A5000A5FA0090006885686846FFF709FB2046B4
:105A6000A84738BD2DE9F041044602F01EFC061996
:105A70001EE000BF00F0CCFC052F00DD052700F084
:105A800097FE11480568FFF781FA2C0017D000BF78
:105A900002F0D0FB641EFBD1384602F0FFFB1DB1C3
:105AA00000F086FE6D1EFBD1FFF7DAFA02F0C2FBB2
:105AB00002F0FBFB371A002FDCDCBDE8F081384632
:105AC00002F0ECFBF0E70000000E002070B5144679
:105AD0000D46064600F06CFE0548016830464D84D0
