:020000040800F2
:10000000905B0020790200082B4000085F0900087F
:1000100029400008C5070008C1440008000000008E
:10002000000000000000000000000000E1010008E6
:10003000C707000800000000250200082942000848
:10004000930200089302000893020008930200083C
:10005000930200089302000893020008930200082C
:10006000930200089302000893020008930200081C
:10007000930200089302000893020008930200080C
:1000800093020008930200089302000893020008FC
:1000900093020008930200089302000893020008EC
:1000A00093020008930200089302000893020008DC
:1000B000930200088D420008930200089302000892
:1000C00093020008930200089302000893020008BC
:1000D00093020008254300089302000893020008D9
:1000E000930200089302000893020008930200089C
:1000F000930200089302000893020008930200088C
:100100009302000893020008C94200089302000805
:10011000930200089302000893020008930200086B
:10012000930200089302000893020008930200085B
:1001300000F002F800F045F80AA090E8000C8244B4
:100140008344AAF10107DA4501D100F03AF8AFF291
:10015000090EBAE80F0013F0010F18BFFB1A43F0A5
:1001600001031847E484000004850000103A24BF0E
:1001700078C878C1FAD8520724BF30C830C144BF0C
:1001800004680C607047000000230024002500264E
:10019000103A28BF78C1FBD8520728BF30C148BFEA
:1001A0000B607047642900F0BF80782900F0F88068
:1001B000732900F03F82002070471FB51FBD10B5A6
:1001C00010BD00F0CCFA1146FFF7F7FF04F0E8FD90
:1001D00000F0EAFA03B4FFF7F2FF03BC04F071F990
:1001E000224B19680868B0E8F00F80F30988BFF364
:1001F0006F8F4FF0000080F311884EF00D0E7047A6
:100200000000000006480068006880F3088862B6B5
:1002100061B6BFF34F8FBFF36F8F00DF00BF00BF2A
:1002200008ED00E0EFF30980BFF36F8F0F4B1A6802
:1002300020E9F00F106008B54FF0500080F31188EE
:10024000BFF34F8FBFF36F8F05F0E0FE4FF000005C
:1002500080F31188BDE8084019680868B0E8F00F1D
:1002600080F30988BFF36F8F704700BF4400002000
:10027000EFF30580704700000948804709480047B0
:10028000FEE7FEE7FEE7FEE7FEE7FEE7FEE7FEE746
:10029000FEE7FEE704480549054A064B70470000A3
:1002A0003D4200083101000890550020905B00207D
:1002B0009057002090570020704700000FB4044969
:1002C00010B503AA029800F0B9F910BC5DF814FB50
:1002D0002C00002070B50C460546012A05D0287870
:1002E000800600D5EA69002302E0012305E05B1CDB
:1002F000934202D2E05C0028F9D1A869E618C01A3E
:10030000A861286A184428622846AFF3008004E0F8
:10031000D5E9012114F8010B9047B442F8D32846DF
:10032000AFF3008070BD00002DE9F04106460024C7
:1003300010687529314616A510D0AFF3008000284B
:1003400002DA404213A507E031688A0701D512A5F9
:1003500002E0490704D511A5012401E0AFF30080B4
:1003600000210A2206F1240709E0B0FBF2FCB0FBF1
:10037000F2F302FB1C00303078541846491C002868
:10038000F3D123462A463046BDE8F04100F0CFB80D
:10039000000000002D0000002B00000020000000E5
:1003A00070B504460D4621461068AFF300802188E1
:1003B000090502D50F4A7A4402E00E4A7A440E3209
:1003C000002104F1240305E000F00F060009965D0A
:1003D0005E54491C0028F7D120780023000704D57B
:1003E000702D02D009B1022311322046BDE87040C1
:1003F00000F09DB8528200002DE9F0410F460446FE
:100400000020DFF88480F84420622046E1688847B5
:1004100090B3252806D0D4E901219047206A401CDA
:100420002062F2E700252046E1688847202806463A
:1004300008DB312E06D208EB060010F8200C08B1BC
:100440000543F0E7A80701D525F00405A6B1A6F1FC
:100450004100192802D8203645F400653A46314655
:1004600020462560FFF79EFE48B1012805D0FF1DFC
:1004700027F007070837C8E703E03F1DC5E7304608
:10048000C9E7206ABDE8F0812A820000032A40F211
:10049000308010F0030C00F0158011F8013BBCF126
:1004A000020F624498BF11F801CB00F8013B38BF3E
:1004B00011F8013BA2F1040298BF00F801CB38BF4C
:1004C00000F8013B11F0030300F0CA80083AC0F0C5
:1004D000088051F8043B083A51F804CBA0E8081012
:1004E000F5E7121D5CBF51F8043B40F8043BAFF345
:1004F0000080D20724BF11F8013B11F801CB48BF9F
:1005000011F8012B24BF00F8013B00F801CB48BFD4
:1005100000F8012B704702F0FF0343EA032242EA8E
:10052000024200F0D1B870477047704770472DE91C
:10053000F0470D4699469246044600F124080168AA
:10054000880604D5E06921F01001216000E0012057
:10055000A84201DD471B00E00027A1697A1902EBE0
:100560000900081AA0612078C00602D42046AFF323
:100570000080002608E0D4E901211AF8060090471F
:10058000206A401C761C20624E45F4DB2078C006B1
:100590000AD52046AFF3008006E0D4E901213020DF
:1005A0009047206A401C2062381EA7F10107F4DC46
:1005B00007E0D4E9012118F805009047206A401CA3
:1005C0002062281EA5F10105F3DC2046AFF3008070
:1005D0002078000602D50220BDE8F0870120FBE765
:1005E00001694A1C02610878704700B58FB0CDE9F7
:1005F00001310021059105497944CDE903101146E7
:100600006846FFF7F9FE0FB000BD0000E5FFFFFFF1
:1006100010B5436913B1AFF3008001E0FFF75AFE54
:10062000012010BD127800F124010A7000224A70E6
:100630000122EDE711684FF0FF32E9E7074B70B593
:100640000D467B44FFF7D1FF0446284600F05CF8D6
:1006500010B14FF0FF3070BD204670BD333F000039
:1006600010B5203AC0F00B80B1E81850203AA0E84D
:100670001850B1E81850A0E81850BFF4F5AF5FEA81
:10068000027C24BFB1E81850A0E8185044BF18C934
:1006900018C0BDE810405FEA827C24BF51F8043BDB
:1006A00040F8043B08BF7047D20728BF31F8023B2F
:1006B00048BF11F8012B28BF20F8023B48BF00F8C3
:1006C000012B70474FF000020429C0F0128010F097
:1006D000030C00F01F80CCF1040CBCF1020F18BF1A
:1006E00000F8012BA8BF20F8022BA1EB0C0100F0B1
:1006F00011B85FEAC17C24BF00F8012B00F8012B80
:1007000048BF00F8012B7047007B00F08000704765
:100710004FF0000200B5134694469646203922BF9A
:10072000A0E80C50A0E80C50B1F12001BFF4F7AFE5
:10073000090728BFA0E80C5048BF0CC05DF804EBC7
:10074000890028BF40F8042B08BF704748BF20F835
:10075000022B11F0804F18BF00F8012B704775462F
:1007600000F02CF8AE4605006946534620F007001D
:10077000854618B020B5FFF78DFDBDE820404FF04D
:1007800000064FF000074FF000084FF0000B21F07B
:100790000701AC46ACE8C009ACE8C009ACE8C00948
:1007A000ACE8C0098D46704710B50446AFF3008031
:1007B0002046BDE81040FFF70DBD0000004870471F
:1007C0002C550020FEE770478000A0F1C0400029B2
:1007D000016802D041F0010101E0024A11400160CC
:1007E00070470000FEFF0F0010B5D0E90112114361
:1007F000D0E903231A43114342691143826911432B
:10080000C2691143026A1143426A1143826A114369
:10081000C26A1143026B114302689200A2F1C04206
:1008200011608168082907D101688900A1F1C041E0
:100830000A6842F040020A60416BD1E9002342EAB3
:1008400003128B688C891B0243EA04431A430B8A08
:1008500042EA03520B7D896942EA03620A43016856
:100860008900A1F1C0414A60C16AB1F5804F08D04A
:1008700000686FF070418000A0F1C040C0F8041122
:1008800010BD816BD1E9002342EA03128B680C8A08
:100890001B0243EA04531A430B7D896942EA03624F
:1008A00000680A438000A0F1C040C0F8042110BDD8
:1008B000F0B5CC78002204F00F03E40601D58C7863
:1008C00023430C784FF00F0C14F0FF0F4FF0010E84
:1008D0001BD005680E880EFA02F42640A64210D1FD
:1008E00096000CFA06F725EA070703FA06F5CE7814
:1008F0003D43282E02D0482E02D002E0446100E0A1
:100900000461521C082AE5D305600A88FF2A1CD915
:100910004468002202F108060EFA06F50E882E4001
:10092000AE420ED196000CFA06F7BC4303FA06F766
:10093000CE783C43282E00D14561CE78482E00D198
:100940000561521C082AE5D34460F0BD0246002030
:1009500092680A4200D00120704701617047FEE7AB
:1009600008B50121442003F0A9FB1C20ADF80000CC
:1009700048208DF8030069460648FFF799FF0120DB
:10098000ADF8000028208DF8030069460248FFF703
:100990008FFF08BD00180140000801402DE9F0411B
:1009A0002E4C2F4F2F4D012608B1267001E02078E4
:1009B000A0B110212846FFF7C9FFB0B10821284691
:1009C000FFF7C4FF88B104212846FFF7BFFF60B1DD
:1009D00001213846FFF7BAFF012806D0102128462A
:1009E000FFF7B4FF012824D035E00A2003F08EFD84
:1009F0000020207010212846FFF7A8FF80B10821B1
:100A00002846FFF7A3FF70B104212846FFF79EFF99
:100A100058B101213846FFF799FF012807D01AE0A5
:100A20000120BDE8F0810220FBE70320F9E7042064
:100A3000F7E708212846FFF789FF01280BD1042199
:100A40002846FFF783FF012805D101213846FFF72B
:100A50007DFF00B926700020E3E70000240000209D
:100A600000080140001801402DE9F043174F0646E9
:100A7000002438887D884543B888A0F5D0410439E2
:100A800002D1B879012807D00021084603F05EF9A9
:100A900003F090FA0E4815E00020B8714FF02A09D3
:100AA000A7F80A904FF02B08A7F80C80014603F036
:100AB0004DF90120B871A7F80A80A7F80C90E7E774
:100AC0000680641CAC42FBD3BDE8F0830801002023
:100AD0000008006C2DE9F04F4A492A232B2489880D
:100AE00045F2105A4FF4305B4FF4285E4FF44875CE
:100AF0004FF0F00C49F241394FF4A07745F210362F
:100B00004FF4F07280B13F484FF00108494580F83A
:100B100006800780A0F802C001D0B1423ED12C254A
:100B200005814381848157E036484FF000084945EC
:100B300080F80680A0F800C0478006D0A1F5D04C10
:100B4000BCF1040C01D0B1420CD12C2505814381AC
:100B5000A1F5D0438481043B01D0B14244D1078048
:100B6000428041E0514507D1A0F808B0A0F80AE062
:100B70004FF42C5181810EE0A1F5C856633E06D09A
:100B80002221018120214181212181812CE02C2100
:100B90000181448183810280458025E0A1F5D04C0C
:100BA000BCF1040C09D051450BD1A0F808B0A0F855
:100BB0000AE04FF42C53838121E02C2505814481E8
:100BC00009E0A1F5C85CBCF1630C12D022230381BB
:100BD0002123438120238381A1F5D043043B01D00D
:100BE000B14201D102804780BDE8F04F002002F001
:100BF000D9BF4FF02C0CA0F808C043818481058038
:100C00004280E9E7080100202DE9F04FDFF80C8170
:100C1000934642460B46B8F804500C0ADFF800A190
:100C20009189060A5289A5F513470AF10209413F45
:100C300018D0A5F5A647103F14D0B7F500771CD003
:100C40004746A5F5C85CBE793F883F1A7F1EBCF1B8
:100C5000630C27D0A5F5D04CBCF1040C3AD0012E82
:100C60004AD04AE0AAF800204A46A9F80060C0B27B
:100C7000A9F80000AAF800103AE0AAF80020A9F8A4
:100C80000060521CAAF80020C0B2A9F80000AAF81F
:100C90000010A9F80040491CAAF80010D8B2A9F821
:100CA000000033E006B9B8B2AAF80020050A4A46A7
:100CB000A9F80050C7B2A9F80070A9F80050C0B256
:100CC000A9F80000AAF80010A9F80040D8B2A9F8C5
:100CD00000000DE0012E00D1B8B2AAF80020050AEC
:100CE0004A46A9F80050C0B2A9F80000AAF80010BE
:100CF0001480D8B2108009E0B8B20146104603F063
:100D000063F9B8F80C00194603F05EF9B8F808105A
:100D1000AAF80010A9F800B0BDE8F08F0801002083
:100D2000FE07006C2DE9F04F01210E029FB0304606
:100D300003F0B8F901214FF4B47003F0BFF90127B3
:100D4000ADF83C704FF010088DF83F8003248DF80B
:100D50003E400FA9FE48FFF7ABFD4CF23370ADF8F3
:100D60003C0018258DF83F508DF83E400FA9F948FA
:100D7000FFF79EFD4FF68070ADF83C008DF83F50B8
:100D80008DF83E400FA9F448FFF792FD41F20100B3
:100D9000ADF83C008DF83F508DF83E400FA9EF486C
:100DA000FFF786FD00200F21CDE918011A901B9056
:100DB0001C901D901090CDE91104CDE916071490F8
:100DC00006211590CDE90010CDE90208139004909A
:100DD0003101CDE908010690059007908900CDE921
:100DE0000A010C9017A80D9010A80E906846FFF706
:100DF000FBFC01210620FFF7E7FC322003F086FB15
:100E0000002002F0A5FED64DD64C49F24139A8800B
:100E100046F6040A45F2103B45F210574FF6FF78AC
:100E2000FF2804D3404502D0B0F5134F70D1D32032
:100E3000208002F083FEA88002F080FEA88002F0ED
:100E40007DFE08EA00204146A88002F077FEAA88CD
:100E50001043A88048455BD0BF20208002F06EFE82
:100E6000A88002F06BFEA88002F068FEA88002F065
:100E700065FE01EA0020A88002F060FEAA88104307
:100E8000A880504544D0D420208002F057FEA8808E
:100E900002F054FEA88002F051FE01EA0020A88072
:100EA00002F04CFEAA881043A880584530D04FF479
:100EB0005A40208002F042FEA8804FF45B40208020
:100EC00002F03CFE01EA0020A8804FF45C40208044
:100ED00002F034FEAA881043A880B0F5004F7DD000
:100EE000B84215D0A120208002F028FEA88002F090
:100EF00025FE01EA0020A88002F020FEA988084310
:100F0000A0F5AE41A880613902D141F66310A880F6
:100F1000A98895A0FFF7D2F9A888924DAD1C484545
:100F20007ED1CF20208000202880C1202880302042
:100F30002880ED2020806420288003202880122033
:100F4000288081202880E82020808520288010208B
:100F500028807A202880CB202080392028802C20CF
:100F60002880002028803420288002202880F72034
:100F7000208020202880EA202080002028802880CF
:100F8000C02020801B202880C120208001202880B4
:100F9000C5202080302028802880C7202080B720CE
:100FA000288036202080482028803A202080552024
:100FB0002880B1202080002028801A202880B62098
:100FC00020800A202880A2202880F2202080002073
:100FD0002880262020800120288000E051E0E020A9
:100FE00020800F2028802A20288028202880082080
:100FF00028800E2028800820288054202880A920BE
:101000002880432028800A2028800F202880002064
:101010002880288028802880E1202080002000E08F
:1010200031E028801520288017202880072028807C
:1010300011202880062028802B20288056202880F8
:101040003C20288005202880102028800F20288020
:101050003F20288028800F2028802B2020800020FF
:1010600028802880012028803F2028802A20208076
:101070000020288028802880EF20288011202080D0
:1010800084E0AF8044E7504576D1112020801420C1
:1010900003F03CFAD02020800720288042202880BE
:1010A0001D202880D1202080002028801A20288020
:1010B00009202880D220208001202880222028801A
:1010C000C0202080102028803B20288000202880FD
:1010D0000220288011202880C5202080032028801D
:1010E000C8202080002028802520288021202880DA
:1010F00005202880002028800A202880652028805C
:101100002520288077202880502028800F202880C4
:1011100000202880F820208001202880FE202080C8
:101120000020288002202880202020803620208057
:10113000082028803A202080552028802B202080DD
:10114000002028802880012028803F20288014E06B
:10115000000C014000140140001801400020014033
:1011600008010020FE07006C204C43442049443A0B
:1011700025780D0A000000000EE02A2020800020C3
:101180002880288001202880DF202880782003F014
:10119000BDF9292001F02DBC58457DD1ED202080DE
:1011A00001202880FE202880EE202080DE2028805C
:1011B00021202880F120208001202880DF2020802D
:1011C00010202880C42020808F202880C6202080E6
:1011D00000202880E220288028802880BF202080CE
:1011E000AA202880B02020800D2028800020288080
:1011F0000D202880002028801120288000202880B1
:101200001920288000202880212028800020288084
:101210002D202880002028803D2028800020288044
:101220005D202880002028805D20288000202880E4
:10123000B120208080202880002028808B202880DA
:10124000002028809620288000202880B22020803E
:101250000020288028800220288000202880032069
:10126000288000202880B32020800020288028802B
:10127000288028802880288028802880288028802E
:10128000288028802880288028802880288028801E
:1012900028802880288000E0FEE32880288028809D
:1012A000B42020808B202880002028809620288051
:1012B00000202880A120288000202880B5202080C0
:1012C00002202880002028800320288000202880F9
:1012D0000420288000202880B6202080002028803C
:1012E0002880B72020800020288028803F20288068
:1012F000002028805E20288000202880642028800C
:10130000002028808C20288000202880AC20288085
:1013100000202880DC202880002028807020288061
:10132000002028809020288000202880EB20288022
:1013300000202880DC20288000202880B820208001
:1013400000202880288028802880288028802880E5
:101350002880BA202080242028800020288028800F
:101360002880C12020802020288000202880542030
:10137000288000202880FF20288000202880C2208C
:1013800020800A2028800020288004202880002037
:101390002880C32020803C202880002028803A20FC
:1013A00028800020288039202880002028803720AD
:1013B0002880002028803C2028800020288036209B
:1013C00028800020288032202880002028802F209C
:1013D0002880002028802C20288000202880292098
:1013E0002880002028802620288000202880242093
:1013F0002880002028802420288000202880232086
:101400002880002028803C2028800020288036204A
:1014100028800020288032202880002028802F204B
:101420002880002028802C20288000202880292047
:101430002880002028802620288000202880242042
:101440002880002028802420288000202880232035
:10145000288000202880C42020806220288000204E
:1014600028800520288000202880842028800020D3
:101470002880F02028800020288018202880002044
:101480002880A42028800020288018202880002080
:10149000288050202880002028800C2028800020D0
:1014A0002880172028800020288095202880002070
:1014B0002880F320288000202880E6202880002033
:1014C0002880C520208032202880002028804420C9
:1014D0002880002028806520288000202880762011
:1014E0002880002028808820288000202880C6208E
:1014F000208020202880002028801720288000209D
:1015000028800120288000202880C72020800020FB
:101510002880288028802880C820208000202880DB
:10152000288028802880C9202080002028802880CA
:10153000288028802880288028802880288028806B
:10154000288028802880288028802880E02020800B
:1015500016202880002028801C2028800020288039
:101560002120288000202880362028800020288004
:1015700046202880002028805220288000202880B3
:1015800064202880002028807A202880002028805D
:101590008B20288000202880992028800020288007
:1015A000A820288000202880B920288000202880BA
:1015B000C420288000202880CA202880002028807D
:1015C000D220288000202880D92028800020288050
:1015D000E020288000202880F32028800020288018
:1015E000E120208016202880002028801C202880D0
:1015F0000020288022202880002028803620288073
:101600000020288045202880002028805220288023
:101610000020288064202880002028807A202880CC
:10162000002028808B202880002028809920288076
:1016300000202880A820288000202880B920288029
:1016400000202880C420288000202880CA202880EC
:1016500000202880D220288000202880D8202880C0
:1016600000202880E020288000202880F320288087
:1016700000202880E220208005202880002028806B
:101680000B202880002028801B2028800020288014
:1016900034202880002028804420288000202880B2
:1016A0004F2028800020288061202880002028806A
:1016B0007920288000202880882028800020288009
:1016C0009720288000202880A620288000202880BD
:1016D000B720288000202880C22028800020288071
:1016E000C720288000202880D12028800020288042
:1016F000D620288000202880DD2028800020288017
:10170000F320288000202880E320208005202880E6
:10171000002028800A202880002028801C20288083
:101720000020288033202880002028804420288022
:1017300000202880502028800020288062202880D7
:101740000020288078202880002028808820288079
:10175000002028809720288000202880A62028802C
:1017600000202880B720288000202880C2202880E0
:1017700000202880C720288000202880D1202880B1
:1017800000202880D520288000202880DD20288087
:1017900000202880F320288000202880E42020805A
:1017A0000120288000202880012028800020288017
:1017B00002202880002028802A20288000202880DD
:1017C0003C202880002028804B2028800020288072
:1017D0005D20288000202880742028800020288018
:1017E00084202880002028809320288000202880C2
:1017F000A220288000202880B32028800020288074
:10180000BE20288000202880C42028800020288036
:10181000CD20288000202880D32028800020288008
:10182000DD20288000202880F320288000202880C8
:10183000E520208000202880288028802880022021
:1018400028800020288029202880002028803C2013
:101850002880002028804B202880002028805D20C0
:101860002880002028807420288000202880842060
:101870002880002028809320288000202880A22013
:10188000288000202880B320288000202880BE20C7
:10189000288000202880C420288000202880CD2097
:1018A000288000202880D320288000202880DC2069
:1018B000288000202880F320288000202880E6202F
:1018C00020801120288000202880342028800020BB
:1018D000288056202880002028807620288000201C
:1018E00028807720288000202880662028800020FB
:1018F00028808820288000202880992028800020A7
:101900002880BB2028800020288099202880002063
:1019100028806620288000202880552028800020EC
:1019200028805520288000202880452028800020FD
:101930002880432028800020288044202880002000
:101940002880E72020803220288000202880552011
:10195000288000202880762028800020288066208B
:101960002880002028806720288000202880672089
:101970002880002028808720288000202880992027
:10198000288000202880BB202880002028809920E3
:10199000288000202880772028800020288044206C
:1019A000288000202880562028800020288023209E
:1019B000288000202880332028800020288045208F
:1019C000288000202880E82020800020288028808F
:1019D00099202880002028808720288000202880C7
:1019E00088202880002028807720288000202880D8
:1019F00066202880002028808820288000202880D9
:101A0000AA20288000202880BB2028800020288051
:101A100099202880002028806620288000202880A7
:101A200055202880002028805520288000202880EC
:101A300044202880002028804420288000202880FE
:101A40005520288000202880E9202080AA20288096
:101A500000202880288028802080AA202880CF206D
:101A600020800020288028802880288028802880C6
:101A70002880288028802880288028802880288026
:101A8000288028802880F020208000202880502076
:101A900028800020288000E02CE028802880F32087
:101AA000208000202880F920208006202880102017
:101AB000288029202880002028803A202080552056
:101AC000288011202080642002F020FD2920208021
:101AD000352020800020288051202080FF20288071
:101AE000532020802C202880552020808220288090
:101AF0002C20FCE3B8427DD14FF4704355211846A9
:101B000002F062FA4FF20105AA21284602F05CFABF
:101B10006E1C5221304602F057FAAF1C082138469D
:101B200002F052FA4FF204090121484602F04CFA41
:101B30000D214FF4304002F047FA0D214BF2010025
:101B400002F042FA0D214BF2020002F03DFA4FF48E
:101B5000364A3421504602F037FA34214BF2016004
:101B600002F032FA34214BF2026002F02DFA4FF407
:101B7000314B0D21584602F027FA0D214BF201108E
:101B800002F022FA0D214BF2021002F01DFA34216C
:101B90004FF4374002F018FA34214BF2017002F092
:101BA00013FA34214BF2027002F00EFA00214FF4C6
:101BB000324002F009FA00214BF2012002F004FA4F
:101BC00000214BF2022002F0FFF924214FF43840AB
:101BD00002F0FAF924214BF6010002F0F5F9242174
:101BE0004BF6020002F0F0F901214FF43F4002F001
:101BF000EBF900E0FEE30F214FF4334002F0E4F98B
:101C00000F214BF2013002F0DFF90F214BF20230CD
:101C100002F0DAF934214FF4394002F0D5F93421D9
:101C20004BF6011002F0D0F934214BF6021002F00D
:101C3000CBF908214FF4354002F0C6F908214BF2E8
:101C4000015002F0C1F908214BF2025002F0BCF938
:101C500003214FF4424002F0B7F924214FF43A40F7
:101C600002F0B2F924214BF6012002F0ADF9242153
:101C70004BF6022002F0A8F900214FF43C4002F09C
:101C8000A3F978214BF6014002F09EF900214BF6B2
:101C9000024002F099F900214FF43D4002F094F91E
:101CA00078214BF6015002F08FF900214BF60250DB
:101CB00002F08AF900214FF43E4002F085F96421D8
:101CC0004BF6016002F080F900214FF4514002F020
:101CD0007BF933214DF2011002F076F900214DF22B
:101CE000021002F071F934214DF2031002F06CF988
:101CF00000214DF2041002F067F93A214DF205106F
:101D000002F062F900214DF2061002F05DF94A215D
:101D10004DF2071002F058F900214DF2081002F0C0
:101D200053F95C214DF2091002F04EF900214DF2F9
:101D30000A1002F049F981214DF20B1002F044F92A
:101D400000214DF20C1002F03FF9A6214DF20D10CA
:101D500002F03AF900214DF20E1002F035F9E521BA
:101D60004DF20F1002F030F901214DF2101002F087
:101D70002BF913214DF2111002F026F901214DF239
:101D8000121002F021F954214DF2131002F01CF947
:101D900001214DF2141002F017F982214DF21510B5
:101DA00002F012F901214DF2161002F00DF9CA21CC
:101DB0004DF2171002F008F902214DF2181002F04E
:101DC00003F900214DF2191002F0FEF802214DF244
:101DD0001A1002F0F9F801214DF21B1002F0F4F88C
:101DE00002214DF21C1002F0EFF834214DF21D10CB
:101DF00002F0EAF802214DF21E1002F0E5F8672128
:101E00004DF21F1002F0E0F802214DF2201002F016
:101E1000DBF884214DF2211002F0D6F802214DF2B8
:101E2000221002F0D1F8A4214DF2231002F0CCF8D8
:101E300002214DF2241002F0C7F8B7214DF225100F
:101E400002F0C2F802214DF2261002F0BDF8CF21B7
:101E50004DF2271002F0B8F802214DF2281002F0DE
:101E6000B3F8DE214DF2291002F0AEF802214DF256
:101E70002A1002F0A9F8F2214DF22B1002F0A4F87A
:101E800002214DF22C1002F09FF8FE214DF22D1090
:101E900002F09AF803214DF22E1002F095F810216D
:101EA0004DF22F1002F090F803214DF2301002F0A5
:101EB0008BF833214DF2311002F086F803214DF2F8
:101EC000321002F081F86D214DF2331002F07CF8EF
:101ED00000214FF4524002F077F833214DF20120F7
:101EE00002F072F800214DF2022002F06DF8342168
:101EF0004DF2032002F068F800214DF2042002F0B8
:101F000063F83A214DF2052002F05EF800214DF20F
:101F1000062002F059F84A214DF2072002F054F849
:101F200000214DF2082002F04FF85C214DF209200B
:101F300002F04AF800214DF20A2002F045F8812112
:101F40004DF20B2002F040F800214DF20C2002F07F
:101F50003BF8A6214DF20D2002F036F800214DF29B
:101F60000E2002F031F8E5214DF20F2002F02CF89E
:101F700001214DF2102002F027F813214DF211201B
:101F800002F022F801214DF2122002F01DF8542136
:101F90004DF2132002F018F801214DF2142002F046
:101FA00013F882214DF2152002F00EF801214DF2B6
:101FB000162002F009F8CA214DF2172002F004F8A9
:101FC00002214DF2182001F0FFFF00214DF21920EF
:101FD00001F0FAFF02214DF21A2001F0F5FF012174
:101FE0004DF21B2001F0F0FF02214DF21C2001F008
:101FF000EBFF34214DF21D2001F0E6FF02214DF2EE
:102000001E2001F0E1FF67214DF21F2001F0DCFFEF
:1020100002214DF2202001F0D7FF84214DF2212032
:1020200001F0D2FF02214DF2222001F0CDFFA421C8
:102030004DF2232001F0C8FF02214DF2242001F0CF
:10204000C3FFB7214DF2252001F0BEFF02214DF262
:10205000262001F0B9FFCF214DF2272001F0B4FF77
:1020600002214DF2282001F0AFFFDE214DF22920A0
:1020700001F0AAFF02214DF22A2001F0A5FFF22172
:102080004DF22B2001F0A0FF02214DF22C2001F097
:102090009BFFFE214DF22D2001F096FF03214DF212
:1020A0002E2001F091FF10214DF22F2001F08CFF26
:1020B00003214DF2302001F087FF33214DF2312012
:1020C00001F082FF03214DF2322001F07DFF6D21EE
:1020D0004DF2332001F078FF00214FF4534001F01E
:1020E00073FF33214DF2013001F06EFF00214DF2FC
:1020F000023001F069FF34214DF2033001F064FF3A
:1021000000214DF2043001F05FFF3A214DF205301D
:1021100001F05AFF00214DF2063001F055FF4A212F
:102120004DF2073001F050FF00214DF2083001F070
:102130004BFF5C214DF2093001F046FF00214DF2CA
:102140000A3001F041FF81214DF20B3001F03CFFDC
:1021500000214DF20C3001F037FFA6214DF20D3079
:1021600001F032FF00214DF20E3001F02DFFE5218C
:102170004DF20F3001F028FF01214DF2103001F037
:1021800023FF13214DF2113001F01EFF01214DF20A
:10219000123001F019FF54214DF2133001F014FFF9
:1021A00001214DF2143001F00FFF82214DF2153064
:1021B00001F00AFF01214DF2163001F005FFCA219E
:1021C0004DF2173001F000FF02214DF2183001F0FE
:1021D000FBFE00214DF2193001F0F6FE02214DF216
:1021E0001A3001F0F1FE01214DF21B3001F0ECFE3E
:1021F00002214DF21C3001F0E7FE34214DF21D307A
:1022000001F0E2FE02214DF21E3001F0DDFE6721F9
:102210004DF21F3001F0D8FE02214DF2203001F0C6
:10222000D3FE84214DF2213001F0CEFE02214DF289
:10223000223001F0C9FEA4214DF2233001F0C4FE8A
:1022400002214DF2243001F0BFFEB7214DF22530BE
:1022500001F0BAFE02214DF2263001F0B5FECF2189
:102260004DF2273001F0B0FE02214DF2283001F08E
:10227000ABFEDE214DF2293001F0A6FE02214DF227
:102280002A3001F0A1FEF2214DF22B3001F09CFE2C
:1022900002214DF22C3001F097FEFE214DF22D303F
:1022A00001F092FE03214DF22E3001F08DFE10213F
:1022B0004DF22F3001F088FE03214DF2303001F055
:1022C00083FE33214DF2313001F07EFE03214DF2C9
:1022D000323001F079FE6D214DF2333001F074FEA1
:1022E00000214FF4544001F06FFE332100E080E301
:1022F0004DF2014001F068FE00214DF2024001F074
:1023000063FE34214DF2034001F05EFE00214DF2E8
:10231000044001F059FE3A214DF2054001F054FE0F
:1023200000214DF2064001F04FFE4A214DF20740D8
:1023300001F04AFE00214DF2084001F045FE5C210B
:102340004DF2094001F040FE00214DF20A4001F03B
:102350003BFE81214DF20B4001F036FE00214DF293
:102360000C4001F031FEA6214DF20D4001F02CFE93
:1023700000214DF20E4001F027FEE5214DF20F4005
:1023800001F022FE01214DF2104001F01DFE13214B
:102390004DF2114001F018FE01214DF2124001F002
:1023A00013FE54214DF2134001F00EFE01214DF2B7
:1023B000144001F009FE82214DF2154001F004FEA7
:1023C00001214DF2164001F0FFFDCA214DF21740E8
:1023D00001F0FAFD02214DF2184001F0F5FD002157
:1023E0004DF2194001F0F0FD02214DF21A4001F0CA
:1023F000EBFD00E0FFE201214DF21B4001F0E4FDA6
:1024000002214DF21C4001F0DFFD34214DF21D4050
:1024100001F0DAFD02214DF21E4001F0D5FD6721E9
:102420004DF21F4001F0D0FD02214DF2204001F09D
:10243000CBFD84214DF2214001F0C6FD02214DF279
:10244000224001F0C1FDA4214DF2234001F0BCFD6A
:1024500002214DF2244001F0B7FDB7214DF2254095
:1024600001F0B2FD02214DF2264001F0ADFDCF2179
:102470004DF2274001F0A8FD02214DF2284001F065
:10248000A3FDDE214DF2294001F09EFD02214DF217
:102490002A4001F099FDF2214DF22B4001F094FD0C
:1024A00002214DF22C4001F08FFDFE214DF22D4016
:1024B00001F08AFD03214DF22E4001F085FD10212F
:1024C0004DF22F4001F080FD03214DF2304001F02C
:1024D0007BFD33214DF2314001F076FD03214DF2B9
:1024E000324001F071FD6D214DF2334001F06CFD81
:1024F00000214FF4554001F067FD33214DF20150AA
:1025000001F062FD00214DF2025001F05DFD342129
:102510004DF2035001F058FD00214DF2045001F03E
:1025200053FD3A214DF2055001F04EFD00214DF2D0
:10253000065001F049FD4A214DF2075001F044FDDB
:1025400000214DF2085001F03FFD5C214DF2095091
:1025500001F03AFD00214DF20A5001F035FD8121D4
:102560004DF20B5001F030FD00214DF20C5001F006
:102570002BFDA6214DF20D5001F026FD00214DF25C
:102580000E5001F021FDE5214DF20F5001F01CFD30
:1025900001214DF2105001F017FD13214DF21150A1
:1025A00001F012FD01214DF2125001F00DFD5421F8
:1025B0004DF2135001F008FD01214DF2145001F0CD
:1025C00003FD82214DF2155001F0FEFC01214DF278
:1025D000165001F0F9FCCA214DF2175001F0F4FC3D
:1025E00002214DF2185001F0EFFC00214DF219507C
:1025F00001F0EAFC02214DF21A5001F0E5FC012144
:102600004DF21B5001F0E0FC02214DF21C5001F094
:10261000DBFC34214DF21D5001F0D6FC02214DF2BD
:102620001E5001F0D1FC67214DF21F5001F0CCFC8F
:1026300002214DF2205001F0C7FC84214DF22150BF
:1026400001F0C2FC02214DF2225001F0BDFCA42198
:102650004DF2235001F0B8FC02214DF2245001F05C
:10266000B3FCB7214DF2255001F0AEFC02214DF232
:10267000265001F0A9FCCF214DF2275001F0A4FC17
:1026800002214DF2285001F09FFCDE214DF229502D
:1026900001F09AFC02214DF22A5001F095FCF22142
:1026A0004DF22B5001F090FC02214DF22C5001F024
:1026B0008BFCFE214DF22D5001F086FC03214DF2E2
:1026C0002E5001F081FC10214DF22F5001F07CFCC6
:1026D00003214DF2305001F077FC33214DF231509F
:1026E00001F072FC03214DF2325001F06DFC6D21BE
:1026F0004DF2335001F068FC00214FF4564001F0D8
:1027000063FC33214DF2016001F05EFC00214DF2CB
:10271000026001F059FC34214DF2036001F054FCD9
:1027200000214DF2046001F04FFC3A214DF20560AA
:1027300001F04AFC00214DF2066001F045FC4A21FF
:102740004DF2076001F040FC00214DF2086001F0FD
:102750003BFC5C214DF2096001F036FC00214DF29A
:102760000A6001F031FC81214DF20B6001F02CFC7C
:1027700000214DF20C6001F027FCA6214DF20D6006
:1027800001F022FC00214DF20E6001F01DFCE5215C
:102790004DF20F6001F018FC01214DF2106001F0C4
:1027A00013FC13214DF2116001F00EFC01214DF2DA
:1027B000126001F009FC54214DF2136001F004FC99
:1027C00001214DF2146001F0FFFB82214DF21560F2
:1027D00001F0FAFB01214DF2166001F0F5FBCA2170
:1027E0004DF2176001F0F0FB02214DF2186001F08C
:1027F000EBFB00214DF2196001F0E6FB02214DF2E6
:102800001A6001F0E1FB01214DF21B6001F0DCFBDD
:1028100002214DF21C6001F0D7FB34214DF21D6006
:1028200001F0D2FB02214DF21E6001F0CDFB6721C9
:102830004DF21F6001F0C8FB02214DF2206001F053
:10284000C3FB84214DF2216001F0BEFB02214DF259
:10285000226001F0B9FBA4214DF2236001F0B4FB2A
:1028600002214DF2246001F0AFFBB7214DF225604B
:1028700001F0AAFB02214DF2266001F0A5FBCF2159
:102880004DF2276001F0A0FB02214DF2286001F01B
:102890009BFBDE214DF2296001F096FB02214DF2F7
:1028A0002A6001F091FBF2214DF22B6001F08CFBCC
:1028B00002214DF22C6001F087FBFE214DF22D60CC
:1028C00001F082FB03214DF22E6001F07DFB10210F
:1028D0004DF22F6001F078FB03214DF2306001F0E2
:1028E00073FB33214DF2316001F06EFB03214DF299
:1028F000326001F069FB6D214DF2336001F064FB41
:102900005521184601F060FBAA21284601F05CFB26
:102910005221304601F058FB0821384601F054FBA3
:102920000021484601F050FBCC21584601F04CFBF9
:1029300000214BF2011001F047FB0521504601F048
:1029400043FB70214FF4374001F03EFB70214BF206
:10295000017001F039FB01214FF4384001F034FBE4
:1029600003214BF6010001F02FFB03214BF602007F
:1029700001F02AFB03214BF6030001F025FB0221A5
:102980004FF43C4001F020FB00214BF6014001F0E8
:102990001BFB00214BF6024001F016FBD0214FF447
:1029A000494001F011FB02214CF6011001F00CFB33
:1029B00050214CF6021001F007FB50214CF6031099
:1029C00001F002FB50214CF6041001F0FDFA002149
:1029D0004FF4545001F0F8FA55214FF4685001F0CB
:1029E000F3FA4FF488502080782001F0ABFD4FF4CB
:1029F00024502080FEE3A0F513414FF4E06940F23B
:102A0000022A4FF4274B253924D040F20777C91EFC
:102A10007ED04FF4887B08317BD011397AD0A0F575
:102A2000A841083977D0A0F5A8514FF4407B05396B
:102A300072D0B1F5204170D0B1F580516ED0A0F5C3
:102A40008A4131396BD0091F6AD0A0F5C85163396A
:102A500067D0CFE747F6F001E52001F0B5FA31463F
:102A6000012001F0B1FA4946022001F0ADFA41F22D
:102A70003001032001F0A8FA0021042001F0A4FA9B
:102A80005146082001F0A0FA0021092001F09CFA2B
:102A900000210A2001F098FA00210C2001F094FA9C
:102AA00000210D2001F090FA00210F2001F08CFA96
:102AB0000021102001F088FA0721112001F084FA8A
:102AC0000021122001F080FA0021132001F07CFA8D
:102AD0000021072001F078FA41F29061102001F006
:102AE00073FA40F22721112001F06EFA9D21122085
:102AF00001F06AFA4FF4C851132001F065FA25215C
:102B0000292001F061FA0D212B2001F05DFA09E086
:102B100077E033E1D8E1AEE24AE3FDE3FDE3FDE334
:102B2000FDE3FDE30721302001F04EFA40F20331CE
:102B3000312001F049FA0321322001F045FA40F238
:102B40000621352001F040FA0821362001F03CFA38
:102B500040F20641372001F037FA4FF44171382036
:102B600001F032FA0721392001F02EFA40F2026119
:102B70003C2001F029FA08213D2001F025FA00212E
:102B8000502001F021FAEF21512001F01DFA00211F
:102B9000522001F019FA40F23F11532001F014FACB
:102BA0005946602001F010FA0121612001F00CFA71
:102BB00000216A2001F008FA0021802001F004FAC7
:102BC0000021812001F000FA0021822001F0FCF9AF
:102BD0000021832001F0F8F90021842001F0F4F9AC
:102BE0000021852001F0F0F91021902001F0ECF98E
:102BF0004FF4C061922001F0E7F940F23311072051
:102C0000FDE341F28F01EC2001F0DEF941F23421C5
:102C1000EF2001F0D9F93146012001F0D5F94946FC
:102C2000022001F0D1F941F23001032001F0CCF98A
:102C30000021042001F0C8F95146082001F0C4F930
:102C40000021092001F0C0F900210A2001F0BCF99F
:102C500001210C2001F0B8F900210D2001F0B4F998
:102C600000210F2001F0B0F90021102001F0ACF993
:102C70000721112001F0A8F90021122001F0A4F988
:102C80000021132001F0A0F90121072001F09CF997
:102C9000322001F03BFC41F29041102001F094F908
:102CA00040F22721112001F08FF9322001F02EFC93
:102CB0008A21122001F088F9322001F027FC4FF41C
:102CC000D051132001F080F90621292001F07CF970
:102CD0000D212B2001F078F9322001F017FC0021A2
:102CE000202001F071F90021212001F06DF932203E
:102CF00001F00CFC0021302001F066F940F2046183
:102D0000312001F061F940F20531322001F05CF927
:102D10000021352001F058F940F60941362001F034
:102D200053F94FF40171372001F04EF940F20131AF
:102D3000382001F049F93946392001F045F90021E0
:102D40003C2001F041F940F60A213D2001F03CF918
:102D5000322001F0DBFB0021502001F035F9EF219A
:102D6000512001F031F90021522001F02DF940F2FB
:102D70003F11532001F028F9594651E1002108463E
:102D800001F022F93146012001F01EF949460220E6
:102D900001F01AF941F23001032001F015F9002188
:102DA000042001F011F95146082001F00DF900212D
:102DB000092001F009F900210A2001F005F901219B
:102DC0000C2001F001F900210D2001F0FDF8002197
:102DD0000F2001F0F9F8322001F098FB40F20111C8
:102DE000072001F0F1F8322001F090FB4FF48651FA
:102DF000102001F0E9F80721112001F0E5F85B4609
:102E00005946122001F0E0F84FF43061132001F030
:102E1000DBF80021292001F0D7F844F210012B2023
:102E200001F0D2F80021502001F0CEF8EF2151201E
:102E300001F0CAF80021522001F0C6F840F23F111B
:102E4000532001F0C1F84FF41C51602001F0BCF890
:102E50000121612001F0B8F800216A2001F0B4F8E6
:102E60000021802001F0B0F80021812001F0ACF8B1
:102E70000021822001F0A8F80021832001F0A4F8AD
:102E80000021842001F0A0F80021852001F09CF8A9
:102E90001021902001F098F80021922001F094F880
:102EA0000121932001F090F81946952001F08CF84B
:102EB0000021972001F088F80021982001F084F883
:102EC00040F27311072085E341F21401E72001F07D
:102ED0007BF83146012001F077F84FF400710220B1
:102EE00001F072F841F23801032001F06DF851460B
:102EF000082001F069F80021092001F065F800219F
:102F00000A2001F061F800210C2001F05DF8002199
:102F10000D2001F059F800210F2001F055F8002193
:102F2000102001F051F80721112001F04DF8002187
:102F3000122001F049F80021132001F045F8C820C3
:102F400001F0E4FA41F29061102001F03DF840F206
:102F50002721112001F038F8322001F0D7FA0C2196
:102F6000122001F031F8322001F0D0FA4FF4006164
:102F7000132001F029F81121292001F025F80B2157
:102F80002B2001F021F8322001F0C0FA002120208E
:102F900001F01AF840F23F131946212001F014F80D
:102FA0000021302001F010F84FF4837421463120C5
:102FB00001F00AF80021322001F006F84FF4017107
:102FC000352001F001F841F20A61362000F0FCFFE3
:102FD0003946372000F0F8FF2146382000F0F4FF92
:102FE0003946392000F0F0FF40F202413C2000F069
:102FF000EBFF40F60F413D2000F0E6FF002150209E
:1030000000F0E2FFEF21512000F0DEFF002152200E
:1030100000F0DAFF1946532000F0D6FF4FF41C51A0
:10302000602000F0D1FF0121612000F0CDFF0021E0
:103030006A2000F0C9FF0021802000F0C5FF0021B8
:10304000812000F0C1FF0021822000F0BDFF00219F
:10305000832000F0B9FF0021842000F0B5FF00219B
:10306000852000F0B1FF1021902000F0ADFF4FF45B
:10307000C0619220FDE33146012000F0A5FF4946E2
:10308000022000F0A1FF41F23001032000F09CFF7C
:103090000021042000F098FF40F20721082000F0F2
:1030A00093FF0021092000F08FFF00210A2000F08B
:1030B0008BFF00210C2000F087FF00210D2000F085
:1030C00083FF00210F2000F07FFF142001F01EFA83
:1030D00041F2B061102000F077FF0121112000F0D3
:1030E00073FF0121172000F06FFF4FF49C71122035
:1030F00000F06AFF4FF40061132000F065FF092122
:10310000292000F061FF09212A2000F05DFF002145
:10311000A42000F059FF0021502000F055FFEF21BE
:10312000512000F051FF0021522000F04DFF40F2ED
:103130003F11532000F048FF4FF41C51602000F075
:1031400043FF0121612000F03FFF00216A2000F0D1
:103150003BFF0021802000F037FF0021812000F09C
:1031600033FF0021822000F02FFF0021832000F098
:103170002BFF0021842000F027FF0021852000F094
:1031800023FF1321902000F01FFF0021922000F068
:103190001BFF0321932000F017FF5946952000F0F4
:1031A00013FF40F27311072000F00EFF322010E1F0
:1031B0000021072000F008FF322001F0A7F94FF4AA
:1031C0008E71122000F000FF0121A42000F0FCFE0F
:1031D0000F21082000F0F8FE08210A2000F0F4FE7C
:1031E00008210D2000F0F0FE3946302000F0ECFE02
:1031F000072100E06FE3312000F0E6FE40F20361BA
:10320000322000F0E1FE4C464946332000F0DCFE5F
:103210005146342000F0D8FE0221352000F0D4FEC3
:1032200041F60F71362000F0CFFE3946372000F00E
:10323000CBFE0021382000F0C7FE0021392000F02D
:10324000C3FE39463A2000F0BFFE00213B2000F0CB
:10325000BBFE07213C2000F0B7FE00213D2000F01E
:10326000B3FE322001F052F90121072000F0ACFE3C
:103270000121172000F0A8FE322001F047F94FF499
:10328000BD51102000F0A0FE40F21721112000F0E7
:103290009BFE4FF48F71122000F096FE4FF4706188
:1032A000132000F091FE00212A2000F08DFE0A215B
:1032B000292000F089FE4FF49F71122000F084FE57
:1032C0000021502000F080FEEF21512000F07CFE14
:1032D0000021522000F078FE40F23F11532000F010
:1032E00073FE4FF41C51602000F06EFE012161203E
:1032F00000F06AFE00216A2000F066FE00218020B6
:1033000000F062FE0021812000F05EFE002182209C
:1033100000F05AFE002104E05EE05CE125E2DBE221
:1033200082E3832000F050FE0021842000F04CFE58
:103330000021852000F048FE1321902000F044FE7B
:103340005946922000F040FE0521932000F03CFEFB
:103350000021952000F038FE0021972000F034FE77
:103360000021982000F030FE3146012000F02CFEB4
:103370002146022000F028FE41F23801032000F02F
:1033800023FE0021042000F01FFE00210C2000F08D
:103390001BFE00210F2000F017FE0021202000F06E
:1033A00013FE0021212000F00FFE2121072000F054
:1033B0000BFE142001F0AAF86121072000F004FEA2
:1033C000142001F0A3F840F27311072000F0FCFD77
:1033D000142001F09BF8A1E30021084600F0F4FD61
:1033E0000021084600F0F0FD0021084600F0ECFD49
:1033F0000021084600F0E8FD0121A42000E0E5E0FE
:1034000000F0E2FD142001F081F84FF41C54214635
:10341000602000F0D9FD55465146082000F0D4FD4B
:103420004FF40571302000F0CFFD43F215713120CB
:1034300000F0CAFD40F20461322000F0C5FD40F604
:103440001661332000F0C0FD42F21121342000F05B
:10345000BBFD4FF4A851352000F0B6FD48F20751EE
:10346000362000F0B1FD41F20741372000F0ACFDFD
:1034700041F20341382000F0A7FD2021392000F05F
:10348000A3FD1A21902000F09FFD0021102000F0E4
:103490009BFD0721112000F097FD0021122000F074
:1034A00093FD0021132000F08FFD142001F02EF871
:1034B0004FF4E661102000F087FD40F23711112033
:1034C00000F082FD142001F021F84FF4DC7112208D
:1034D00000F07AFD142001F019F84FF47061132008
:1034E00000F072FD80212A2000F06EFD4821292085
:1034F00000F06AFD142001F009F83146012000F0C7
:1035000063FD4946022000F05FFD41F238010320CF
:1035100000F05AFD2946082000F056FD00210A203F
:1035200000F052FD00210C2000F04EFD00210D2086
:1035300000F04AFD30210E2000F046FD0021502011
:1035400000F042FDEF21512000F03EFD002152200D
:1035500000F03AFD40F23F11532000F035FD2146C6
:10356000602000F031FD0121612000F02DFD0021DF
:103570006A2000F029FD1121902000F025FD4FF474
:10358000C061922000F020FD40F20241932000F043
:103590001BFD0221942000F017FD142000F0B6FF5F
:1035A0000121072000F010FD142000F0AFFF612181
:1035B000072000F009FD40F27311072000F004FD20
:1035C0000021202000F000FD0021212000F0FCFC63
:1035D000222100207DE10021084600F0F5FC0021B9
:1035E000084600F0F1FC142000F090FF002108468E
:1035F00000F0EAFC0021084600F0E6FC0021084645
:1036000000F0E2FC0021084600F0DEFC0121A420CD
:1036100000F0DAFC142000F079FF4FF41C51602018
:1036200000F0D2FC40F60601082000F0CDFC40F28C
:1036300003731946302000F0C7FC0121312000F04F
:10364000C3FC0421322000F0BFFC4FF48171332011
:1036500000F0BAFC5C465946342000F0B5FC40F25C
:103660000311352000F0B0FC1F21362000F0ACFC27
:103670001946372000F0A8FC0121382000F0A4FCF6
:103680000421392000F0A0FC1521902000F09CFCC2
:103690004FF48261102000F097FC40F24721112086
:1036A00000F092FC4FF4DE71122000F08DFC4FF41C
:1036B0006061132000F088FC782000F027FF31467D
:1036C000012000F081FC4FF40071022000F07CFC2E
:1036D00041F23001032000F077FC08210A2000F0BD
:1036E00073FC00210C2000F06FFC20210E2000F064
:1036F0006BFC00210F2000F067FC0021202000F06F
:1037000063FC0021212000F05FFC3D212A2000F015
:103710005BFC142000F0FAFE2D21292000F054FC5F
:103720000021502000F050FC4DF2EF01512000F03C
:103730004BFC0021522000F047FC40F23F11532087
:1037400000F042FC0021612000F03EFC00216A20D4
:1037500000F03AFC2146922000F036FC052193202F
:1037600000F032FC3146FFF7ADBB0121002000F034
:103770002BFC0A2000F0CAFE41F22861102000F064
:1037800023FC0E21122000F01FFC40F639211320EB
:1037900000F01AFC0A2000F0B9FE4021112000F0D0
:1037A00013FC5021152000F00FFC0A2000F0AEFEA3
:1037B0001E21122000F008FC0A2000F0A7FE4FF4A2
:1037C000B151102000F000FC42F63921132000F026
:1037D000FBFB0A2000F09AFE3146012000F0F4FBCA
:1037E0005946022000F0F0FB41F23801032000F0BE
:1037F000EBFB5146082000F0E7FB08210A2000F00F
:10380000E3FB0021302000F0DFFB40F202413120D9
:1038100000F0DAFB4FF48371322000F0D5FB40F268
:103820000351332000F0D0FB4FF48271342000F0BC
:10383000CBFB40F20131352000F0C6FB3946362083
:1038400000F0C2FB40F20531372000F0BDFB4FF421
:103850000271382000F0B8FB40F60B71392000F0FF
:10386000B3FB0221412000F0AFFB4FF41C5160205C
:1038700000E0D4E000F0A8FB0121612000F0A4FBEF
:103880004FF40471902000F09FFB4FF4857192205B
:1038900000F09AFB0421932000F096FB3146A02013
:1038A00000F092FB0121072000F08EFB2121072070
:1038B00000F08AFB2321072000F086FB332107203C
:1038C00000F082FB40F23311072000F07DFB002165
:1038D000A02000F079FB21E13021152000F074FBDD
:1038E00010219A2000F070FB2021112000F06CFBC9
:1038F00043F22841102000F067FB0221122000F063
:1039000063FB41F23801132000F05EFB282000F039
:10391000FDFD1221084600F057FB282000F0F6FDBF
:1039200043F22041102000F04FFB43F238011320F6
:1039300000F04AFB462000F0E9FD0021302000F0B5
:1039400043FB40F20241312000F03EFB40F20731E0
:10395000322000F039FB4FF44171332000F034FB8A
:103960000421342000F030FB40F20141352000F00A
:103970002BFB3946362000F027FB40F2053137207B
:1039800000F022FB4FF4C2631946382000F01CFB04
:103990001946392000F018FB3146012000F014FBD5
:1039A0005946022000F010FB41F23001032000F0E4
:1039B0000BFB40F60801082000F006FB08210A2056
:1039C00000F002FB4FF41C51602000F0FDFA0121D1
:1039D000612000F0F9FA4FF49F71902000F0F4FAA2
:1039E0003146922000F0F0FA3146932000F0ECFAD4
:1039F0004FF44051A02000F0E7FA1021A32000F07E
:103A0000E3FA0121072000F0DFFA2121072000F06E
:103A1000DBFA2321072000F0D7FA3321072000F03A
:103A2000D3FA40F233119EE6E22020801D20288048
:103A30000220288004202880642000F083FDE020FC
:103A40002080012028800A2000F060FDE0202080F6
:103A5000032028800C2000F059FD012020800A203E
:103A600000F054FDE62020802F202880FF202880B1
:103A70002880B0202080202028800020288003205B
:103A8000288040F21F3028800120288040F2DF107B
:103A9000288000202880B42020800420288040F244
:103AA0001F402880002028802E2028800020288089
:103AB000288028802880B6202080022028804FF48B
:103AC0000370288000202880172028801520288057
:103AD000002028802880F0202080032028802920B2
:103AE0002080D020208000202880BE20208005203B
:103AF0002880FE202880012028800020288028801F
:103B00002880B82020800320288001202880BA2027
:103B1000208001202880642000F026F80020FCF797
:103B2000D9FF05490120C1F880014046FCF79CFF00
:103B30001FB0BDE8F08F000000802142034808B5A7
:103B40000088ADF80000BDF8000008BD0008006C5A
:103B5000044910B50880052000F0F4FCBDE81040D1
:103B6000FFF7ECBFFE07006C0C4A10B5BE211180B8
:103B7000941C0521218003F058F84FF06632084B61
:103B800003F066F803F024F8208001202080FF2055
:103B9000208000202080208010BD0000FE07006CE7
:103BA00066660440F0B5674E00233146B2798988D5
:103BB00046F6040741F66314012A01D02AB11DE03C
:103BC000B9421BD0A14202D118E0A14216D1082867
:103BD00014D2DFE800F00406080A0C0E10120620CA
:103BE0000CE007200AE0042008E0052006E00120A0
:103BF00004E0002002E0032000E00220A1F5134CC5
:103C000045F2103245F21055BCF1410C07D0B942D3
:103C100005D0914203D0A94201D0A14275D1082814
:103C200012D2DFE800F0110406080A0C0E108023FF
:103C30000AE0402308E0C02306E0202304E06023DC
:103C400002E0A02300E0E023A94202D14FF4585043
:103C500000E03620914205D0A94203D0A14201D014
:103C600043F00803B94201D143F00203194600F0C2
:103C7000ABF9B288A2420AD098063088718802D582
:103C8000884202D303E0884201D9318070802E48F7
:103C9000811CAA427289028021D100230B80531C0F
:103CA000038000230B80931C038033885B1E1C0A57
:103CB0000C80D21C0280DAB20A80B2890280002312
:103CC0000B80531C038000230B80931C038073889C
:103CD0005B1E1C0A0C80D21C0280D8B212E00022AB
:103CE0000A800A803288521E130A0B80D2B20A80E0
:103CF000B28902800020088008807088401E020A75
:103D00000A80C0B20880F0BDFFE7082812D2DFE8C1
:103D100000F0040608110A0C0E1030230AE01023EC
:103D200008E0202306E0382304E0282302E01823DB
:103D300000E00823BDE8F040032043F4805100F088
:103D400043B9000008010020FE07006C2DE9F04F88
:103D50004E4F0B463A46BD880C0ADFF834B19189C4
:103D60005289A5F513464FEA102C0BF1020A413E89
:103D70001DD0A5F5A646103E19D03E46BE4696F883
:103D800006903688A5F5D047A6EB0008A8F10108F3
:103D9000043F17D0A5F5C857633F28D0A5F5AA471B
:103DA0007646103F51D0B9F1010F63D064E0ABF813
:103DB00000205246AAF800C0C0B2AAF80000ABF832
:103DC00000100FE0B9F1010F01D11FFA88F0ABF834
:103DD0000020050A5246AAF80050C0B2AAF8000016
:103DE000ABF800101480D8B21080BDE8F08FB9F1A4
:103DF000000F1BD0ABF800205246AAF800C0C0B29A
:103E0000AAF80000761E300AAAF80000F0B210806E
:103E1000ABF8001011461480D8B21080BEF8020032
:103E2000401E020A0A80C0B20880DEE71FFA88F04E
:103E3000ABF8002000265246AAF80060AAF80060FD
:103E4000060AAAF80060C0B2E1E7ABF80020AAF8C1
:103E500000C0521CABF80020C0B2AAF80000ABF8BA
:103E60000010AAF80040491CABF80010D8B2AAF81C
:103E70000000BAE71FFA88F00146104600F0A4F8E7
:103E8000B089BDE8F04F194600F09EB80801002047
:103E9000FE07006C2DE9F84F82461F460C468B4604
:103EA000580700D0012000EBD70079084843203A9A
:103EB000C0B202F0FF090026009041E00C2F10D0A4
:103EC000102F12D0182F3ED1204909EBC90001EB69
:103ED00080004FF00008855D28060AD51C4802883E
:103EE0000BE009EB49001B49F1E71B4901EB091005
:103EF000EFE70A9828B91648428821465046FCF751
:103F000083FE6806050E1548641CA4B24088A042D2
:103F100019D9A4EB0B00B84209D10AF101001FFA2C
:103F200080FA0E485C46018851450CD906E008F13C
:103F3000010000F0FF08B8F1080FCDD3761CF6B2EF
:103F400000988642BAD3BDE8F88F0000B078000828
:103F5000200000204C6E0008C072000808010020FC
:103F60002DE9F84F044600F0FF0810190D46DDE971
:103F70000A761FFA80FA58191FFA80F94FF0000BE1
:103F800011E0544502D3E819444685B24D450FD29D
:103F90003B4629462046CDF800B0FFF77BFF04EBF7
:103FA000570084B2761C3278A2F120005E28E8D94E
:103FB000BDE8F88F02480349008908807047000077
:103FC00008010020FE07006C024A1080901C01804E
:103FD00070470000FE07006C38B50121482000F052
:103FE0006DF82024ADF8004010208DF80300032068
:103FF0000B4D8DF8020069462846FCF759FC20213C
:104000002846FCF7AAFCADF80040064C694620465D
:10401000FCF74EFC20212046FCF79FFC38BD000039
:10402000000C014000180140FEE7704730B50F2337
:10403000C27801780125F2B1144A126801F1E02139
:1040400002F4E062C2F5E062120AC2F10404D34055
:104050004278A24084781C401443220181F8002455
:10406000007800F01F018D404009800000F1E02041
:10407000C0F8005130BD01F01F00854048098000A4
:1040800000F1E020C0F8805130BD00000CED00E0F0
:104090000249084302490860704700000000FA0521
:1040A0000CED00E0044A0029516901D0014300E011
:1040B000814351617047000000100240044A00290A
:1040C000916901D0014300E0814391617047000094
:1040D0000010024030B5204A5168204B11F00C010D
:1040E00003D0042901D0082901D0036012E05168EF
:1040F000536801F470114FF0020413F4803F04EB95
:10410000914102D053689B0301D5154B00E0134B3E
:104110005943016051680F2303EA1111114B5C5C94
:104120000168E14041605468072505EA14241C5DDC
:1041300021FA04F48460546805EAD4241B5DD94054
:10414000C1605268032303EA9232064B1B1F9A5C3C
:10415000B1FBF2F1016130BD0010024000127A00A3
:1041600000093D00340000200CB5002226480092D2
:104170000192016841F4803101604FF4A06301684D
:1041800001F4003101910099491C0091019911B984
:1041900000999942F3D10168890333D50121019136
:1041A0001A490A6842F010020A600A6822F0030203
:1041B0000A600A6842F002020A6041684160416890
:1041C0004160416841F480614160416821F47C11A3
:1041D0004160416841F4E8114160016841F080713B
:1041E000016001688901FCD5416821F0030141604B
:1041F000416841F0020141604168C1F38101022937
:10420000FAD10CBD01920CBD00100240002002400A
:104210004FF0E0210428086903D020F00400086171
:10422000704740F00400FAE710B502F075FA012873
:1042300003D0BDE8104001F063BF10BD0F4810B5BA
:10424000016841F00101016041680D4A114041607F
:1042500001680C4A11400160016821F4802101606D
:10426000416821F4FE0141604FF41F018160FFF7B6
:104270007BFF05494FF00060086010BD0010024050
:104280000000FFF8FFFFF6FE08ED00E010B5084C57
:104290000121204600F039F8012802D105A0FCF7E1
:1042A0000DF82046BDE81040012100F02BB80000B9
:1042B0000004004054494D33CAE4B3F62E2E2E2E8E
:1042C0002E2E2E0D0A00000010B5084C01212046AC
:1042D00000F01BF8012802D105A0FBF7EFFF2046F4
:1042E000BDE81040012100F00DB80000000C0040B6
:1042F00054494D35CAE4B3F62E2E2E2E2E2E2E0DF9
:104300000A000000C9430182704702460020138A58
:1043100092890B4202EA010202D0002A00D0012059
:104320007047000070B5154C40F22551204600F052
:1043300035F800280ED0204600F0BEF8104AC1B271
:104340001088030406D444044FF0000306D50A295C
:1043500001D0138070BD40F400400DE00D2909D05C
:10436000C0F30D04074D401C80B229551080C728AA
:10437000EFD870BD40F48040108070BD003801401F
:104380002A000020160100200029818902D041F472
:10439000005101E021F400518181704770B501F0B6
:1043A0001F0501260024C1F3421306FA05F2012B72
:1043B0000FD0022B0FD0838A4FEA112100881342BD
:1043C00006FA01F600EA060001D000B101242046F9
:1043D00070BD8389F0E7038AEEE710B5C1F342139D
:1043E00001F01F040121A140012B07D0022B07D0AF
:1043F0001430002A026805D00A4304E00C30F8E7C4
:104400001030F6E78A43026010BD000030B5044664
:10441000008A85B00D464CF6FF710840E9880143DB
:104420002182A0894EF6F3110840A9882A891143F8
:104430006A8902431143A181A08A4FF6FF410840D7
:10444000A9890143A1826846FFF744FE19488442C6
:1044500001D1039800E00298A189090400EBC00192
:1044600001EB0010296801D5490000E08900B0FB8C
:10447000F1F06422B0FBF2F109010B096FF01805AD
:104480006B4300EB8300A3891D044FF0320306D574
:1044900003EBC000B0FBF2F000F0070005E003EB17
:1044A0000010B0FBF2F000F00F000843208105B0CF
:1044B00030BD0000003801408088C0F3080070471C
:1044C000FEE7704710B50420FFF7A2FE0C480D4927
:1044D0000D4A0068B0FBF1F3B0FBF1F14FF47A70D4
:1044E00041431370012050804FF0E020026942F0F8
:1044F000020202614161016941F00101016110BDE7
:104500000C00002040420F002600002070B5044639
:1045100002F002F901280CD0094D6888844203D3C7
:10452000B4FBF0F001F0C0FB6888B4FBF0F100FBD5
:1045300011444FF47A706043BDE8704000F002B857
:104540002600002070B54FF0E02500216C69094A73
:10455000AB6912785043AA699A42FCD002D2A3EB0D
:10456000020302E0A4EB02063344194413468142DD
:10457000F1D370BD2600002004490A885206FCD5FC
:10458000024AC1B2121D118070470000003801407C
:104590005F4801F011FA5E48143001F018FA5C48E7
:1045A000283001F014FA5A483C3001F010FA584D06
:1045B0002820143505F1140728603C20386005F1E7
:1045C00028063220306053A0FBF778FE60A0FBF78E
:1045D00075FE4F496BA0FBF771FE4D4C75A06168ED
:1045E000FBF76CFE04F108017EA0FBF767FE29468D
:1045F00088A0FBF763FE394692A0FBF75FFE3146C9
:104600009CA0FBF75BFEA7A0FBF758FEB4A0FBF74E
:1046100055FE02E00A20FFF779FF0020FCF7BEF903
:104620000428F7D13A493A48143101F0D3F9B2A03D
:10463000FBF744FE46A0FBF741FEBEA0E168FBF796
:104640003DFEC8A06968FBF739FED2A0FBF736FE35
:10465000DFA02169FBF732FEE9A0A968FBF72EFE77
:1046600090A0FBF72BFE9EA0FBF728FE02E00A209D
:10467000FFF74CFF0020FCF791F90428F7D12449FB
:104680002348283101F0A6F9E9A0FBF717FE30A076
:10469000FBF714FEA7A0E168FBF710FEB1A0696864
:1046A000FBF70CFEF1A07968FBF708FEB9A0FBF759
:1046B00005FEC7A02169FBF701FED1A0A968FBF7A1
:1046C000FDFDF6A0B968FBF7F9FD76A0FBF7F6FD56
:1046D00083A0FBF7F3FD02E00A20FFF717FF00209D
:1046E000FCF75CF90428F7D1094909483C3101F08D
:1046F00071F9F6A0FBF7E2FD15A0FBF7DFFD8DA039
:10470000E168FBF7DBFD97A06968FBF7D7FDFBE1EC
:10471000B80000202F2A2A2A2A2A2A2A2A2A2A2AC4
:104720002A2A2A2A2A2A2A2AC1D0B1EDBACDC1D0F2
:10473000B1EDCFEEB5D8D6B72A2A2A2A2A2A2A2AB4
:104740002A2A2A2A2A2A2A2A2A2A2A2F0D0A000055
:10475000CFEEC4BF20202020202020202020202099
:104760002020202020202020202020202020202049
:104770002020B5D8D6B709090909202020200D0A24
:1047800000000000546573744C697374202020206D
:104790002020202020202020202020202020202019
:1047A00020202020202025237809090909090D0A45
:1047B00000000000546573744C6973742D3E70786A
:1047C000496E646578202020202020202020202091
:1047D00020202020202025237809090909090D0A15
:1047E00000000000546573744C6973742D3E784C5E
:1047F000697374456E642020202020202020202012
:1048000020202020202025237809090909090D0AE4
:10481000000000004C6973744974656D31202020DC
:104820002020202020202020202020202020202088
:1048300020202020202025237809090909090D0AB4
:10484000000000004C6973744974656D32202020AB
:104850002020202020202020202020202020202058
:1048600020202020202025237809090909090D0A84
:10487000000000004C6973744974656D332020207A
:104880002020202020202020202020202020202028
:1048900020202020202025237809090909090D0A54
:1048A000000000002F2A2A2A2A2A2A2A2A2A2A2A0B
:1048B0002A2A2A2A2A2A2A2A2A2A2A2A2ABDE1CA6E
:1048C000F82A2A2A2A2A2A2A2A2A2A2A2A2A2A2A7A
:1048D0002A2A2A2A2A2A2A2A2A2A2A2F0D0A0000C4
:1048E000B0B4CFC24B45595F5550BCFCBCCCD0F8DE
:1048F000210D0A0D0A0D0A002F2A2A2A2A2A2A2AFD
:104900002A2A2A2A2A2A2A2A2A2A2ACCEDBCD3C1D0
:10491000D0B1EDCFEE4C6973744974656D312A2ABC
:104920002A2A2A2A2A2A2A2A2A2A2A2A2A2A2A2FE2
:104930000D0A0000546573744C6973742D3E784CF5
:10494000697374456E642D3E70784E6578742020CE
:1049500020202020202025237809090909090D0A93
:10496000000000004C6973744974656D312D3E7010
:10497000784E6578742020202020202020202020C0
:1049800020202020202025237809090909090D0A63
:10499000000000002F2A2A2A2A2A2A2A2A2A2A2A1A
:1049A0002A2A2A2A2A2A2A2AC7B0BAF3CFF2C1AC65
:1049B000BDD3B7D6B8EECFDF2A2A2A2A2A2A2A2A36
:1049C0002A2A2A2A2A2A2A2A2A2A2A2A2F0D0A00A9
:1049D000546573744C6973742D3E784C69737445D7
:1049E0006E642D3E707850726576696F7573202005
:1049F000202025237809090909090D0A0000000073
:104A00004C6973744974656D312D3E7078507265D0
:104A100076696F7573202020202020202020202000
:104A2000202025237809090909090D0A0000000042
:104A30002F2A2A2A2A2A2A2A2A2A2A2A2A2A2A2AD1
:104A40002A2A2ACCEDBCD3C1D0B1EDCFEE4C69738C
:104A5000744974656D322A2A2A2A2A2A2A2A2A2A7D
:104A60002A2A2A2A2A2A2A2F0D0A00004C6973743E
:104A70004974656D322D3E70784E65787420202023
:104A8000202020202020202020202020202025231E
:104A90007809090909090D0A000000004C697374BE
:104AA0004974656D322D3E707850726576696F7508
:104AB000732020202020202020202020202025239B
:104AC0007809090909090D0A000000002F2A2A2A7D
:104AD0002A2A2A2A2A2A2A2A2A2A2A2A2A2A2ACC94
:104AE000EDBCD3C1D0B1EDCFEE4C697374497465A0
:104AF0006D332A2A2A2A2A2A2A2A2A2A2A2A2A2ACA
:104B00002A2A2A2F0D0A00005DA07168FBF7D6FB48
:104B1000AFF2A8007968FBF7D1FBAFF28810FBF782
:104B2000CDFBAFF254102169FBF7C8FBAFF2301098
:104B3000A968FBF7C3FB5EA0B168FBF7BFFBAFF250
:104B4000A400B968FBF7BAFBAFF2A820FBF7B6FBED
:104B5000AFF27420FBF7B2FB02E00A20FFF7D6FCAD
:104B60000020FBF71BFF0428F7D15D4800F012FF7F
:104B70005CA0FBF7A3FBAFF22840FBF79FFBAFF273
:104B80004C20E168FBF79AFBAFF228206968FBF73D
:104B900095FB3BA07168FBF791FBAFF20820FBF798
:104BA0008DFBAFF2D4102169FBF788FBAFF2B01098
:104BB000A968FBF783FB3EA0B168FBF77FFBAFF270
:104BC0001C30FBF77BFBAFF2E820FBF777FB02E042
:104BD0000A20FFF79BFC0020FBF7E0FE0428F7D13A
:104BE00060683F4940686060A1F1280000F00AFF5A
:104BF0004BA0FBF763FBAFF2A840FBF75FFBAFF204
:104C00004C406168FBF75AFBAFF2D820E168FBF734
:104C100055FBAFF2A8107968FBF750FBAFF2BC2050
:104C20006968FBF74BFB16A07168FBF747FBAFF217
:104C30009C20FBF743FBAFF268202169FBF73EFBAA
:104C4000AFF2A810B968FBF739FBAFF24C20A968A6
:104C5000FBF734FB16A0B168FBF730FB3FA0FBF776
:104C60002DFB4E4C4FF47A75D4F8940130B10021ED
:104C7000C4F89411284601F017F8F5E70121F7E789
:104C80004C6973744974656D332D3E70784E657848
:104C900074202020202020202020202020202020C0
:104CA000202025237809090909090D0A00000000C0
:104CB0004C6973744974656D332D3E70785072651C
:104CC00076696F757320202020202020202020204E
:104CD000202025237809090909090D0A0000000090
:104CE000E00000202F2A2A2A2A2A2A2A2A2A2A2AC7
:104CF0002A2A2A2A2A2A2AC9BEB3FDC1D0B1EDCF59
:104D0000EE4C6973744974656D322A2A2A2A2A2A5C
:104D10002A2A2A2A2A2A2A2A2A2A2A2F0D0A00007F
:104D20002F2A2A2A2A2A2A2A2A2A2A2A2A2A2A2ADE
:104D3000D4DAC4A9CEB2CCEDBCD3C1D0B1EDCFEEA4
:104D40004C6973744974656D322A2A2A2A2A2A2AE0
:104D50002A2A2A2A2A2A2A2A2F0D0A002F2A2A2A10
:104D60002A2A2A2A2A2A2A2A2A2A2A2A2A2A2A2AA3
:104D70002A2A2A2A2ABDE1CAF82A2A2A2A2A2A2ADB
:104D80002A2A2A2A2A2A2A2A2A2A2A2A2A2A2A2A83
:104D90002A2A2A2F0D0A0D0A0D0A000000002342BC
:104DA0001CB54FF44070FFF773F9FFF78BFB4FF41E
:104DB000E13000F09FFDFFF70FF9FBF7D1FDFBF7A6
:104DC000B1FF20494FF47840102408801EA0CDE99F
:104DD00000402346C8220A211E20FFF7C1F81FA069
:104DE000CDE900401E211023C8220846FFF7B8F87D
:104DF0001FA0CDE900401023C82232211E20FFF75A
:104E0000AFF820A0CDE900401023C82246211E2083
:104E1000FFF7A6F81FA0CDE900401023C8225A21B1
:104E20001E20FFF79DF81E490120CDE90001002357
:104E300080221CA11E4801F043FC01F095F80020DF
:104E40001CBD00002000002041544B2053544D3322
:104E500032463130332F34303700000046726565FA
:104E600052544F53204578616D7020372D3100002A
:104E70006C69737420616E64206C69737449746525
:104E80006D00000041544F4D40414C49454E544542
:104E90004B000000323031362F31312F32350000D7
:104EA0000000002073746172745F7461736B0000A2
:104EB000695800082DE9F041184E0F460446F56880
:104EC0003068001D00F066FD38B9306890F82C108D
:104ED00001208840316981433161601C07D137B1BD
:104EE0003168BDE8F0410E48091D00F08BBD306807
:104EF0002C44AC424460316805D2B06BBDE8F0414F
:104F0000091D00F067BD706B091D00F063FDB06AFC
:104F1000844200D2B462BDE8F08100004400002069
:104F2000F00400202DE9F041054600F077FD2D4EFC
:104F3000B068401CB06030682B4F10B1706930B35E
:104F40002BE03560B068012827D1002404EB8400F1
:104F500007EB800000F030FD641C202CF6D32348C2
:104F600000F02AFD2148143000F026FD1F482830AB
:104F700000F022FD1D483C3000F01EFD1B48503063
:104F800000F01AFD194870631430B06305E0306812
:104F9000E96AC06A884200D83560706A0121401C05
:104FA00070626864E86A326981401143316100EBE4
:104FB000800007EB8000291D00F024FD00F06AFD51
:104FC000706900280CD03068E96AC06A884207D24C
:104FD00007494FF080500860BFF34F8FBFF36F8FCA
:104FE000BDE8F0814400002020020020A004002041
:104FF00004ED00E010B500F011FD0E4C2068A0B9E2
:105000000D4800F0D9FC0C48143000F0D5FC0A48DB
:10501000E0601430206100221021052001F086F8A4
:10502000206010B105A100F00BFEBDE8104000F0BB
:1050300031BD00008000002004050020546D725135
:105040000000000070B5124E124D1CE000F0D6FFBB
:10505000306820B1002401F08DFCA4B901E00124E6
:10506000F9E700F0DBFCF068C468201D00F092FC5A
:10507000A868401EA8606868401E686000F00AFDCD
:10508000204600F052F868680028DFD170BD0000AB
:10509000DC0400204400002030B4026C0B46002ADF
:1050A0000BD0C1681144C1604468A14201D30168BA
:1050B000C16030BC1846FBF7E9B930BC70472DE938
:1050C000F041856B174604460026026C82B1C7B1D9
:1050D000E068FBF7DBF9E168206C091AE1602268FF
:1050E000914202D26168081AE060022F16D017E0E0
:1050F0002068A8B9606801F097FB06460020606050
:105100000EE0A068FBF7C2F9216CA0680844A0601B
:105110006168884204D32068A06001E005B16D1E7B
:105120006D1CA5633046BDE8F08110B50446006BE8
:1051300000F0E2FC2046BDE8104000F0DDBC0000BD
:1051400010484FF4A041420706D0C01D0D4920F081
:105150000700411AC1F5A0410B4A00230144C2E9EE
:1051600000030839103A21F0070111604B600B6011
:105170000B1AC0E9001393604FF000405360D060F9
:10518000704700002C050020A4000020074E4FF0BF
:105190008054074DFFF756FF30680128FAD92C607C
:1051A000BFF34F8FBFF36F8FF4E7000020020020A2
:1051B00004ED00E02DE9F047DDE909840E461746CD
:1051C000824691009946089DA522206BFBF7A3F922
:1051D0006FF00301206B01EB8701084420F0070703
:1051E000780705D040F22B3219A11EA0FBF766F814
:1051F00000202218315C82F83410315C11B1401C5F
:105200001028F6D3002684F84360202D00D31F25F4
:10521000E562C4E91356201D00F0D9FB04F1180023
:1052200000F0D5FB2461C5F120006462A0616665D1
:1052300084F858604A465146384600F003FB206027
:10524000B8F1000F01D0C8F80040BDE8F0870000B9
:105250002E2E5C4672656552544F535C7461736BBD
:10526000732E63004572726F723A25732C25640D9C
:105270000A00000030B5114900E011460A68824278
:10528000FBD34B685C18844203D1406818444860E3
:10529000084643681C18944209D1084C103C246805
:1052A000A24209D052681A4442600A681268026039
:1052B000814200D0086030BD0460F9E7A4000020FE
:1052C00070B5002441600B4D0061914206D8D11A9F
:1052D0008269914206D2011D286907E09A4203D2F1
:1052E000994201D3012403E0011DE86800F072FB3C
:1052F000204670BD8000002010B5044600F08EFBF3
:10530000A06B20B1002400F0C5FB204610BD012495
:10531000F9E700002DE9F34100980F460026846C60
:105320002CB940F6CE1216A11AA0FAF7C7FFA06B4F
:10533000E16B884205D340F6CF1211A115A0FAF710
:10534000BDFFA06BE16B88420CD294F945503A4600
:1053500069462046FFF7B3FE0646681C05D06D1C63
:1053600084F845503046BDE8FC81606A0028F9D0D9
:1053700004F1240001F0B2FA0028F3D00126F1E78D
:105380002E2E5C4672656552544F535C717565757F
:10539000652E63004572726F723A25732C25640D79
:1053A0000A000000F8B5054614480E46C068C068FB
:1053B000C468201D00F0EEFAE069012817D1A06949
:1053C0002B46411932462046FFF77AFF78B100207C
:1053D0000346014600902A46204601F0B1FB30B951
:1053E00007494FF4027201F11800FAF767FF616A8A
:1053F00001B02046BDE8F0400847000080000020D2
:10540000A46A000870B586B02F4E53E001980028BA
:1054100006DADDE90301029A90470198002849DB8A
:10542000039C606910B1201D00F0B4FA05A800F0DB
:10543000A7F8054601980A283CD2DFE800F00505E8
:10544000053B273805053B270298A169034601441F
:105450002A462046FFF734FF00282BD0616A2046F9
:105460008847E069012825D1002000900298A169B1
:10547000002342181946204601F062FBD0B940F2E1
:10548000213212A117A0FAF719FF13E00298A061C8
:1054900028B94FF44E720DA112A0FAF70FFFA069C0
:1054A0002B4641191A462046FFF70AFF02E0204624
:1054B00000F022FB00231A4601A9306800F072FEBA
:1054C0000028A3D106B070BD800000202E2E5C46BF
:1054D00072656552544F535C74696D6572732E63C7
:1054E000000000004572726F723A25732C25640D1E
:1054F0000A000000F8B50D46064600F07FFD68463C
:1055000000F03EF80446009810B101F033FAF8BDFF
:105510001148ADB101690968D9B10025311B2A468E
:10552000006800F09FFB01F025FA0028EFD10B493D
:105530004FF080500860BFF34F8FBFF36F8FF8BDFF
:10554000A642EBD801F016FA21463046FFF72AFFB3
:10555000F8BD0125E2E700008000002004ED00E036
:105560000648416B096829B1416BC968C968496837
:10557000816270474FF0FF31FAE7000044000020DD
:1055800070B5054601F0D6F8064E0446B068844270
:1055900003D200F009F8012000E000202860204636
:1055A000B46070BD80000020F8B5184E26E0C068D9
:1055B000C4680568201D00F0EDF9616A204688473F
:1055C000E06901281AD1A0692844A84206D92461BB
:1055D0006060211DF06800F0FDF90FE00020034637
:1055E000014600902A46204601F0AAFA30B908493F
:1055F00040F2923201F11800FAF760FEF06801689B
:105600000029D4D13169C6E90310F8BD800000201B
:10561000A46A000808484068401C04D0F42207A18E
:1056200011A0FAF74BFE502080F31188BFF34F8F83
:10563000BFF36F8FFEE70000AC0000202E2E5C460B
:1056400072656552544F535C706F727461626C6521
:105650005C525644535C41524D5F434D335C706F16
:1056600072742E63000000004572726F723A2573E7
:105670002C25640D0A000000084CE068016839B16F
:10568000002139B10020FFF735FFFFF7BBFEF4E73B
:105690000121F6E7C0680068F5E7000080000020FF
:1056A0002DE9F041044600F0B9F994F9455004F1B0
:1056B000240610E0A06C20B100212046FFF72AFE4E
:1056C00004E0606A48B1304601F008F908B100F022
:1056D00087FB6D1E6DB2002DECDC4FF0FF3684F8B9
:1056E000456000F0D7F900F099F994F9445004F1BD
:1056F000100709E0206948B1384601F0EFF808B119
:1057000000F06EFB6D1E6DB2002DF3DC84F844607A
:10571000BDE8F04100F0BEB92DE9F0410546002694
:1057200000F06CFC324F386808B9FFF709FDF868E3
:1057300005424FD1002D4DD0083568070BD005F03C
:105740000700C0F108000544680704D0BF2229A162
:1057500032A0FAF7B3FD002D3CD07868854239D8E5
:10576000234910310846046801E021460446606878
:10577000A84202D220680028F7D13868B84684428F
:1057800028D00E682068086060680836401B102822
:105790000ED96719780704D0EC2216A11FA0FAF7DA
:1057A0008DFD6068401B786038466560FFF762FDDC
:1057B0006168D8F804004246401AC8F80400D8F8D6
:1057C0000830984200D29060D8F80C0001430020C5
:1057D000C4E9000101F0CEF8700705D04FF49672CD
:1057E00004A10EA0FAF76AFD3046BDE8F081000082
:1057F000940000202E2E5C4672656552544F535C17
:10580000706F727461626C655C4D656D4D616E6741
:105810005C686561705F342E630000004572726FD2
:10582000723A25732C25640D0A00000004490868AB
:1058300018B10868026D521C0265086870470000C4
:105840004400002010B5031F4FF080741C601B1F24
:1058500021F001011960191F024B0B601439403807
:105860000A6010BD155600081CB500F0D7F80F49A6
:105870000220CDE90001002380220DA10F4800F095
:105880001FFF0A490320091DCDE9000100238022E2
:105890000BA10E4800F014FF0448001F006800F040
:1058A00039FABDE81C4000F0F5B800000400002003
:1058B0007461736B315F7461736B0000D1580008C1
:1058C0006C6973745F7461736B000000914500082C
:1058D000074C4FF4FA75D4F8940130B10021C4F8A4
:1058E0009411284600F0E0F9F5E70121F7E7000000
:1058F0000080214270B5054686B0012144F20400C3
:10590000FEF7DCFB4FF40070ADF8100003248DF8B7
:10591000124018201D4E8DF8130004A93046FAF7E6
:10592000C7FF3015ADF8100004208DF8130004A94E
:105930003046FAF7BDFF25208DF814008DF815408C
:105940008DF8164001208DF8170005A8FEF76EFBB4
:105950000020ADF80400ADF80600ADF80800ADF881
:105960000C000C200A4CADF80A0000956946204650
:10597000FEF74CFD012240F225512046FEF72DFD99
:1059800001212046FEF700FD06B070BD0008014071
:1059900000380140D0E9013201699A60D0E9012361
:1059A0005A604A68824201D182684A6000220261DC
:1059B0000868401E0860704700F108014FF0FF3290
:1059C000C0E90112C160016100210160704700213E
:1059D0000161704730B50C68621C02D000F108020A
:1059E00002E0026904E01A4653681D68A542FAD92C
:1059F00053684B6099608A60516008610168491C76
:105A0000016030BD42684A6093688B60936859605A
:105A1000916008610168491C01607047502080F363
:105A20001188BFF34F8FBFF36F8F09494868401C3F
:105A3000486001280AD10748006810F0FF0F05D020
:105A40004FF4BD7204A10FA0FAF738BC70470000F4
:105A5000AC00002004ED00E02E2E5C46726565521D
:105A6000544F535C706F727461626C655C52564443
:105A7000535C41524D5F434D335C706F72742E63C3
:105A8000000000004572726F723A25732C25640D78
:105A90000A00000010B5084C606828B940F2811275
:105AA00006A111A0FAF70AFC6068401E606001D1EF
:105AB00080F3118810BD0000AC0000202E2E5C4643
:105AC00072656552544F535C706F727461626C659D
:105AD0005C525644535C41524D5F434D335C706F92
